:100000000C94B4010C94D1010C94D1010C94D10145
:100010000C94D1010C94D1010C94D1010C94F307F0
:100020000C94D1010C94D1010C94D1010C94D10108
:100030000C94D1010C94D1010C94D1010C94D101F8
:100040000C94D1010C94D1010C94D1010C94D101E8
:100050000C94D1010C94D1010C94D1010C94D101D8
:100060000C94D1010C94D1010C94D1010C94D101C8
:10007000000000000000000000065F5F06000000B6
:100080000007070007070000147F7F147F7F14001C
:10009000242E6B6B3A120000466630180C66620024
:1000A000307A4F5D377A48000407030000000000F3
:1000B000001C3E63410000000041633E1C00000044
:1000C000082A3E1C1C3E2A0808083E3E080800007C
:1000D00000A0E06000000000080808080808000010
:1000E00000006060000000006030180C0603010092
:1000F0003E7F594D7F3E000042427F7F40400000DE
:10010000627359496F660000226349497F360000D7
:10011000181C16137F7F1000276745457D390000A6
:100120003C7E4B4979300000036371190F070000D2
:10013000367F49497F360000064F49693F1E00005F
:1001400000006C6C0000000000A0EC6C00000000DF
:10015000081C366341000000141414141414000029
:10016000004163361C080000020351590F060000CD
:100170003E7F415D5D1F1E007C7E13137E7C000070
:10018000417F7F49497F36001C3E63414163220025
:10019000417F7F41637F1C00417F7F495D41630058
:1001A000417F7F491D0103001C3E63415173720072
:1001B0007F7F08087F7F000000417F7F41000000B3
:1001C000307040417F3F0100417F7F081C77630012
:1001D000417F7F41406070007F7F060C067F7F007B
:1001E0007F7F060C187F7F001C3E6341633E1C002E
:1001F000417F7F49090F06001E3F21717F5E00008D
:10020000417F7F19396F460026674D597B320000C8
:1002100003417F7F410300007F7F40407F7F0000DC
:100220001F3F60603F1F00007F7F3018307F7F00DE
:1002300063771C081C776300074F78784F0700002E
:100240006773594D47637100007F7F414100000093
:100250000103060C183060000041417F7F00000060
:10026000080C0603060C0800808080808080808057
:100270000000030704000000207454543C78400040
:10028000413F7F44447C3800387C44446C28000063
:10029000307848493F7F4000387C54545C18000057
:1002A000487E7F490302000098BCA4A4F87C0400A7
:1002B000417F7F08047C780000447D7D4000000081
:1002C00040C484FD7D000000417F7F10386C4400F5
:1002D00000417F7F400000007C7C0C180C7C780083
:1002E0007C7C04047C780000387C44447C3800002A
:1002F00084FCF8A4243C1800183C24A4F8FC8400D6
:10030000447C78441C180000485C54547424000059
:1003100000043E7F442400003C7C40403C7C400084
:100320001C3C60603C1C00003C7C6030607C3C00FD
:10033000446C3810386C44009CBCA0A0FC7C0000CD
:100340004C64745C4C64000008083E774141000036
:1003500000000077770000004141773E0808000068
:10036000020301030203010011241FBECFEFD4E0FA
:10037000DEBFCDBF13E0A0E0B1E0E8EFF9E102C0DD
:1003800005900D92A039B107D9F723E0A0E9B3E0B9
:1003900001C01D92AA3BB207E1F70E9428060C9407
:1003A000FA0C0C94000087B3817F87BB089526B3B5
:1003B00041E050E0082E02C0440F551F0A94E2F7B6
:1003C00030E024233523A90102C0559547958A952D
:1003D000E2F7CA0108950E94D70180939203282F63
:1003E00030E040919003509191032417350749F074
:1003F000309391032093900391E0813019F090E0C5
:1004000001C090E0892F08950E9457038FE00E9459
:1004100045031F928F938AE291E09F938F930E94EE
:10042000A7094FEF60E680E60E94230340E064E006
:1004300080E60E9423034FEF61E08BE20E942303DA
:1004400040E060EE8FE00E9423030F900F900F902A
:100450000F90089580E30E944503869586958695C2
:1004600091E08927817090E008951F93CF93DF93E7
:10047000EC010E942A02892BE1F36881798175954C
:100480006795759567957595679581E30E94FF025D
:1004900068817981660F771F62957295707F7627E4
:1004A000607F762782E30E94FF026A816F7085E396
:1004B0000E94FF028A81882369F010E0FE01E10FAB
:1004C000F11D638186E3810F0E94FF021F5F8A8115
:1004D0001817A0F381E00E941303DF91CF911F91C1
:1004E000089581E090E090939F0380939E0382E0C3
:1004F0008093A00380E00E94B3028093A10381E077
:100500000E94B3028093A2038EE993E00E94350219
:10051000089523E030E0309394032093930392E016
:10052000909395038093960383E993E00E943502AC
:1005300008958C5F8093001481E48A95F1F700C0E0
:100540008091001490E0089580E00E9499029093B9
:10055000AB038093AA0381E00E9499029093AD03BC
:100560008093AC030895CF93C82F0E949902C111C4
:1005700007C02091AA033091AB03821B930B08C0E4
:10058000C13031F42091AC033091AD03821B930B49
:1005900080382FEF920714F480E89FEF80389105A0
:1005A00014F08FE790E0CF91089581E00E94B302AC
:1005B0008436910564F421E030E08D399F4F14F0CA
:1005C00020E030E088279927821B930B089581E073
:1005D00090E0089580E00E94B3028436910564F4AF
:1005E00021E030E08D399F4F14F020E030E0882783
:1005F0009927821B930B089581E090E00895CF9393
:10060000DF93D82FC62F0E942F0582E00E94240579
:100610008D2F0E9424058C2F0E9424050E943105F5
:10062000DF91CF910895CF93883018F4C82FC06818
:1006300001C0C0E80E942F058C2F0E9424050E9453
:100640003105CF9108951F93CF93DF93182FD62FA5
:10065000C42F0E942F0585E00E942405812F0E944F
:1006600024058D2F0E9424058C2F0E9424050E94B2
:100670003105DF91CF911F9108950E942F0580ECE5
:100680000E9424050E9431050895CF93C82F0E942F
:100690002F0583E00E9424058C2F0E9424050E94D0
:1006A0002805C82F0E9431058C2FCF910895CF9334
:1006B000DF931F92CDB7DEB70E941C050E943D0359
:1006C0008EE00E94450389838981807E803821F0F5
:1006D0008CEA91E00E94BB090F90DF91CF910895C1
:1006E00028E0829FC0011124FC01E059F04080E025
:1006F0009491A0910A01B0910B019C938F5F319668
:100700008830B1F7089590EB980FE0910C01F091CB
:100710000D0190838093AE0382E58A95F1F70895E9
:1007200080E890E0E0910A01F0910B0110820197BE
:100730000097C1F70895CF93DF93C0E0D0E0CE01DA
:100740000E9483030E9490032196C830D105B9F717
:10075000DF91CF910895CF93DF93EB010E94830344
:10076000C031D105E8F48C2F880F880F880F809353
:10077000AF03E0910C01F0910D01CC0FDD1FCC0F08
:10078000DD1FCC0FDD1FD295C295CF70CD27DF7056
:10079000CD27C083E0910C01F0910D01C05FC083B3
:1007A000DF91CF910895CF93DF93CDB7DEB7FE01F0
:1007B000359661917191AF018EE091E00E94E80958
:1007C000DF91CF910895E0910C01F0910D018EEA37
:1007D0008083E0910C01F0910D0181EA8083E0912A
:1007E0000C01F0910D018AED8083E0910C01F091F4
:1007F0000D0182E18083E0910C01F0910D0188EC04
:100800008083E0910C01F0910D0188EA8083E091F2
:100810000C01F0910D018FE38083E0910C01F091C8
:100820000D0185ED8083E0910C01F0910D0180E8D0
:100830008083E0910C01F0910D0181E88083E091CB
:100840000C01F0910D0180E58083E0910C01F091A5
:100850000D0189ED8083E0910C01F0910D0181E2A1
:100860008083E0910C01F0910D0180E28083E091A2
:100870000C01F0910D0182E08083E0910C01F09178
:100880000D018BED8083E0910C01F0910D0180E36F
:100890008083E0910C01F0910D018DEA8083E0915D
:1008A0000C01F0910D011082E0910C01F0910D010D
:1008B00084EA8083E0910C01F0910D0186EA808347
:1008C000E0910C01F0910D018FEA80830E949B035F
:1008D00063E070E082E090E00E94AB038DE092E084
:1008E0009F938F930E94D30367E070E083E090E0D2
:1008F0000E94AB0384E192E09F938F930E94D30305
:1009000069E070E084E090E00E94AB0388E192E04F
:100910009F938F930E94D3032FEF8FEF9BE0215083
:1009200080409040E1F700C000C00E949B030F9000
:100930000F900F900F900F900F9008958091A90342
:1009400008958093A90370E090E00E94AB03E091CA
:100950000A01F0910B0188E18083E0910A01F09196
:100960000B018083E0910A01F0910B019EE79083D7
:10097000E0910A01F0910B019CE39083E0910A0160
:10098000F0910B018083089570E090E00E94AB032A
:10099000E0910A01F0910B011082E0910A01F091BF
:1009A0000B011082E0910A01F0910B011082E0919D
:1009B0000A01F0910B011082E0910A01F0910B0104
:1009C000108208959923A4F4E091A9032E2F30E01A
:1009D0002417350768F460E08E2F0E94C4048091CC
:1009E000A9038F5F8093A90360E00E94A10408958A
:1009F0001816190694F48091A903282F30E0621785
:100A0000730758F460E00E94C4048091A9038150E8
:100A10008093A90360E00E94A10408950E94E2046B
:100A20002CEC8CE091E0215080409040E1F700C038
:100A30008091A90390E0089587B3806B87BBBE982F
:100A40008DB181658DB908958FB9779BFECF0895DB
:100A50008AEA0E942405779BFECF8FB10895C4983F
:100A60000895C49A0895CF92DF92EF92FF920F9368
:100A70001F93CF93DF930E949B0362E070E083E0BB
:100A800090E00E94AB038EE192E09F938F930E94CF
:100A9000D3038BE292E00E94BB090E9497096C018C
:100AA0000E949C090F900F90C0E0D0E000E010E0A1
:100AB0000F2EF2E4EF2EF2E0FF2EF02D0E949709A8
:100AC000FE01F85E808320812817A9F099279F9363
:100AD0008F931F922F93DF93CF93FF92EF920E94F9
:100AE000A7090F5F1F4F8DB79EB708960FB6F894F2
:100AF0009EBF0FBE8DBF2196C11598E0D907F1F6B4
:100B0000C6010E949C09C0E0D0E0E12CF12C0F2E20
:100B1000FBE7CF2EF2E0DF2EF02D0E949709FE01B9
:100B2000F85E20812817B1F099279F938F931F9229
:100B30002F93DF93CF93DF92CF920E94A7099FEF6D
:100B4000E91AF90A8DB79EB708960FB6F8949EBFBA
:100B50000FBE8DBF2196C11598E0D907F1F6E114BB
:100B6000F10419F40115110571F160E070E085E000
:100B700090E00E94AB03FF92EF9288EB92E09F938C
:100B80008F930E94D30360E070E086E090E00E94C3
:100B9000AB031F930F9387EC92E09F938F930E9478
:100BA000D3032FEF8FEF9BE3215080409040E1F77C
:100BB00000C000008DB79EB708960FB6F8949EBF90
:100BC0000FBE8DBF0EC064E070E086E090E00E9432
:100BD000AB0386ED92E09F938F930E94D3030F9017
:100BE0000F90FF92EF921F930F9380EE92E09F93EE
:100BF0008F930E94A7090F900F900F900F900F9066
:100C00000F90DF91CF911F910F91FF90EF90DF90A8
:100C1000CF90089580E885BF8FEF8ABB0E9433058F
:100C200008955D9BFECF8CB908955F9BFECF8CB17C
:100C300090E0089589B988E18AB98CE191E09093B8
:100C4000B7038093B6039093B5038093B4030895DC
:100C50008FE190E00E941A0689E393E00E94BB09AD
:100C60000E940A060E94A4020E94D3010E94E3038C
:100C70000E9404020E94CD07B89A83E493E00E9488
:100C8000BB090E949D060E944807FBCFDF92EF92AE
:100C9000FF920F931F93CF93DF937C018B01D42E90
:100CA00089E090E00E942208EC01FE82ED82188724
:100CB0000F83D8824D2D50E0CA01880F991F880FED
:100CC000991F880F991F840F951F0E9422089A83ED
:100CD0008983CE01DF91CF911F910F91FF90EF900B
:100CE000DF9008951F93CF93DF93EC0188818823D1
:100CF00001F110E0812F90E0880F991FE981FA81BE
:100D0000E80FF91F0190F081E02DD483C38329817E
:100D10003A81F901E80FF91F0190F081E02D8081FF
:100D2000882319F0CF010E9472061F5F888118176F
:100D300008F3DF91CF911F9108950F931F93CF93E5
:100D4000DF9343E060E070E083E593E00E944606B5
:100D5000EC011C821B8209811A8140E063E375E08B
:100D600088E593E00E944606F8019183808309811B
:100D70001A8140E063E375E082E693E00E94460654
:100D8000F8019383828309811A8142E060E070E078
:100D900088E693E00E944606F80195838483E98102
:100DA000FA810480F581E02D0181128140E064EC3C
:100DB00077E087E793E00E944606F80191838083FD
:100DC000E981FA810480F581E02D0181128140E002
:100DD00063E375E083E893E00E944606F80193839D
:100DE0008283CE010E947206CE01DF91CF911F91C6
:100DF0000F910895EF92FF920F931F93CF93DF937C
:100E00007C010E949B0360E081E00E94A10460E0FD
:100E100070E080E090E00E94AB03D70116968C91C1
:100E200016978F9315968C918F930E94D3030F90F2
:100E30000F90F7018081882321F100E010E0C0E0ED
:100E4000D0E0219662E070E0CE010E94AB03D701B2
:100E50001196ED91FC911297E00FF11F0190F08136
:100E6000E02D86818F9385818F930E94D3030E5F3F
:100E70001F4FF701808190E00F900F90C817D9079E
:100E800000F3DF91CF911F910F91FF90EF900895A4
:100E90008C010E94FA060E94D502892B51F0F801BC
:100EA000C081D0E00E94D502AE0161E070E00E94F6
:100EB0000E050E94EA02892B71F30E94EA02019753
:100EC00009F04BC0F801C181D2810E949E0490E0DC
:100ED00081509048880F991FC80FD91FE881F98168
:100EE0008081882391F0F801C181D2810E949E0403
:100EF00090E081509048880F991FC80FD91F088132
:100F00001981C8010E94FA0635C0F801C181D28159
:100F10000E949E0490E081509048880F991FC80F4E
:100F2000D91FE881F98187819085892B19F1F80112
:100F3000C181D2810E949E0490E081509048880F28
:100F4000991FC80FD91FE881F9810780F085E02D2E
:100F50000995C8010E94FA060DC00E94EA02019696
:100F600049F4F801C381D481209721F0CE010E9479
:100F7000FA068E01FFEF2FE781E0F150204080401C
:100F8000E1F700C000C087CFC09A8FEF9FE20197C2
:100F9000F1F700C00000C0980895EAE8F0E0808111
:100FA0008560808380818D7F8083ABE8B0E08C9109
:100FB0008E7F8C938C918D7F8C93808188608083D1
:100FC00080818F7E808384E490E09093870080937B
:100FD0008600EDE7F0E080818061808388B78860DB
:100FE00088BF789408951F920F920FB60F92112424
:100FF0002F933F934F935F936F937F938F939F9321
:10100000AF93BF93EF93FF930E94710281E00E9420
:10101000EB01882331F081E090E00E9489020E9478
:10102000C407FF91EF91BF91AF919F918F917F91F5
:101030006F915F914F913F912F910F900FBE0F9045
:101040001F901895CF93DF938230910510F482E0C2
:1010500090E0E091B203F091B30320E030E0A0E033
:10106000B0E0309739F14081518148175907B8F005
:101070004817590771F482819381109729F01396CC
:101080009C938E9312972CC09093B3038093B203DA
:1010900027C02115310531F04217530718F0A90177
:1010A000DB0101C0EF019A01BD01DF010280F38184
:1010B000E02DD7CF21153105F9F0281B390B24304D
:1010C000310580F48A819B816115710521F0FB0156
:1010D0009383828304C09093B3038093B203FE0191
:1010E000329644C0FE01E20FF31F81939193225088
:1010F0003109398328833AC02091B0033091B1037C
:10110000232B41F420910201309103013093B1036C
:101110002093B00320910001309101012115310588
:1011200041F42DB73EB74091040150910501241BB5
:10113000350BE091B003F091B103E217F307A0F48F
:101140002E1B3F0B2817390778F0AC014E5F5F4F1D
:101150002417350748F04E0F5F1F5093B10340939B
:10116000B0038193919302C0E0E0F0E0CF01DF9102
:10117000CF910895CF93DF93009709F487C0FC01C6
:10118000329713821282C091B203D091B303209799
:1011900081F420813181280F391F8091B003909113
:1011A000B1038217930779F5F093B103E093B0038D
:1011B0006DC0DE0120E030E0AE17BF0750F412969C
:1011C0004D915C9113979D014115510509F1DA018B
:1011D000F3CFB383A28340815181840F951F8A1777
:1011E0009B0771F48D919C911197840F951F029626
:1011F0009183808312968D919C9113979383828320
:101200002115310529F4F093B303E093B2033EC0F6
:10121000D9011396FC93EE9312974D915D91A40F13
:10122000B51FEA17FB0779F480819181840F951F20
:101230000296D90111969C938E9382819381139685
:101240009C938E931297E0E0F0E08A819B81009757
:1012500019F0FE01EC01F9CFCE0102962881398107
:10126000820F931F2091B0033091B10328173907E3
:1012700069F4309729F41092B3031092B20302C0BC
:1012800013821282D093B103C093B003DF91CF9148
:1012900008958F929F92AF92BF92CF92DF92EF927A
:1012A000FF92CF93DF93EC01688179818A819B81E2
:1012B000611571058105910521F464E279ED8BE5F5
:1012C00097E02DE133EF41E050E00E94600C4901CE
:1012D0005A019B01AC01A7EAB1E40E947F0C6B01AB
:1012E0007C01ACEEB4EFA50194010E948D0CC60EFA
:1012F000D71EE81EF91EF7FE06C081E0C81AD10805
:10130000E10880E8F80AC882D982EA82FB82C60135
:101310009F77DF91CF91FF90EF90DF90CF90BF90BC
:10132000AF909F908F9008950E944909089586E09C
:1013300091E00E9449090895A0E0B0E08093060181
:1013400090930701A0930801B09309010895A0E0CC
:10135000B0E0EDEAF9E00C94A20CFE013596619143
:101360007191AF018091B6039091B7030E94E80993
:10137000E2E00C94BE0C0F931F93CF93DF93E091A8
:10138000B603F091B703238121FF1BC0EC0100E0FD
:1013900010E089916091B6037091B703DB01189654
:1013A000ED91FC911997882331F00995892B89F3E8
:1013B0000FEF1FEFEECF8AE00995892B11F4C801DA
:1013C00002C08FEF9FEFDF91CF911F910F91089592
:1013D000ACE0B0E0EEEEF9E00C94920C7C016B0115
:1013E0008A01FC0117821682838181FFBDC1CE0173
:1013F00001964C01F7019381F60193FD859193FFCE
:1014000081916F01882309F4ABC1853239F493FDD2
:10141000859193FF81916F01853229F4B70190E0A6
:101420000E94D00BE7CF512C312C20E02032A0F4C9
:101430008B3269F030F4803259F0833269F42061E4
:101440002CC08D3239F0803339F4216026C02260FF
:10145000246023C0286021C027FD27C030ED380F4D
:101460003A3078F426FF06C0FAE05F9E300D112472
:10147000532E13C08AE0389E300D1124332E206283
:101480000CC08E3221F426FD6BC1206406C08C3660
:1014900011F4206802C0883641F4F60193FD85916D
:1014A00093FF81916F018111C1CF982F9F7D95543A
:1014B000933028F40C5F1F4FFFE3F9830DC0833690
:1014C00031F0833771F0833509F05BC022C0F80139
:1014D000808189830E5F1F4F44244394512C540113
:1014E00015C03801F2E06F0E711CF801A080B180C8
:1014F00026FF03C0652D70E002C06FEF7FEFC501CE
:101500002C870E94C50B2C0183012C852F77222E5E
:1015100017C03801F2E06F0E711CF801A080B18095
:1015200026FF03C0652D70E002C06FEF7FEFC5019D
:101530002C870E94BA0B2C012C852068222E830157
:1015400023FC1BC0832D90E048165906B0F4B70168
:1015500080E290E00E94D00B3A94F4CFF50127FC92
:10156000859127FE81915F01B70190E00E94D00B29
:1015700031103A94F1E04F1A51084114510471F7B7
:10158000E5C0843611F0893639F5F80127FF07C028
:1015900060817181828193810C5F1F4F08C06081DF
:1015A0007181882777FD8095982F0E5F1F4F2F76CA
:1015B000B22E97FF09C090958095709561957F4FE9
:1015C0008F4F9F4F2068B22E2AE030E0A4010E9486
:1015D000020CA82EA81844C0853729F42F7EB22EFD
:1015E0002AE030E025C0F22FF97FBF2E8F36C1F000
:1015F00018F4883579F0B4C0803719F0883721F0B5
:10160000AFC02F2F2061B22EB4FE0DC08B2D846091
:10161000B82E09C024FF0AC09F2F9660B92E06C0BD
:1016200028E030E005C020E130E002C020E132E0F7
:10163000F801B7FE07C060817181828193810C5FE0
:101640001F4F06C06081718180E090E00E5F1F4FE8
:10165000A4010E94020CA82EA818FB2DFF77BF2E14
:10166000B6FE0BC02B2D2E7FA51450F4B4FE0AC07D
:10167000B2FC08C02B2D2E7E05C07A2C2B2D03C06A
:101680007A2C01C0752C24FF0DC0FE01EA0DF11D5E
:101690008081803311F4297E09C022FF06C0739433
:1016A000739404C0822F867809F0739423FD13C0CD
:1016B00020FF06C05A2C731418F4530C5718732CBF
:1016C000731468F4B70180E290E02C870E94D00B7D
:1016D00073942C85F5CF731410F4371801C0312C96
:1016E00024FF12C0B70180E390E02C870E94D00B4A
:1016F0002C8522FF17C021FF03C088E590E002C0BF
:1017000088E790E0B7010CC0822F867859F021FD60
:1017100002C080E201C08BE227FD8DE2B70190E0BC
:101720000E94D00BA51438F4B70180E390E00E942A
:10173000D00B5A94F7CFAA94F401EA0DF11D8081E1
:10174000B70190E00E94D00BA110F5CF332009F42F
:1017500051CEB70180E290E00E94D00B3A94F6CFD0
:10176000F7018681978102C08FEF9FEF2C96E2E10F
:101770000C94AE0CFC010590615070400110D8F73C
:10178000809590958E0F9F1F0895FC0161507040C9
:1017900001900110D8F7809590958E0F9F1F0895A6
:1017A0000F931F93CF93DF93182F092FEB018B819A
:1017B00081FD03C08FEF9FEF20C082FF10C04E81DC
:1017C0005F812C813D81421753077CF4E881F981C8
:1017D0009F012F5F3F4F39832883108306C0E88520
:1017E000F985812F0995892B29F72E813F812F5F5C
:1017F0003F4F3F832E83812F902FDF91CF911F91F9
:101800000F910895FA01AA27283051F1203181F172
:10181000E8946F936E7F6E5F7F4F8F4F9F4FAF4FF8
:10182000B1E03ED0B4E03CD0670F781F891F9A1F0B
:10183000A11D680F791F8A1F911DA11D6A0F711DBF
:10184000811D911DA11D20D009F468943F912AE0CB
:10185000269F11243019305D3193DEF6CF010895B3
:10186000462F4770405D4193B3E00FD0C9F7F6CFE4
:10187000462F4F70405D4A3318F0495D31FD4052AC
:10188000419302D0A9F7EACFB4E0A6959795879542
:1018900077956795BA95C9F7009761057105089521
:1018A0009B01AC010A2E06945795479537952795CD
:1018B000BA95C9F7620F731F841F951FA01D089565
:1018C000052E97FB1EF400940E94770C57FD07D05D
:1018D0000E94C90C07FC03D04EF40C94770C509571
:1018E0004095309521953F4F4F4F5F4F089590950C
:1018F0008095709561957F4F8F4F9F4F08950E94FF
:10190000EB0CA59F900DB49F900DA49F800D911D91
:1019100011240895B7FF0C947F0C0E947F0C821B4A
:10192000930B08952F923F924F925F926F927F9206
:101930008F929F92AF92BF92CF92DF92EF92FF92DF
:101940000F931F93CF93DF93CDB7DEB7CA1BDB0B8B
:101950000FB6F894DEBF0FBECDBF09942A88398830
:1019600048885F846E847D848C849B84AA84B98437
:10197000C884DF80EE80FD800C811B81AA81B98143
:10198000CE0FD11D0FB6F894DEBF0FBECDBFED0157
:101990000895A1E21A2EAA1BBB1BFD010DC0AA1FB0
:1019A000BB1FEE1FFF1FA217B307E407F50720F0C8
:1019B000A21BB30BE40BF50B661F771F881F991F43
:1019C0001A9469F760957095809590959B01AC018C
:1019D000BD01CF010895A29FB001B39FC001A39F95
:1019E000700D811D1124911DB29F700D811D112458
:0819F000911D0895F894FFCF4A
:1019F8000000BA03200001000000001200100000DF
:101A08000002000000007003000000000000000356
:101A18000000000011061506000043414E435452D1
:101A28004C20286578706563742030783837293AF7
:101A3800203078253032780A004E6F206D65737338
:101A480061676520696E206275666665720A004D79
:101A58006573736167652069643A2025640A4D657A
:101A68007373616765206C656E6774682025640A06
:101A7800004D65737361676520646174613A205B2A
:101A8800202564002C20256400205D0A0043414E77
:101A98004354524C3A20253032780A004D43503294
:101AA800353135206973206E6F7420696E20636F3D
:101AB8006E666967206D6F64652061667465722063
:101AC8007265736574004E6F7420696E206C6F6F59
:101AD800706261636B206F7065726174696F6E20EC
:101AE8006D6F6465004F70206D6F64653A202578CE
:101AF8000A005465737420646F6E650A00202353CE
:101B08005741470020203400204C59464500544591
:101B18005354494E47205352414D000A5374617241
:101B280074696E67205352414D20746573742E2E6C
:101B38002E0057726974652070686173652065723C
:101B4800726F723A206578745F72616D5B253464D8
:101B58005D203D2025303258202873686F756C64ED
:101B68002062652025303258290A0052657472694E
:101B78006576616C207068617365206572726F723A
:101B88003A206578745F72616D5B2534645D203D31
:101B98002025303258202873686F756C6420626580
:101BA8002025303258290A0052204552524F5253AC
:101BB8003A20202534640057204552524F52533A58
:101BC8002020253464004E4F204552524F52530076
:101BD8005352414D207465737420636F6D706C654A
:101BE8007465642077697468200A253464206572F6
:101BF800726F727320696E207772697465207068DD
:101C080061736520616E64200A25346420657272F0
:101C18006F727320696E2072657472696576616C83
:101C28002070686173650A0A000A5245424F4F5492
:101C38004544000A416C6C20696E697420646F6EBB
:101C4800650A004D61696E00506C61792067616DAD
:101C58006500536E616B6500546573742066756E1C
:101C68006374696F6E7300466C6173682064696F92
:101C780064650043414E206C6F6F706261636B0056
:00000001FF
