:100000000C94B4010C9440020C94D1010C94D101D5
:100010000C94D1010C94D1010C94D1010C94D10118
:100020000C94D1010C94D1010C94D1010C94D10108
:100030000C94D1010C94D1010C94D1010C94D101F8
:100040000C94D1010C94D1010C94D1010C94D101E8
:100050000C94D1010C94D1010C94D1010C94D101D8
:100060000C94D1010C94D1010C94D1010C94D101C8
:10007000000000000000000000065F5F06000000B6
:100080000007070007070000147F7F147F7F14001C
:10009000242E6B6B3A120000466630180C66620024
:1000A000307A4F5D377A48000407030000000000F3
:1000B000001C3E63410000000041633E1C00000044
:1000C000082A3E1C1C3E2A0808083E3E080800007C
:1000D00000A0E06000000000080808080808000010
:1000E00000006060000000006030180C0603010092
:1000F0003E7F594D7F3E000042427F7F40400000DE
:10010000627359496F660000226349497F360000D7
:10011000181C16137F7F1000276745457D390000A6
:100120003C7E4B4979300000036371190F070000D2
:10013000367F49497F360000064F49693F1E00005F
:1001400000006C6C0000000000A0EC6C00000000DF
:10015000081C366341000000141414141414000029
:10016000004163361C080000020351590F060000CD
:100170003E7F415D5D1F1E007C7E13137E7C000070
:10018000417F7F49497F36001C3E63414163220025
:10019000417F7F41637F1C00417F7F495D41630058
:1001A000417F7F491D0103001C3E63415173720072
:1001B0007F7F08087F7F000000417F7F41000000B3
:1001C000307040417F3F0100417F7F081C77630012
:1001D000417F7F41406070007F7F060C067F7F007B
:1001E0007F7F060C187F7F001C3E6341633E1C002E
:1001F000417F7F49090F06001E3F21717F5E00008D
:10020000417F7F19396F460026674D597B320000C8
:1002100003417F7F410300007F7F40407F7F0000DC
:100220001F3F60603F1F00007F7F3018307F7F00DE
:1002300063771C081C776300074F78784F0700002E
:100240006773594D47637100007F7F414100000093
:100250000103060C183060000041417F7F00000060
:10026000080C0603060C0800808080808080808057
:100270000000030704000000207454543C78400040
:10028000413F7F44447C3800387C44446C28000063
:10029000307848493F7F4000387C54545C18000057
:1002A000487E7F490302000098BCA4A4F87C0400A7
:1002B000417F7F08047C780000447D7D4000000081
:1002C00040C484FD7D000000417F7F10386C4400F5
:1002D00000417F7F400000007C7C0C180C7C780083
:1002E0007C7C04047C780000387C44447C3800002A
:1002F00084FCF8A4243C1800183C24A4F8FC8400D6
:10030000447C78441C180000485C54547424000059
:1003100000043E7F442400003C7C40403C7C400084
:100320001C3C60603C1C00003C7C6030607C3C00FD
:10033000446C3810386C44009CBCA0A0FC7C0000CD
:100340004C64745C4C64000008083E774141000036
:1003500000000077770000004141773E0808000068
:10036000020301030203010011241FBECFEFD4E0FA
:10037000DEBFCDBF13E0A0E0B1E0E2EDF2E102C0EC
:1003800005900D92A833B107D9F723E0A8E3B3E0B5
:1003900001C01D92A534B207E1F70E948F050C94AD
:1003A00067090C9400000E9438038FE00E94260326
:1003B0001F928F9384E291E09F938F930E94140683
:1003C0004FEF60E680E60E94040340E064E080E6D0
:1003D0000E9404034FEF61E08BE20E94040340E0BF
:1003E00060EE8FE00E9404030F900F900F900F902B
:1003F000089580E30E94260386958695869591E070
:100400008927817090E008951F93CF93DF93EC01CB
:100410000E94F901892BE1F36881798175956795CF
:10042000759567957595679581E30E94E0026881EF
:100430007981660F771F62957295707F7627607F4E
:10044000762782E30E94E0026A816F7085E30E9452
:10045000E0028A81882369F010E0FE01E10FF11DBE
:10046000638186E3810F0E94E0021F5F8A81181773
:10047000A0F381E00E94F402DF91CF911F910895D3
:100480001F920F920FB60F9211248F939F938FEFAD
:100490009FE20197F1F700C0000081E080933803EC
:1004A0009F918F910F900FBE0F901F901895CF9333
:1004B000DF93CDB7DEB72B970FB6F894DEBF0FBE34
:1004C000CDBF9A83898382E08B8380E00E94BE0245
:1004D0008C8381E00E94BE028D83CE0101960E9432
:1004E00004022B960FB6F894DEBF0FBECDBFDF918E
:1004F000CF9108958FE00E9426031F928F93C1E849
:10050000D1E0DF93CF930E94140640E060EE8FE0CD
:100510000E9404038FE00E9426031F928F93DF93B3
:10052000CF930E9414068DB79EB708960FB6F89425
:100530009EBF0FBE8DBFC0E08C2F90E00E9457027F
:10054000CF5F0E94AD05F8CF8C5F8093001481E4EB
:100550008A95F1F700C08091001490E0089580E042
:100560000E94A40290933A038093390381E00E9491
:10057000A40290933C0380933B030895CF93C82F2C
:100580000E94A402C11107C02091390330913A039F
:10059000821B930B08C0C13031F420913B03309192
:1005A0003C03821B930B80382FEF920714F480E8F2
:1005B0009FEF8038910514F08FE790E0CF91089578
:1005C000CF93DF93D82FC62F0E94960482E00E941B
:1005D0008B048D2F0E948B048C2F0E948B040E9411
:1005E0009804DF91CF910895CF93883018F4C82FE5
:1005F000C06801C0C0E80E9496048C2F0E948B0442
:100600000E949804CF9108951F93CF93DF93182FE2
:10061000D62FC42F0E94960485E00E948B04812F60
:100620000E948B048D2F0E948B048C2F0E948B04C0
:100630000E949804DF91CF911F9108950E94960423
:1006400080EC0E948B040E9498040895CF93C82FD9
:100650000E94960483E00E948B048C2F0E948B04DE
:100660000E948F04C82F0E9498048C2FCF91089568
:10067000CF93DF931F92CDB7DEB70E9483040E9411
:100680001E038EE00E94260389838981807E803844
:1006900021F080E991E00E9428060F90DF91CF9130
:1006A000089528E0829FC0011124FC01E059F04028
:1006B00080E09491A0910401B09105019C938F5F1B
:1006C00031968830B1F7089590EB980FE0910601CC
:1006D000F0910701908380933D0382E58A95F1F7BD
:1006E000089580E890E0E0910401F0910501108206
:1006F00001970097C1F70895CF93DF93C0E0D0E052
:10070000CE010E9464030E94710380E090EF019784
:10071000F1F72196C830D10599F7DF91CF9108956F
:10072000CF93DF93EB010E946403C031D105E8F45D
:100730008C2F880F880F880F80933E03E09106016D
:10074000F0910701CC0FDD1FCC0FDD1FCC0FDD1F9B
:10075000D295C295CF70CD27DF70CD27C083E091B1
:100760000601F0910701C05FC083DF91CF9108952A
:10077000CF93DF93CDB7DEB7FE01359661917191CE
:10078000AF0188E091E00E945506DF91CF91089576
:10079000E0910601F09107018EEA8083E091060165
:1007A000F091070181EA8083E0910601F091070151
:1007B0008AED8083E0910601F091070182E1808358
:1007C000E0910601F091070188EC8083E091060139
:1007D000F091070188EA8083E0910601F09107011A
:1007E0008FE38083E0910601F091070185ED80831E
:1007F000E0910601F091070180E88083E091060115
:10080000F091070181E88083E0910601F0910701F2
:1008100080E58083E0910601F091070189ED8083F6
:10082000E0910601F091070181E28083E0910601E9
:10083000F091070180E28083E0910601F0910701C9
:1008400082E08083E0910601F09107018BED8083C7
:10085000E0910601F091070180E38083E0910601B9
:10086000F09107018DEA8083E0910601F091070184
:100870001082E0910601F091070184EA8083E09103
:100880000601F091070186EA8083E0910601F0916C
:1008900007018FEA80830E947C0363E070E082E0BE
:1008A00090E00E94900381EF91E09F938F930E94CC
:1008B000B80367E070E083E090E00E94900388EF67
:1008C00091E09F938F930E94B80369E070E084E009
:1008D00090E00E9490038CEF91E09F938F930E9491
:1008E000B8032FEF8FEF9BE0215080409040E1F75D
:1008F00000C000C00E947C030F900F900F900F90DB
:100900000F900F90089587B3806B87BBBE988DB111
:1009100081658DB908958FB9779BFECF08958AEAD6
:100920000E948B04779BFECF8FB10895C4980895E1
:10093000C49A0895CF92DF92EF92FF920F931F9384
:10094000CF93DF930E947C0362E070E083E090E04D
:100950000E94900382E092E09F938F930E94B803DD
:100960008FE092E00E9428060E9404066C010E941B
:1009700009060F900F90C0E0D0E000E010E00F2ECD
:10098000F6E2EF2EF2E0FF2EF02D0E940406FE01AB
:10099000F85E808320812817A9F099279F938F9371
:1009A0001F922F93DF93CF93FF92EF920E94140632
:1009B0000F5F1F4F8DB79EB708960FB6F8949EBF76
:1009C0000FBE8DBF2196C11598E0D907F1F6C6017B
:1009D0000E940906C0E0D0E0E12CF12C0F2EFFE5CB
:1009E000CF2EF2E0DF2EF02D0E940406FE01F85E0D
:1009F00020812817B1F099279F938F931F922F93EF
:100A0000DF93CF93DF92CF920E9414069FEFE91AF3
:100A1000F90A8DB79EB708960FB6F8949EBF0FBE21
:100A20008DBF2196C11598E0D907F1F6E114F104C4
:100A300019F40115110571F160E070E085E090E0B6
:100A40000E949003FF92EF928CE992E09F938F9324
:100A50000E94B80360E070E086E090E00E9490039E
:100A60001F930F938BEA92E09F938F930E94B8039A
:100A70002FEF8FEF9BE3215080409040E1F700C0C3
:100A800000008DB79EB708960FB6F8949EBF0FBEB4
:100A90008DBF0EC064E070E086E090E00E9490039D
:100AA0008AEB92E09F938F930E94B8030F900F9070
:100AB000FF92EF921F930F9384EC92E09F938F939A
:100AC0000E9414060F900F900F900F900F900F90B0
:100AD000DF91CF911F910F91FF90EF90DF90CF901A
:100AE000089580E885BF8FEF8ABB0E949A0408951D
:100AF0005D9BFECF8CB908955F9BFECF8CB190E0DB
:100B0000089589B988E18AB986E191E0909342031A
:100B1000809341039093400380933F0308958FE1B6
:100B200090E00E9481058DE193E00E9428060E94DA
:100B300071050E94AF020E94C8030E94D301B89AB7
:100B400087E293E00E9428060E947A028FEF9FE2DC
:100B50000197F1F700C00000F9CFC09A8FEF9FE234
:100B60000197F1F700C00000C09808958F929F92FE
:100B7000AF92BF92CF92DF92EF92FF92CF93DF932B
:100B8000EC01688179818A819B81611571058105FC
:100B9000910521F464E279ED8BE597E02DE133EFE7
:100BA00041E050E00E94CD0849015A019B01AC018F
:100BB000A7EAB1E40E94EC086B017C01ACEEB4EF53
:100BC000A50194010E94FA08C60ED71EE81EF91E60
:100BD000F7FE06C081E0C81AD108E10880E8F80AEB
:100BE000C882D982EA82FB82C6019F77DF91CF91CA
:100BF000FF90EF90DF90CF90BF90AF909F908F903D
:100C000008950E94B605089580E091E00E94B6051F
:100C10000895A0E0B0E08093000190930101A093BB
:100C20000201B09303010895A0E0B0E0EAE1F6E02C
:100C30000C940F09FE01359661917191AF0180917D
:100C40004103909142030E945506E2E00C942B0967
:100C50000F931F93CF93DF93E0914103F0914203F1
:100C6000238121FF1BC0EC0100E010E0899160911D
:100C7000410370914203DB011896ED91FC911997A5
:100C8000882331F00995892B89F30FEF1FEFEECF01
:100C90008AE00995892B11F4C80102C08FEF9FEFFC
:100CA000DF91CF911F910F910895ACE0B0E0EBE59B
:100CB000F6E00C94FF087C016B018A01FC011782AD
:100CC0001682838181FFBDC1CE0101964C01F701DF
:100CD0009381F60193FD859193FF81916F018823A4
:100CE00009F4ABC1853239F493FD859193FF81916D
:100CF0006F01853229F4B70190E00E943D08E7CFEB
:100D0000512C312C20E02032A0F48B3269F030F4E9
:100D1000803259F0833269F420612CC08D3239F071
:100D2000803339F4216026C02260246023C028600B
:100D300021C027FD27C030ED380F3A3078F426FF68
:100D400006C0FAE05F9E300D1124532E13C08AE0D6
:100D5000389E300D1124332E20620CC08E3221F4C7
:100D600026FD6BC1206406C08C3611F4206802C0D9
:100D7000883641F4F60193FD859193FF81916F01CF
:100D80008111C1CF982F9F7D9554933028F40C5F2B
:100D90001F4FFFE3F9830DC0833631F0833771F0C5
:100DA000833509F05BC022C0F801808189830E5F22
:100DB0001F4F44244394512C540115C03801F2E0D4
:100DC0006F0E711CF801A080B18026FF03C0652D55
:100DD00070E002C06FEF7FEFC5012C870E943208E0
:100DE0002C0183012C852F77222E17C03801F2E0C9
:100DF0006F0E711CF801A080B18026FF03C0652D25
:100E000070E002C06FEF7FEFC5012C870E942708BA
:100E10002C012C852068222E830123FC1BC0832DEE
:100E200090E048165906B0F4B70180E290E00E94C5
:100E30003D083A94F4CFF50127FC859127FE819176
:100E40005F01B70190E00E943D0831103A94F1E053
:100E50004F1A51084114510471F7E5C0843611F05E
:100E6000893639F5F80127FF07C0608171818281D9
:100E700093810C5F1F4F08C060817181882777FDC7
:100E80008095982F0E5F1F4F2F76B22E97FF09C0C7
:100E900090958095709561957F4F8F4F9F4F2068FB
:100EA000B22E2AE030E0A4010E946F08A82EA818F4
:100EB00044C0853729F42F7EB22E2AE030E025C0C9
:100EC000F22FF97FBF2E8F36C1F018F4883579F0F4
:100ED000B4C0803719F0883721F0AFC02F2F2061C0
:100EE000B22EB4FE0DC08B2D8460B82E09C024FF35
:100EF0000AC09F2F9660B92E06C028E030E005C0DA
:100F000020E130E002C020E132E0F801B7FE07C086
:100F100060817181828193810C5F1F4F06C0608167
:100F2000718180E090E00E5F1F4FA4010E946F0866
:100F3000A82EA818FB2DFF77BF2EB6FE0BC02B2DB9
:100F40002E7FA51450F4B4FE0AC0B2FC08C02B2DAD
:100F50002E7E05C07A2C2B2D03C07A2C01C0752C57
:100F600024FF0DC0FE01EA0DF11D8081803311F4D4
:100F7000297E09C022FF06C07394739404C0822F97
:100F8000867809F0739423FD13C020FF06C05A2C05
:100F9000731418F4530C5718732C731468F4B701B6
:100FA00080E290E02C870E943D0873942C85F5CF59
:100FB000731410F4371801C0312C24FF12C0B7018C
:100FC00080E390E02C870E943D082C8522FF17C00B
:100FD00021FF03C088E590E002C088E790E0B701F8
:100FE0000CC0822F867859F021FD02C080E201C03A
:100FF0008BE227FD8DE2B70190E00E943D08A51429
:1010000038F4B70180E390E00E943D085A94F7CF8E
:10101000AA94F401EA0DF11D8081B70190E00E94CD
:101020003D08A110F5CF332009F451CEB70180E27D
:1010300090E00E943D083A94F6CFF70186819781AF
:1010400002C08FEF9FEF2C96E2E10C941B09FC018C
:101050000590615070400110D8F7809590958E0FE3
:101060009F1F0895FC016150704001900110D8F756
:10107000809590958E0F9F1F08950F931F93CF9388
:10108000DF93182F092FEB018B8181FD03C08FEFB8
:101090009FEF20C082FF10C04E815F812C813D8177
:1010A000421753077CF4E881F9819F012F5F3F4F7E
:1010B00039832883108306C0E885F985812F099537
:1010C000892B29F72E813F812F5F3F4F3F832E834E
:1010D000812F902FDF91CF911F910F910895FA01E9
:1010E000AA27283051F1203181F1E8946F936E7F67
:1010F0006E5F7F4F8F4F9F4FAF4FB1E03ED0B4E058
:101100003CD0670F781F891F9A1FA11D680F791F98
:101110008A1F911DA11D6A0F711D811D911DA11DA9
:1011200020D009F468943F912AE0269F11243019B9
:10113000305D3193DEF6CF010895462F4770405D54
:101140004193B3E00FD0C9F7F6CF462F4F70405D03
:101150004A3318F0495D31FD4052419302D0A9F75E
:10116000EACFB4E0A6959795879577956795BA9558
:10117000C9F700976105710508959B01AC010A2E1E
:1011800006945795479537952795BA95C9F7620FF5
:10119000731F841F951FA01D0895052E97FB1EF435
:1011A00000940E94E40857FD07D00E94360907FC0E
:1011B00003D04EF40C94E408509540953095219559
:1011C0003F4F4F4F5F4F0895909580957095619573
:1011D0007F4F8F4F9F4F08950E945809A59F900DF4
:1011E000B49F900DA49F800D911D11240895B7FF09
:1011F0000C94EC080E94EC08821B930B08952F922C
:101200003F924F925F926F927F928F929F92AF9296
:10121000BF92CF92DF92EF92FF920F931F93CF93E3
:10122000DF93CDB7DEB7CA1BDB0B0FB6F894DEBF7A
:101230000FBECDBF09942A88398848885F846E84A0
:101240007D848C849B84AA84B984C884DF80EE80EA
:10125000FD800C811B81AA81B981CE0FD11D0FB6F3
:10126000F894DEBF0FBECDBFED010895A1E21A2EA6
:10127000AA1BBB1BFD010DC0AA1FBB1FEE1FFF1F3A
:10128000A217B307E407F50720F0A21BB30BE40B8A
:10129000F50B661F771F881F991F1A9469F76095D1
:1012A0007095809590959B01AC01BD01CF0108958B
:1012B000A29FB001B39FC001A39F700D811D112497
:1012C000911DB29F700D811D1124911D0895F894F8
:0212D000FFCF4E
:1012D20001000000001200100000000200000000E7
:1012E2005103000000000000000300000000780528
:1012F2007C05000043414E4354524C2028657870CF
:101302006563742030783837293A203078253032B6
:10131200780A004D6573736167652069643A202518
:10132200640A4D657373616765206C656E677468E6
:101332002025640A004D65737361676520646174DA
:10134200613A205B202564002C20256400205D0A80
:101352000043414E4354524C3A20253032780A0021
:101362004D435032353135206973206E6F742069D8
:101372006E20636F6E666967206D6F6465206166BB
:10138200746572207265736574004E6F7420696EA5
:10139200206C6F6F706261636B206F706572617435
:1013A200696F6E206D6F6465004F70206D6F6465AC
:1013B2003A2025780A005465737420646F6E650ABA
:1013C200002023535741470020203400204C594627
:1013D200450054455354494E47205352414D000A4B
:1013E2005374617274696E67205352414D20746563
:1013F20073742E2E2E0057726974652070686173A3
:1014020065206572726F723A206578745F72616DE1
:101412005B2534645D203D202530325820287368D6
:101422006F756C642062652025303258290A00529B
:10143200657472696576616C207068617365206598
:1014420072726F723A206578745F72616D5B2534D7
:10145200645D203D2025303258202873686F756CFA
:10146200642062652025303258290A0052204552F4
:10147200524F52533A20202534640057204552528D
:101482004F52533A2020253464004E4F2045525289
:101492004F5253005352414D207465737420636F51
:1014A2006D706C657465642077697468200A2534F0
:1014B20064206572726F727320696E20777269742C
:1014C2006520706861736520616E64200A2534644A
:1014D200206572726F727320696E20726574726910
:1014E2006576616C2070686173650A0A000A52456C
:1014F200424F4F544544000A416C6C20696E697436
:0815020020646F6E650A000011
:00000001FF
