S016000050696E675F506F6E675F536869742E7372656396
S11300000C94B4010C94D1010C94D1010C94D10141
S11300100C94D1010C94D1010C94D1010C94BC0822
S11300200C94D1010C94D1010C94D1010C94D10104
S11300300C94D1010C94D1010C94D1010C94D101F4
S11300400C94D1010C94D1010C94D1010C94D101E4
S11300500C94D1010C94D1010C94D1010C94D101D4
S11300600C94D1010C94D1010C94D1010C94D101C4
S1130070000000000000000000065F5F06000000B2
S11300800007070007070000147F7F147F7F140018
S1130090242E6B6B3A120000466630180C66620020
S11300A0307A4F5D377A48000407030000000000EF
S11300B0001C3E63410000000041633E1C00000040
S11300C0082A3E1C1C3E2A0808083E3E0808000078
S11300D000A0E0600000000008080808080800000C
S11300E000006060000000006030180C060301008E
S11300F03E7F594D7F3E000042427F7F40400000DA
S1130100627359496F660000226349497F360000D3
S1130110181C16137F7F1000276745457D390000A2
S11301203C7E4B4979300000036371190F070000CE
S1130130367F49497F360000064F49693F1E00005B
S113014000006C6C0000000000A0EC6C00000000DB
S1130150081C366341000000141414141414000025
S1130160004163361C080000020351590F060000C9
S11301703E7F415D5D1F1E007C7E13137E7C00006C
S1130180417F7F49497F36001C3E63414163220021
S1130190417F7F41637F1C00417F7F495D41630054
S11301A0417F7F491D0103001C3E6341517372006E
S11301B07F7F08087F7F000000417F7F41000000AF
S11301C0307040417F3F0100417F7F081C7763000E
S11301D0417F7F41406070007F7F060C067F7F0077
S11301E07F7F060C187F7F001C3E6341633E1C002A
S11301F0417F7F49090F06001E3F21717F5E000089
S1130200417F7F19396F460026674D597B320000C4
S113021003417F7F410300007F7F40407F7F0000D8
S11302201F3F60603F1F00007F7F3018307F7F00DA
S113023063771C081C776300074F78784F0700002A
S11302406773594D47637100007F7F41410000008F
S11302500103060C183060000041417F7F0000005C
S1130260080C0603060C0800808080808080808053
S11302700000030704000000207454543C7840003C
S1130280413F7F44447C3800387C44446C2800005F
S1130290307848493F7F4000387C54545C18000053
S11302A0487E7F490302000098BCA4A4F87C0400A3
S11302B0417F7F08047C780000447D7D400000007D
S11302C040C484FD7D000000417F7F10386C4400F1
S11302D000417F7F400000007C7C0C180C7C78007F
S11302E07C7C04047C780000387C44447C38000026
S11302F084FCF8A4243C1800183C24A4F8FC8400D2
S1130300447C78441C180000485C54547424000055
S113031000043E7F442400003C7C40403C7C400080
S11303201C3C60603C1C00003C7C6030607C3C00F9
S1130330446C3810386C44009CBCA0A0FC7C0000C9
S11303404C64745C4C64000008083E774141000032
S113035000000077770000004141773E0808000064
S1130360020301030203010011241FBECFEFD4E0F6
S1130370DEBFCDBF13E0A0E0B1E0ECE8FBE102C0DA
S113038005900D92A43AB107D9F723E0A4EAB3E0AB
S113039001C01D92A93DB207E1F70E94D5060C9455
S11303A0C40D0C94000087B3817F87BB089526B3E6
S11303B041E050E0082E02C0440F551F0A94E2F7B2
S11303C030E024233523A90102C0559547958A9529
S11303D0E2F7CA0108950E94D7018093A603282F4B
S11303E030E04091A4035091A5032417350749F048
S11303F03093A5032093A40391E0813019F090E099
S113040001C090E0892F08950E9404048FE00E94A7
S1130410F2031F928F938AE291E09F938F930E943D
S1130420710A4FEF60E680E60E94D00340E064E08A
S113043080E60E94D0034FEF61E08BE20E94D0037C
S113044040E060EE8FE00E94D0030F900F900F9079
S11304500F90089580E30E94F20386958695869511
S113046091E08927817090E008951F93CF93DF93E3
S1130470EC010E942A02892BE1F368817981759548
S11304806795759567957595679581E30E94AC03AB
S113049068817981660F771F62957295707F7627E0
S11304A0607F762782E30E94AC036A816F7085E3E4
S11304B00E94AC038A81882369F010E0FE01E10FF9
S11304C0F11D638186E3810F0E94AC031F5F8A8163
S11304D01817A0F381E00E94C003DF91CF911F9110
S11304E008959F92AF92BF92CF92DF92EF92FF92C4
S11304F00F931F93CF93DF93CDB7DEB72B970FB630
S1130500F894DEBF0FBECDBF7C018CE20E94F203E3
S113051080FF33C081E60E94F203C82E82E60E9467
S1130520F203829586958770D12CCC0CDD1CCC0C03
S1130530DD1CCC0CDD1CC82A85E60E94F2038F70FA
S1130540982EA9F08E010C5F1F4F0F2EF6E6AF2EEA
S1130550F02DA80E0F2EF6E6BF2EF02D8B2D0E9447
S1130560F203F80181938F01B394BA10F7CF40E0FE
S113057061E08CE20E94D00303C0CC24CA94DC2C3A
S1130580DA82C9829B828BE0FE013196D701019009
S11305900D928A95E1F7C7012B960FB6F894DEBF4A
S11305A00FBECDBFDF91CF911F910F91FF90EF90C0
S11305B0DF90CF90BF90AF909F90089581E090E03E
S11305C09093BE038093BD0382E08093BF0380E0D9
S11305D00E9460038093C00381E00E9460038093C3
S11305E0C1038DEB93E00E943502089523E030E0CF
S11305F03093B3032093B20391E09093B4038093B8
S1130600B50382EB93E00E9435020895CF93DF9304
S1130610CDB7DEB72B970FB6F894DEBF0FBECDBFB4
S1130620CE0101960E9471028BE0FE013196A7EA89
S1130630B3E001900D928A95E1F78091A703909120
S1130640A8030196D1F00E947A088091A7039091A3
S1130650A803029791F42091AA03822F992787FD7A
S113066090959F932F938CEA91E09F938F930E9490
S1130670710A0F900F900F900F902B960FB6F8946D
S1130680DEBF0FBECDBFDF91CF9108958C5F809305
S1130690001481E48A95F1F700C08091001490E081
S11306A0089580E00E9446039093CA038093C9038F
S11306B081E00E9446039093CC038093CB0308957A
S11306C0CF93C82F0E944603C11107C02091C903CC
S11306D03091CA03821B930B08C0C13031F42091BE
S11306E0CB033091CC03821B930B80382FEF9207FE
S11306F014F480E89FEF8038910514F08FE790E0C0
S1130700CF91089581E00E9460038436910564F4DA
S113071021E030E08D399F4F14F020E030E088274D
S11307209927821B930B089581E090E0089580E05F
S11307300E9460038436910564F421E030E08D3931
S11307409F4F14F020E030E088279927821B930BF9
S1130750089581E090E00895CF93DF93D82FC62FBA
S11307600E94DC0582E00E94D1058D2F0E94D105F4
S11307708C2F0E94D1050E94DE05DF91CF91089550
S1130780CF93883018F4C82FC06801C0C0E80E9415
S1130790DC058C2F0E94D1050E94DE05CF910895BF
S11307A01F93CF93DF93182FD62FC42F0E94DC05FD
S11307B085E00E94D105812F0E94D1058D2F0E94D2
S11307C0D1058C2F0E94D1050E94DE05DF91CF91C7
S11307D01F9108950E94DC0580EC0E94D1050E94BF
S11307E0DE050895CF93C82F0E94DC0583E00E94A4
S11307F0D1058C2F0E94D1050E94D505C82F0E94D7
S1130800DE058C2FCF910895CF93DF931F92CDB740
S1130810DEB70E94C9050E94EA038EE00E94F2033B
S113082089838981807E803821F080EC91E00E9468
S1130830850A0F90DF91CF91089528E0829FC0012F
S11308401124FC01E059F04080E09491A0910A0148
S1130850B0910B019C938F5F31968830B1F7089566
S113086090EB980FE0910C01F0910D01908380932F
S1130870CD0382E58A95F1F7089580E890E0E09150
S11308800A01F0910B01108201970097C1F70895B6
S1130890CF93DF93C0E0D0E0CE010E9430040E94E9
S11308A03D042196C830D105B9F7DF91CF91089561
S11308B0CF93DF93EB010E943004C031D105E8F4FB
S11308C08C2F880F880F880F8093CE03E0910C0142
S11308D0F0910D01CC0FDD1FCC0FDD1FCC0FDD1F00
S11308E0D295C295CF70CD27DF70CD27C083E0911C
S11308F00C01F0910D01C05FC083DF91CF91089589
S1130900CF93DF93CDB7DEB7FE0135966191719138
S1130910AF018EE091E00E94B20ADF91CF91089579
S1130920E0910C01F0910D018EEA8083E0910C01BD
S1130930F0910D0181EA8083E0910C01F0910D01A9
S11309408AED8083E0910C01F0910D0182E18083B6
S1130950E0910C01F0910D0188EC8083E0910C0191
S1130960F0910D0188EA8083E0910C01F0910D0172
S11309708FE38083E0910C01F0910D0185ED80837C
S1130980E0910C01F0910D0180E88083E0910C016D
S1130990F0910D0181E88083E0910C01F0910D014B
S11309A080E58083E0910C01F0910D0189ED808355
S11309B0E0910C01F0910D0181E28083E0910C0142
S11309C0F0910D0180E28083E0910C01F0910D0122
S11309D082E08083E0910C01F0910D018BED808326
S11309E0E0910C01F0910D0180E38083E0910C0112
S11309F0F0910D018DEA8083E0910C01F0910D01DD
S1130A001082E0910C01F0910D0184EA8083E09161
S1130A100C01F0910D0186EA8083E0910C01F091C4
S1130A200D018FEA80830E94480463E070E082E055
S1130A3090E00E94580481E292E09F938F930E9479
S1130A40800467E070E083E090E00E94580488E24C
S1130A5092E09F938F930E94800469E070E084E0A9
S1130A6090E00E9458048CE292E09F938F930E943E
S1130A7080042FEF8FEF9BE0215080409040E1F7FE
S1130A8000C000C00E9448040F900F900F900F9078
S1130A900F900F9008958091C80308958093C80320
S1130AA070E090E00E945804E0910A01F0910B017B
S1130AB088E18083E0910A01F0910B018083E09149
S1130AC00A01F0910B019EE79083E0910A01F091F5
S1130AD00B019CE39083E0910A01F0910B01808368
S1130AE0089570E090E00E945804E0910A01F091AA
S1130AF00B011082E0910A01F0910B011082E09148
S1130B000A01F0910B011082E0910A01F0910B01AE
S1130B101082E0910A01F0910B011082089599234B
S1130B20A4F4E091C8032E2F30E02417350768F4AD
S1130B3060E08E2F0E9471058091C8038F5F8093BF
S1130B40C80360E00E944E0508951816190694F42F
S1130B508091C803282F30E06217730758F460E0CF
S1130B600E9471058091C80381508093C80360E09E
S1130B700E944E0508950E948F052CEC8CE091E0B4
S1130B80215080409040E1F700C08091C80390E07C
S1130B90089587B3806B87BBBE988DB181658DB98D
S1130BA008958FB9779BFECF08958AEA0E94D105F4
S1130BB0779BFECF8FB10895C4980895C49A089581
S1130BC0CF92DF92EF92FF920F931F93CF93DF9315
S1130BD00E94480462E070E083E090E00E945804C0
S1130BE082E392E09F938F930E9480048FE392E0CC
S1130BF00E94850A0E94610A6C010E94660A0F9095
S1130C000F90C0E0D0E000E010E00F2EF6E5EF2EEC
S1130C10F2E0FF2EF02D0E94610AFE01F85E80834F
S1130C2020812817A9F099279F938F931F922F93C0
S1130C30DF93CF93FF92EF920E94710A0F5F1F4FD1
S1130C408DB79EB708960FB6F8949EBF0FBE8DBFA2
S1130C502196C11598E0D907F1F6C6010E94660AEB
S1130C60C0E0D0E0E12CF12C0F2EFFE8CF2EF2E013
S1130C70DF2EF02D0E94610AFE01F85E2081281704
S1130C80B1F099279F938F931F922F93DF93CF9364
S1130C90DF92CF920E94710A9FEFE91AF90A8DB789
S1130CA09EB708960FB6F8949EBF0FBE8DBF2196CF
S1130CB0C11598E0D907F1F6E114F10419F401150E
S1130CC0110571F160E070E085E090E00E94580445
S1130CD0FF92EF928CEC92E09F938F930E9480049A
S1130CE060E070E086E090E00E9458041F930F9348
S1130CF08BED92E09F938F930E9480042FEF8FEFF0
S1130D009BE3215080409040E1F700C000008DB784
S1130D109EB708960FB6F8949EBF0FBE8DBF0EC047
S1130D2064E070E086E090E00E9458048AEE92E06D
S1130D309F938F930E9480040F900F90FF92EF92E5
S1130D401F930F9384EF92E09F938F930E94710AF5
S1130D500F900F900F900F900F900F90DF91CF9105
S1130D601F910F91FF90EF90DF90CF90089580E84E
S1130D7085BF8FEF8ABB0E94E00508955D9BFECF7F
S1130D808CB908955F9BFECF8CB190E0089589B92A
S1130D9088E18AB98CE191E09093D6038093D503DE
S1130DA09093D4038093D30308958FE190E00E943D
S1130DB0C7068DE493E00E94850A0E94B7060E944C
S1130DC051030E94D3010E9490040E9404020E94D5
S1130DD08308B89A87E593E00E94850A0E94530726
S1130DE00E94FE072FEF8FEF95E92150804090403D
S1130DF0E1F700C00000F2CFDF92EF92FF920F9371
S1130E001F93CF93DF937C018B01D42E89E090E074
S1130E100E94EC08EC01FE82ED8218870F83D882D1
S1130E204D2D50E0CA01880F991F880F991F880F14
S1130E30991F840F951F0E94EC089A838983CE0121
S1130E40DF91CF911F910F91FF90EF90DF90089564
S1130E501F93CF93DF93EC018881882301F110E085
S1130E60812F90E0880F991FE981FA81E80FF91F1B
S1130E700190F081E02DD483C38329813A81F90163
S1130E80E80FF91F0190F081E02D8081882319F08B
S1130E90CF010E9428071F5F8881181708F3DF918C
S1130EA0CF911F9108950F931F93CF93DF9343E046
S1130EB060E070E087E693E00E94FC06EC011C828F
S1130EC01B8209811A8140E062EB78E08CE693E0B2
S1130ED00E94FC06F8019183808309811A8140E015
S1130EE060EE75E086E793E00E94FC06F8019383C8
S1130EF0828309811A8142E060E070E08CE793E02C
S1130F000E94FC06F80195838483E981FA810480B8
S1130F10F581E02D0181128140E06AE778E08BE8F9
S1130F2093E00E94FC06F80191838083E981FA81B1
S1130F300480F581E02D0181128140E060EE75E0CE
S1130F4087E993E00E94FC06F80193838283CE0133
S1130F500E942807CE01DF91CF911F910F91089530
S1130F60EF92FF920F931F93CF93DF937C010E9424
S1130F70480460E081E00E944E0560E070E080E09B
S1130F8090E00E945804D70116968C9116978F937F
S1130F9015968C918F930E9480040F900F90F70107
S1130FA08081882321F100E010E0C0E0D0E02196A8
S1130FB062E070E0CE010E945804D7011196ED91D1
S1130FC0FC911297E00FF11F0190F081E02D8681D2
S1130FD08F9385818F930E9480040E5F1F4FF701CA
S1130FE0808190E00F900F90C817D90700F3DF912C
S1130FF0CF911F910F91FF90EF9008958C010E9463
S1131000B0070E948203892B51F0F801C081D0E01F
S11310100E948203AE0161E070E00E94BB050E9461
S11310209703892B71F30E949703019709F04BC032
S1131030F801C181D2810E944B0590E08150904813
S1131040880F991FC80FD91FE881F98180818823EF
S113105091F0F801C181D2810E944B0590E081504A
S11310609048880F991FC80FD91F08811981C8019A
S11310700E94B00735C0F801C181D2810E944B059E
S113108090E081509048880F991FC80FD91FE881BC
S1131090F98187819085892B19F1F801C181D28169
S11310A00E944B0590E081509048880F991FC80F0B
S11310B0D91FE881F9810780F085E02D0995C801E1
S11310C00E94B0070DC00E949703019649F4F801ED
S11310D0C381D481209721F0CE010E94B0078E01F4
S11310E0FFEF2FE781E0F15020408040E1F700C09E
S11310F000C087CFC09A8FEF9FE20197F1F700C03D
S11311000000C0980895EBE8F0E080818E7F808332
S113111080818D7F8083EAE8F0E08081886080832D
S113112080818F7E808384E490E090938700809315
S11311308600EDE7F0E080818061808388B7886075
S113114088BF78940895EAE8F0E080818560808320
S113115080818D7F80830895EAE8F0E08081887F34
S11311608083089580918A00877019F40E94A308EF
S113117008950E94AC0808951F920F920FB60F9223
S113118011242F933F934F935F936F937F938F9388
S11311909F93AF93BF93EF93FF930E94DE0282E08D
S11311A00E94EB01882329F082E00E94F6020E944B
S11311B07A080E940603FF91EF91BF91AF919F912E
S11311C08F917F916F915F914F913F912F910F90EC
S11311D00FBE0F901F901895CF93DF938230910527
S11311E010F482E090E0E091D103F091D20320E08A
S11311F030E0A0E0B0E0309739F1408151814817E8
S11312005907B8F04817590771F4828193811097F0
S113121029F013969C938E9312972CC09093D2032B
S11312208093D10327C02115310531F042175307AC
S113123018F0A901DB0101C0EF019A01BD01DF0132
S11312400280F381E02DD7CF21153105F9F0281B59
S1131250390B2430310580F48A819B816115710535
S113126021F0FB019383828304C09093D203809383
S1131270D103FE01329644C0FE01E20FF31F8193B5
S1131280919322503109398328833AC02091CF03A6
S11312903091D003232B41F42091020130910301BA
S11312A03093D0032093CF032091000130910101AA
S11312B02115310541F42DB73EB7409104015091F9
S11312C00501241B350BE091CF03F091D003E21705
S11312D0F307A0F42E1B3F0B2817390778F0AC0155
S11312E04E5F5F4F2417350748F04E0F5F1F509332
S11312F0D0034093CF038193919302C0E0E0F0E0E8
S1131300CF01DF91CF910895CF93DF93009709F434
S113131087C0FC01329713821282C091D103D0910D
S1131320D203209781F420813181280F391F8091C5
S1131330CF039091D0038217930779F5F093D003EC
S1131340E093CF036DC0DE0120E030E0AE17BF07AD
S113135050F412964D915C9113979D0141155105DE
S113136009F1DA01F3CFB383A28340815181840F61
S1131370951F8A179B0771F48D919C911197840F87
S1131380951F02969183808312968D919C91139759
S1131390938382832115310529F4F093D203E093DA
S11313A0D1033EC0D9011396FC93EE9312974D914D
S11313B05D91A40FB51FEA17FB0779F48081918131
S11313C0840F951F0296D90111969C938E93828166
S11313D0938113969C938E931297E0E0F0E08A81B8
S11313E09B81009719F0FE01EC01F9CFCE01029622
S11313F028813981820F931F2091CF033091D0032C
S11314002817390769F4309729F41092D2031092FF
S1131410D10302C013821282D093D003C093CF03AE
S1131420DF91CF9108958F929F92AF92BF92CF9206
S1131430DF92EF92FF92CF93DF93EC016881798181
S11314408A819B81611571058105910521F464E20E
S113145079ED8BE597E02DE133EF41E050E00E9418
S11314602A0D49015A019B01AC01A7EAB1E40E948B
S1131470490D6B017C01ACEEB4EFA50194010E940F
S1131480570DC60ED71EE81EF91EF7FE06C081E0F2
S1131490C81AD108E10880E8F80AC882D982EA8229
S11314A0FB82C6019F77DF91CF91FF90EF90DF9091
S11314B0CF90BF90AF909F908F9008950E94130A91
S11314C0089586E091E00E94130A0895A0E0B0E038
S11314D08093060190930701A0930801B09309013A
S11314E00895A0E0B0E0E7E7FAE00C946C0DFE018B
S11314F0359661917191AF018091D5039091D60396
S11315000E94B20AE2E00C94880D0F931F93CF93CC
S1131510DF93E091D503F091D603238121FF1BC013
S1131520EC0100E010E089916091D5037091D6033D
S1131530DB011896ED91FC911997882331F00995F8
S1131540892B89F30FEF1FEFEECF8AE00995892BE2
S113155011F4C80102C08FEF9FEFDF91CF911F916B
S11315600F910895ACE0B0E0E8EBFAE00C945C0D68
S11315707C016B018A01FC0117821682838181FF41
S1131580BDC1CE0101964C01F7019381F60193FD93
S1131590859193FF81916F01882309F4ABC1853252
S11315A039F493FD859193FF81916F01853229F47C
S11315B0B70190E00E949A0CE7CF512C312C20E027
S11315C02032A0F48B3269F030F4803259F0833247
S11315D069F420612CC08D3239F0803339F42160F4
S11315E026C02260246023C0286021C027FD27C0B4
S11315F030ED380F3A3078F426FF06C0FAE05F9EEB
S1131600300D1124532E13C08AE0389E300D11245E
S1131610332E20620CC08E3221F426FD6BC120646F
S113162006C08C3611F4206802C0883641F4F601F5
S113163093FD859193FF81916F018111C1CF982F03
S11316409F7D9554933028F40C5F1F4FFFE3F9837B
S11316500DC0833631F0833771F0833509F05BC0F8
S113166022C0F801808189830E5F1F4F4424439474
S1131670512C540115C03801F2E06F0E711CF801B1
S1131680A080B18026FF03C0652D70E002C06FEF1B
S11316907FEFC5012C870E948F0C2C0183012C85C0
S11316A02F77222E17C03801F2E06F0E711CF8015B
S11316B0A080B18026FF03C0652D70E002C06FEFEB
S11316C07FEFC5012C870E94840C2C012C85206897
S11316D0222E830123FC1BC0832D90E0481659065B
S11316E0B0F4B70180E290E00E949A0C3A94F4CFEF
S11316F0F50127FC859127FE81915F01B70190E0F8
S11317000E949A0C31103A94F1E04F1A5108411496
S1131710510471F7E5C0843611F0893639F5F801C2
S113172027FF07C060817181828193810C5F1F4F05
S113173008C060817181882777FD8095982F0E5F9E
S11317401F4F2F76B22E97FF09C090958095709504
S113175061957F4F8F4F9F4F2068B22E2AE030E073
S1131760A4010E94CC0CA82EA81844C0853729F4E3
S11317702F7EB22E2AE030E025C0F22FF97FBF2E53
S11317808F36C1F018F4883579F0B4C0803719F079
S1131790883721F0AFC02F2F2061B22EB4FE0DC0C8
S11317A08B2D8460B82E09C024FF0AC09F2F966039
S11317B0B92E06C028E030E005C020E130E002C0C8
S11317C020E132E0F801B7FE07C0608171818281B7
S11317D093810C5F1F4F06C06081718180E090E0AF
S11317E00E5F1F4FA4010E94CC0CA82EA818FB2D3D
S11317F0FF77BF2EB6FE0BC02B2D2E7FA51450F401
S1131800B4FE0AC0B2FC08C02B2D2E7E05C07A2C73
S11318102B2D03C07A2C01C0752C24FF0DC0FE01B2
S1131820EA0DF11D8081803311F4297E09C022FF65
S113183006C07394739404C0822F867809F073945D
S113184023FD13C020FF06C05A2C731418F4530C44
S11318505718732C731468F4B70180E290E02C8756
S11318600E949A0C73942C85F5CF731410F43718D6
S113187001C0312C24FF12C0B70180E390E02C8713
S11318800E949A0C2C8522FF17C021FF03C088E513
S113189090E002C088E790E0B7010CC0822F867800
S11318A059F021FD02C080E201C08BE227FD8DE2E8
S11318B0B70190E00E949A0CA51438F4B70180E3B4
S11318C090E00E949A0C5A94F7CFAA94F401EA0D7E
S11318D0F11D8081B70190E00E949A0CA110F5CF10
S11318E0332009F451CEB70180E290E00E949A0CB3
S11318F03A94F6CFF7018681978102C08FEF9FEF6C
S11319002C96E2E10C94780DFC0105906150704036
S11319100110D8F7809590958E0F9F1F0895FC01B4
S11319206150704001900110D8F7809590958E0F0A
S11319309F1F08950F931F93CF93DF93182F092FA1
S1131940EB018B8181FD03C08FEF9FEF20C082FFED
S113195010C04E815F812C813D81421753077CF476
S1131960E881F9819F012F5F3F4F398328831083DA
S113197006C0E885F985812F0995892B29F72E81E1
S11319803F812F5F3F4F3F832E83812F902FDF9125
S1131990CF911F910F910895FA01AA27283051F190
S11319A0203181F1E8946F936E7F6E5F7F4F8F4F8C
S11319B09F4FAF4FB1E03ED0B4E03CD0670F781FEB
S11319C0891F9A1FA11D680F791F8A1F911DA11DD0
S11319D06A0F711D811D911DA11D20D009F4689409
S11319E03F912AE0269F11243019305D3193DEF6B1
S11319F0CF010895462F4770405D4193B3E00FD067
S1131A00C9F7F6CF462F4F70405D4A3318F0495D51
S1131A1031FD4052419302D0A9F7EACFB4E0A69534
S1131A209795879577956795BA95C9F70097610556
S1131A30710508959B01AC010A2E069457954795AC
S1131A4037952795BA95C9F7620F731F841F951FA1
S1131A50A01D0895052E97FB1EF400940E94410DCD
S1131A6057FD07D00E94930D07FC03D04EF40C944D
S1131A70410D50954095309521953F4F4F4F5F4F05
S1131A80089590958095709561957F4F8F4F9F4FE6
S1131A9008950E94B50DA59F900DB49F900DA49F2D
S1131AA0800D911D11240895B7FF0C94490D0E94D7
S1131AB0490D821B930B08952F923F924F925F9290
S1131AC06F927F928F929F92AF92BF92CF92DF924A
S1131AD0EF92FF920F931F93CF93DF93CDB7DEB7AF
S1131AE0CA1BDB0B0FB6F894DEBF0FBECDBF099443
S1131AF02A88398848885F846E847D848C849B849A
S1131B00AA84B984C884DF80EE80FD800C811B81A7
S1131B10AA81B981CE0FD11D0FB6F894DEBF0FBED6
S1131B20CDBFED010895A1E21A2EAA1BBB1BFD0136
S1131B300DC0AA1FBB1FEE1FFF1FA217B307E407A8
S1131B40F50720F0A21BB30BE40BF50B661F771F00
S1131B50881F991F1A9469F76095709580959095E0
S1131B609B01AC01BD01CF010895A29FB001B39FB9
S1131B70C001A39F700D811D1124911DB29F700D92
S10F1B80811D1124911D0895F894FFCFDD
S1131B8C0000D90320000100000000120010000026
S1131B9C0002000000001D0400000000000000030F
S1131BAC00000000BE06C206000043414E435452DE
S1131BBC4C20286578706563742030783837293A5E
S1131BCC203078253032780A004E6F206D6573739F
S1131BDC61676520696E206275666665720A004DE0
S1131BEC6573736167652069643A2025640A4D65E1
S1131BFC7373616765206C656E6774682025640A6D
S1131C0C004D65737361676520646174613A205B90
S1131C1C202564002C20256400205D0A0043414EDD
S1131C2C4354524C3A20253032780A0069722065AC
S1131C3C646765206465746563743A2025640A00DE
S1131C4C4D435032353135206973206E6F742069E1
S1131C5C6E20636F6E666967206D6F6465206166C4
S1131C6C746572207265736574004E6F7420696EAE
S1131C7C206C6F6F706261636B206F70657261743E
S1131C8C696F6E206D6F6465004F70206D6F6465B5
S1131C9C3A2025780A005465737420646F6E650AC3
S1131CAC002023535741470020203400204C594630
S1131CBC450054455354494E47205352414D000A54
S1131CCC5374617274696E67205352414D2074656C
S1131CDC73742E2E2E0057726974652070686173AC
S1131CEC65206572726F723A206578745F72616DEB
S1131CFC5B2534645D203D202530325820287368E0
S1131D0C6F756C642062652025303258290A0052A4
S1131D1C657472696576616C2070686173652065A1
S1131D2C72726F723A206578745F72616D5B2534E0
S1131D3C645D203D2025303258202873686F756C03
S1131D4C642062652025303258290A0052204552FD
S1131D5C524F52533A202025346400572045525296
S1131D6C4F52533A2020253464004E4F2045525292
S1131D7C4F5253005352414D207465737420636F5A
S1131D8C6D706C657465642077697468200A2534F9
S1131D9C64206572726F727320696E207772697435
S1131DAC6520706861736520616E64200A25346453
S1131DBC206572726F727320696E20726574726919
S1131DCC6576616C2070686173650A0A000A524575
S1131DDC424F4F544544000A416C6C20696E69743F
S1131DEC20646F6E650A004D61696E00506C6179F8
S1131DFC2067616D6500536E616B65005465737487
S1131E0C2066756E6374696F6E7300466C617368DB
S1131E1C2064696F64650043414E206C6F6F70627F
S1071E2C61636B007F
S9030000FC
