S016000050696E675F506F6E675F536869742E7372656396
S11300000C94B4010C9440020C94D1010C94D101D1
S11300100C94D1010C94D1010C94D1010C94D10114
S11300200C94D1010C94D1010C94D1010C94D10104
S11300300C94D1010C94D1010C94D1010C94D101F4
S11300400C94D1010C94D1010C94D1010C94D101E4
S11300500C94D1010C94D1010C94D1010C94D101D4
S11300600C94D1010C94D1010C94D1010C94D101C4
S1130070000000000000000000065F5F06000000B2
S11300800007070007070000147F7F147F7F140018
S1130090242E6B6B3A120000466630180C66620020
S11300A0307A4F5D377A48000407030000000000EF
S11300B0001C3E63410000000041633E1C00000040
S11300C0082A3E1C1C3E2A0808083E3E0808000078
S11300D000A0E0600000000008080808080800000C
S11300E000006060000000006030180C060301008E
S11300F03E7F594D7F3E000042427F7F40400000DA
S1130100627359496F660000226349497F360000D3
S1130110181C16137F7F1000276745457D390000A2
S11301203C7E4B4979300000036371190F070000CE
S1130130367F49497F360000064F49693F1E00005B
S113014000006C6C0000000000A0EC6C00000000DB
S1130150081C366341000000141414141414000025
S1130160004163361C080000020351590F060000C9
S11301703E7F415D5D1F1E007C7E13137E7C00006C
S1130180417F7F49497F36001C3E63414163220021
S1130190417F7F41637F1C00417F7F495D41630054
S11301A0417F7F491D0103001C3E6341517372006E
S11301B07F7F08087F7F000000417F7F41000000AF
S11301C0307040417F3F0100417F7F081C7763000E
S11301D0417F7F41406070007F7F060C067F7F0077
S11301E07F7F060C187F7F001C3E6341633E1C002A
S11301F0417F7F49090F06001E3F21717F5E000089
S1130200417F7F19396F460026674D597B320000C4
S113021003417F7F410300007F7F40407F7F0000D8
S11302201F3F60603F1F00007F7F3018307F7F00DA
S113023063771C081C776300074F78784F0700002A
S11302406773594D47637100007F7F41410000008F
S11302500103060C183060000041417F7F0000005C
S1130260080C0603060C0800808080808080808053
S11302700000030704000000207454543C7840003C
S1130280413F7F44447C3800387C44446C2800005F
S1130290307848493F7F4000387C54545C18000053
S11302A0487E7F490302000098BCA4A4F87C0400A3
S11302B0417F7F08047C780000447D7D400000007D
S11302C040C484FD7D000000417F7F10386C4400F1
S11302D000417F7F400000007C7C0C180C7C78007F
S11302E07C7C04047C780000387C44447C38000026
S11302F084FCF8A4243C1800183C24A4F8FC8400D2
S1130300447C78441C180000485C54547424000055
S113031000043E7F442400003C7C40403C7C400080
S11303201C3C60603C1C00003C7C6030607C3C00F9
S1130330446C3810386C44009CBCA0A0FC7C0000C9
S11303404C64745C4C64000008083E774141000032
S113035000000077770000004141773E0808000064
S1130360020301030203010011241FBECFEFD4E0F6
S1130370DEBFCDBF13E0A0E0B1E0E0EBF2E102C0EC
S113038005900D92A833B107D9F723E0A8E3B3E0B1
S113039001C01D92A035B207E1F70E9482050C94BA
S11303A056090C9400000E942B038FE00E9419034D
S11303B01F928F9384E291E09F938F930E94030690
S11303C04FEF60E680E60E94F70240E064E080E6DA
S11303D00E94F7024FEF61E08BE20E94F70240E0D7
S11303E060EE8FE00E94F7020F900F900F900F9035
S11303F0089580E30E94190386958695869591E079
S11304008927817090E008951F93CF93DF93EC01C7
S11304100E94F901892BE1F36881798175956795CB
S1130420759567957595679581E30E94D3026881F8
S11304307981660F771F62957295707F7627607F4A
S1130440762782E30E94D3026A816F7085E30E945B
S1130450D3028A81882369F010E0FE01E10FF11DC7
S1130460638186E3810F0E94D3021F5F8A8118177C
S1130470A0F381E00E94E702DF91CF911F910895DC
S11304801F920F920FB60F9211248F939F938FEFA9
S11304909FE20197F1F700C0000081E080934303DD
S11304A09F918F910F900FBE0F901F90189590936E
S11304B039038093380382E080933A0380E00E94FA
S11304C0B10280933B0381E00E94B10280933C031C
S11304D088E393E00E94040208958FE00E941903C8
S11304E01F928F93C1E8D1E0DF93CF930E9403065C
S11304F040E060EE8FE00E94F7028FE00E94190353
S11305001F928F93DF93CF930E9403068DB79EB7FC
S113051008960FB6F8949EBF0FBE8DBFC0E08C2F17
S113052090E00E945702CF5F0E949C05F8CF8C5F39
S11305308093001481E48A95F1F700C0809100143F
S113054090E0089580E00E94970290934503809381
S1130550440381E00E9497029093470380934603EB
S11305600895CF93C82F0E949702C11107C020910C
S1130570440330914503821B930B08C0C13031F40E
S11305802091460330914703821B930B80382FEF51
S1130590920714F480E89FEF8038910514F08FE7F8
S11305A090E0CF910895CF93DF93D82FC62F0E9468
S11305B0890482E00E947E048D2F0E947E048C2F89
S11305C00E947E040E948B04DF91CF910895CF9303
S11305D0883018F4C82FC06801C0C0E80E9489049C
S11305E08C2F0E947E040E948B04CF9108951F9348
S11305F0CF93DF93182FD62FC42F0E94890485E050
S11306000E947E04812F0E947E048D2F0E947E040E
S11306108C2F0E947E040E948B04DF91CF911F9146
S113062008950E94890480EC0E947E040E948B0439
S11306300895CF93C82F0E94890483E00E947E040A
S11306408C2F0E947E040E948204C82F0E948B0477
S11306508C2FCF910895CF93DF931F92CDB7DEB740
S11306600E9476040E9411038EE00E94190389837C
S11306708981807E803821F080E991E00E9417060C
S11306800F90DF91CF91089528E0829FC00111243B
S1130690FC01E059F04080E09491A0910401B091F4
S11306A005019C938F5F31968830B1F7089590EBE4
S11306B0980FE0910601F09107019083809348031D
S11306C082E58A95F1F7089580E890E0E0910401CD
S11306D0F0910501108201970097C1F70895CF9317
S11306E0DF93C0E0D0E0CE010E9457030E94640370
S11306F080E090EF0197F1F72196C830D10599F782
S1130700DF91CF910895CF93DF93EB010E945703BC
S1130710C031D105E8F48C2F880F880F880F80939F
S11307204903E0910601F0910701CC0FDD1FCC0FC6
S1130730DD1FCC0FDD1FD295C295CF70CD27DF70A2
S1130740CD27C083E0910601F0910701C05FC0830B
S1130750DF91CF910895CF93DF93CDB7DEB7FE013C
S1130760359661917191AF0188E091E00E94440651
S1130770DF91CF910895E0910601F09107018EEA8F
S11307808083E0910601F091070181EA8083E09182
S11307900601F09107018AED8083E0910601F09152
S11307A0070182E18083E0910601F091070188EC62
S11307B08083E0910601F091070188EA8083E0914B
S11307C00601F09107018FE38083E0910601F09127
S11307D0070185ED8083E0910601F091070180E82F
S11307E08083E0910601F091070181E88083E09124
S11307F00601F091070180E58083E0910601F09104
S1130800070189ED8083E0910601F091070181E2FF
S11308108083E0910601F091070180E28083E091FA
S11308200601F091070182E08083E0910601F091D6
S113083007018BED8083E0910601F091070180E3CD
S11308408083E0910601F09107018DEA8083E091B5
S11308500601F09107011082E0910601F091070171
S113086084EA8083E0910601F091070186EA80839F
S1130870E0910601F09107018FEA80830E946F03E3
S113088063E070E082E090E00E94830381EF91E0F6
S11308909F938F930E94AB0367E070E083E090E046
S11308A00E94830388EF91E09F938F930E94AB0390
S11308B069E070E084E090E00E9483038CEF91E0B3
S11308C09F938F930E94AB032FEF8FEF9BE02150F8
S11308D080409040E1F700C000C00E946F030F9079
S11308E00F900F900F900F900F90089587B3806B27
S11308F087BBBE988DB181658DB908958FB9779BFB
S1130900FECF08958AEA0E947E04779BFECF8FB1C2
S11309100895C4980895C49A0895CF92DF92EF92EF
S1130920FF920F931F93CF93DF930E946F0362E0B4
S113093070E083E090E00E94830382E092E09F9362
S11309408F930E94AB038FE092E00E9417060E94EF
S1130950F3056C010E94F8050F900F90C0E0D0E001
S113096000E010E00F2EF6E2EF2EF2E0FF2EF02D65
S11309700E94F305FE01F85E808320812817A9F008
S113098099279F938F931F922F93DF93CF93FF9277
S1130990EF920E9403060F5F1F4F8DB79EB7089614
S11309A00FB6F8949EBF0FBE8DBF2196C11598E077
S11309B0D907F1F6C6010E94F805C0E0D0E0E12CA9
S11309C0F12C0F2EFFE5CF2EF2E0DF2EF02D0E944A
S11309D0F305FE01F85E20812817B1F099279F9353
S11309E08F931F922F93DF93CF93DF92CF920E9426
S11309F003069FEFE91AF90A8DB79EB708960FB65A
S1130A00F8949EBF0FBE8DBF2196C11598E0D907FB
S1130A10F1F6E114F10419F40115110571F160E026
S1130A2070E085E090E00E948303FF92EF928CE9EE
S1130A3092E09F938F930E94AB0360E070E086E0A6
S1130A4090E00E9483031F930F938BEA92E09F939D
S1130A508F930E94AB032FEF8FEF9BE321508040D5
S1130A609040E1F700C000008DB79EB708960FB61E
S1130A70F8949EBF0FBE8DBF0EC064E070E086E0A8
S1130A8090E00E9483038AEB92E09F938F930E94ED
S1130A90AB030F900F90FF92EF921F930F9384EC90
S1130AA092E09F938F930E9403060F900F900F90F4
S1130AB00F900F900F90DF91CF911F910F91FF90A6
S1130AC0EF90DF90CF90089580E885BF8FEF8ABBC9
S1130AD00E948D0408955D9BFECF8CB908955F9BA1
S1130AE0FECF8CB190E0089589B988E18AB986E196
S1130AF091E090934D0380934C0390934B03809328
S1130B004A0308958FE190E00E9474058DE193E01B
S1130B100E9417060E9464050E94A2020E94BB0361
S1130B200E94D301B89A87E293E00E9417060E94BC
S1130B306D0280E090E00895C09A8FEF9FE20197E4
S1130B40F1F700C00000C09808958F929F92AF9271
S1130B50BF92CF92DF92EF92FF92CF93DF93EC019B
S1130B60688179818A819B8161157105810591056F
S1130B7021F464E279ED8BE597E02DE133EF41E078
S1130B8050E00E94BC0849015A019B01AC01A7EA4C
S1130B90B1E40E94DB086B017C01ACEEB4EFA5016B
S1130BA094010E94E908C60ED71EE81EF91EF7FE3E
S1130BB006C081E0C81AD108E10880E8F80AC882B2
S1130BC0D982EA82FB82C6019F77DF91CF91FF90A1
S1130BD0EF90DF90CF90BF90AF909F908F9008954B
S1130BE00E94A505089580E091E00E94A50508955E
S1130BF0A0E0B0E08093000190930101A093020172
S1130C00B09303010895A0E0B0E0E9E0F6E00C94AD
S1130C10FE08FE01359661917191AF0180914C03FC
S1130C2090914D030E944406E2E00C941A090F933C
S1130C301F93CF93DF93E0914C03F0914D032381F5
S1130C4021FF1BC0EC0100E010E0899160914C038E
S1130C5070914D03DB011896ED91FC91199788234F
S1130C6031F00995892B89F30FEF1FEFEECF8AE05E
S1130C700995892B11F4C80102C08FEF9FEFDF9112
S1130C80CF911F910F910895ACE0B0E0EAE4F6E053
S1130C900C94EE087C016B018A01FC011782168218
S1130CA0838181FFBDC1CE0101964C01F70193817F
S1130CB0F60193FD859193FF81916F01882309F4D7
S1130CC0ABC1853239F493FD859193FF81916F0116
S1130CD0853229F4B70190E00E942C08E7CF512C0B
S1130CE0312C20E02032A0F48B3269F030F48032D1
S1130CF059F0833269F420612CC08D3239F080338D
S1130D0039F4216026C02260246023C0286021C0F9
S1130D1027FD27C030ED380F3A3078F426FF06C09F
S1130D20FAE05F9E300D1124532E13C08AE0389EE2
S1130D30300D1124332E20620CC08E3221F426FD96
S1130D406BC1206406C08C3611F4206802C088365A
S1130D5041F4F60193FD859193FF81916F01811117
S1130D60C1CF982F9F7D9554933028F40C5F1F4F6B
S1130D70FFE3F9830DC0833631F0833771F0833597
S1130D8009F05BC022C0F801808189830E5F1F4F88
S1130D9044244394512C540115C03801F2E06F0EE1
S1130DA0711CF801A080B18026FF03C0652D70E09E
S1130DB002C06FEF7FEFC5012C870E9421082C0130
S1130DC083012C852F77222E17C03801F2E06F0E95
S1130DD0711CF801A080B18026FF03C0652D70E06E
S1130DE002C06FEF7FEFC5012C870E9416082C010B
S1130DF02C852068222E830123FC1BC0832D90E0C8
S1130E0048165906B0F4B70180E290E00E942C081D
S1130E103A94F4CFF50127FC859127FE81915F0177
S1130E20B70190E00E942C0831103A94F1E04F1A77
S1130E3051084114510471F7E5C0843611F0893624
S1130E4039F5F80127FF07C06081718182819381A0
S1130E500C5F1F4F08C060817181882777FD8095E2
S1130E60982F0E5F1F4F2F76B22E97FF09C09095D3
S1130E708095709561957F4F8F4F9F4F2068B22E5C
S1130E802AE030E0A4010E945E08A82EA81844C0FD
S1130E90853729F42F7EB22E2AE030E025C0F22FC8
S1130EA0F97FBF2E8F36C1F018F4883579F0B4C0BD
S1130EB0803719F0883721F0AFC02F2F2061B22E70
S1130EC0B4FE0DC08B2D8460B82E09C024FF0AC067
S1130ED09F2F9660B92E06C028E030E005C020E1BF
S1130EE030E002C020E132E0F801B7FE07C06081C3
S1130EF07181828193810C5F1F4F06C06081718173
S1130F0080E090E00E5F1F4FA4010E945E08A82EAF
S1130F10A818FB2DFF77BF2EB6FE0BC02B2D2E7FFE
S1130F20A51450F4B4FE0AC0B2FC08C02B2D2E7ECA
S1130F3005C07A2C2B2D03C07A2C01C0752C24FFFC
S1130F400DC0FE01EA0DF11D8081803311F4297E6C
S1130F5009C022FF06C07394739404C0822F86785C
S1130F6009F0739423FD13C020FF06C05A2C731498
S1130F7018F4530C5718732C731468F4B70180E2F7
S1130F8090E02C870E942C0873942C85F5CF731461
S1130F9010F4371801C0312C24FF12C0B70180E3CC
S1130FA090E02C870E942C082C8522FF17C021FF7B
S1130FB003C088E590E002C088E790E0B7010CC068
S1130FC0822F867859F021FD02C080E201C08BE2B5
S1130FD027FD8DE2B70190E00E942C08A51438F497
S1130FE0B70180E390E00E942C085A94F7CFAA94AA
S1130FF0F401EA0DF11D8081B70190E00E942C08F4
S1131000A110F5CF332009F451CEB70180E290E06E
S11310100E942C083A94F6CFF7018681978102C08A
S11310208FEF9FEF2C96E2E10C940A09FC010590E6
S1131030615070400110D8F7809590958E0F9F1FD6
S11310400895FC016150704001900110D8F780951B
S113105090958E0F9F1F08950F931F93CF93DF9347
S1131060182F092FEB018B8181FD03C08FEF9FEFB8
S113107020C082FF10C04E815F812C813D814217C8
S113108053077CF4E881F9819F012F5F3F4F398337
S11310902883108306C0E885F985812F0995892B5B
S11310A029F72E813F812F5F3F4F3F832E83812F6E
S11310B0902FDF91CF911F910F910895FA01AA27E4
S11310C0283051F1203181F1E8946F936E7F6E5F87
S11310D07F4F8F4F9F4FAF4FB1E03ED0B4E03CD035
S11310E0670F781F891F9A1FA11D680F791F8A1F18
S11310F0911DA11D6A0F711D811D911DA11D20D07F
S113110009F468943F912AE0269F11243019305D38
S11311103193DEF6CF010895462F4770405D419329
S1131120B3E00FD0C9F7F6CF462F4F70405D4A3376
S113113018F0495D31FD4052419302D0A9F7EACF3E
S1131140B4E0A6959795879577956795BA95C9F76D
S113115000976105710508959B01AC010A2E069460
S11311605795479537952795BA95C9F7620F731F19
S1131170841F951FA01D0895052E97FB1EF400944F
S11311800E94D30857FD07D00E94250907FC03D00D
S11311904EF40C94D30850954095309521953F4FCB
S11311A04F4F5F4F089590958095709561957F4F4F
S11311B08F4F9F4F08950E944709A59F900DB49F9C
S11311C0900DA49F800D911D11240895B7FF0C94D8
S11311D0DB080E94DB08821B930B08952F923F9239
S11311E04F925F926F927F928F929F92AF92BF9233
S11311F0CF92DF92EF92FF920F931F93CF93DF93DF
S1131200CDB7DEB7CA1BDB0B0FB6F894DEBF0FBE3B
S1131210CDBF09942A88398848885F846E847D8488
S11312208C849B84AA84B984C884DF80EE80FD808A
S11312300C811B81AA81B981CE0FD11D0FB6F89400
S1131240DEBF0FBECDBFED010895A1E21A2EAA1B89
S1131250BB1BFD010DC0AA1FBB1FEE1FFF1FA21762
S1131260B307E407F50720F0A21BB30BE40BF50B5F
S1131270661F771F881F991F1A9469F760957095E8
S1131280809590959B01AC01BD01CF010895A29F6B
S1131290B001B39FC001A39F700D811D1124911D46
S11312A0B29F700D811D1124911D0895F894FFCFF4
S11312B00100000000120010000000020000000005
S11312C044030000000000000003000000006B0560
S11312D06F05000043414E4354524C2028657870FA
S11312E06563742030783837293A203078253032D5
S11312F0780A004D6573736167652069643A202537
S1131300640A4D657373616765206C656E67746804
S11313102025640A004D65737361676520646174F8
S1131320613A205B202564002C20256400205D0A9E
S11313300043414E4354524C3A20253032780A003F
S11313404D435032353135206973206E6F742069F6
S11313506E20636F6E666967206D6F6465206166D9
S1131360746572207265736574004E6F7420696EC3
S1131370206C6F6F706261636B206F706572617453
S1131380696F6E206D6F6465004F70206D6F6465CA
S11313903A2025780A005465737420646F6E650AD8
S11313A0002023535741470020203400204C594645
S11313B0450054455354494E47205352414D000A69
S11313C05374617274696E67205352414D20746581
S11313D073742E2E2E0057726974652070686173C1
S11313E065206572726F723A206578745F72616D00
S11313F05B2534645D203D202530325820287368F5
S11314006F756C642062652025303258290A0052B9
S1131410657472696576616C2070686173652065B6
S113142072726F723A206578745F72616D5B2534F5
S1131430645D203D2025303258202873686F756C18
S1131440642062652025303258290A005220455212
S1131450524F52533A2020253464005720455252AB
S11314604F52533A2020253464004E4F20455252A7
S11314704F5253005352414D207465737420636F6F
S11314806D706C657465642077697468200A25340E
S113149064206572726F727320696E20777269744A
S11314A06520706861736520616E64200A25346468
S11314B0206572726F727320696E2072657472692E
S11314C06576616C2070686173650A0A000A52458A
S11314D0424F4F544544000A416C6C20696E697454
S10B14E020646F6E650A000030
S9030000FC
