:100000000C94B4010C943B020C94D1010C94D101DA
:100010000C94D1010C94D1010C94D1010C94D10118
:100020000C94D1010C94D1010C94D1010C94D10108
:100030000C94D1010C94D1010C94D1010C94D101F8
:100040000C94D1010C94D1010C94D1010C94D101E8
:100050000C94D1010C94D1010C94D1010C94D101D8
:100060000C94D1010C94D1010C94D1010C94D101C8
:10007000000000000000000000065F5F06000000B6
:100080000007070007070000147F7F147F7F14001C
:10009000242E6B6B3A120000466630180C66620024
:1000A000307A4F5D377A48000407030000000000F3
:1000B000001C3E63410000000041633E1C00000044
:1000C000082A3E1C1C3E2A0808083E3E080800007C
:1000D00000A0E06000000000080808080808000010
:1000E00000006060000000006030180C0603010092
:1000F0003E7F594D7F3E000042427F7F40400000DE
:10010000627359496F660000226349497F360000D7
:10011000181C16137F7F1000276745457D390000A6
:100120003C7E4B4979300000036371190F070000D2
:10013000367F49497F360000064F49693F1E00005F
:1001400000006C6C0000000000A0EC6C00000000DF
:10015000081C366341000000141414141414000029
:10016000004163361C080000020351590F060000CD
:100170003E7F415D5D1F1E007C7E13137E7C000070
:10018000417F7F49497F36001C3E63414163220025
:10019000417F7F41637F1C00417F7F495D41630058
:1001A000417F7F491D0103001C3E63415173720072
:1001B0007F7F08087F7F000000417F7F41000000B3
:1001C000307040417F3F0100417F7F081C77630012
:1001D000417F7F41406070007F7F060C067F7F007B
:1001E0007F7F060C187F7F001C3E6341633E1C002E
:1001F000417F7F49090F06001E3F21717F5E00008D
:10020000417F7F19396F460026674D597B320000C8
:1002100003417F7F410300007F7F40407F7F0000DC
:100220001F3F60603F1F00007F7F3018307F7F00DE
:1002300063771C081C776300074F78784F0700002E
:100240006773594D47637100007F7F414100000093
:100250000103060C183060000041417F7F00000060
:10026000080C0603060C0800808080808080808057
:100270000000030704000000207454543C78400040
:10028000413F7F44447C3800387C44446C28000063
:10029000307848493F7F4000387C54545C18000057
:1002A000487E7F490302000098BCA4A4F87C0400A7
:1002B000417F7F08047C780000447D7D4000000081
:1002C00040C484FD7D000000417F7F10386C4400F5
:1002D00000417F7F400000007C7C0C180C7C780083
:1002E0007C7C04047C780000387C44447C3800002A
:1002F00084FCF8A4243C1800183C24A4F8FC8400D6
:10030000447C78441C180000485C54547424000059
:1003100000043E7F442400003C7C40403C7C400084
:100320001C3C60603C1C00003C7C6030607C3C00FD
:10033000446C3810386C44009CBCA0A0FC7C0000CD
:100340004C64745C4C64000008083E774141000036
:1003500000000077770000004141773E0808000068
:10036000020301030203010011241FBECFEFD4E0FA
:10037000DEBFCDBF14E0A0E0B1E0E0E9FAE102C0E9
:1003800005900D92A038B107D9F724E0A0E8B4E0B9
:1003900001C01D92A239B207E1F70E9490060C94A9
:1003A000460D0C9400000E94BA038FE00E94A8033F
:1003B0001F928F938CE291E09F938F930E94F30999
:1003C0004FEF60E680E60E94860340E064E080E64E
:1003D0000E9486034FEF61E08BE20E9486030F903C
:1003E0000F900F900F90089580E30E94A8038695C8
:1003F0008695869591E08927817090E008951F93F6
:10040000CF93DF93EC010E94F401892BE1F3688123
:10041000798175956795759567957595679581E36C
:100420000E94620368817981660F771F62957295D9
:10043000707F7627607F762782E30E9462036A815D
:100440006F7085E30E9462038A81882369F010E05F
:10045000FE01E10FF11D638186E3810F0E946203BB
:100460001F5F8A811817A0F381E00E947603DF9155
:10047000CF911F9108951F920F920FB60F921124E2
:100480008F939F938FEF9FE20197F1F700C00000D9
:1004900081E0809381049F918F910F900FBE0F9008
:1004A0001F901895FF920F931F93CF93DF93EC014A
:1004B0008A811F928F9389818F9388818F938BE498
:1004C00091E09F938F930E94F3092B81822F9927AC
:1004D00087FD90959F932F938DE691E09F938F9347
:1004E0000E94F3098DB79EB70A960FB6F8949EBF87
:1004F0000FBE8DBF8A818230D0F0FF24F39400E8D4
:1005000011E0FE01EF0DF11D2381822F992787FD58
:1005100090959F932F931F930F930E94F309F39449
:100520000F900F900F900F908A81F81650F385E886
:1005300091E00E94070ADF91CF911F910F91FF90E8
:100540000895CF93DF93CDB7DEB72B970FB6F8940E
:10055000DEBF0FBECDBF8FE00E94A8031F928F9316
:1005600009E811E01F930F930E94F30940E060EE49
:100570008FE00E94860381E090E09A83898388E07F
:100580008B831C8284E18D8388E28E838CE38F834E
:1005900080E5888784E6898788E78A878CE88B8767
:1005A0008FE00E94A8031F928F931F930F930E94C6
:1005B000F3090FB6F894DEBF0FBECDBFCE01019692
:1005C0000E94FF0190E19A95F1F700C0CE010196DB
:1005D0000E9452028C818F5F8C8389819A8101965F
:1005E0009A8389832FEF8FEF9EE0215080409040C7
:1005F000E1F700C00000E2CF8C5F8093001481E43B
:100600008A95F1F700C08091001490E0089580E091
:100610000E94FC02909383048093820481E00E94F4
:10062000FC0290938504809384040895CF93C82F8F
:100630000E94FC02C11107C0209182043091830402
:10064000821B930B08C0C13031F420918404309197
:100650008504821B930B80382FEF920714F480E8F7
:100660009FEF8038910514F08FE790E0CF910895C7
:1006700081E00E9416038436910564F421E030E0A5
:100680008D399F4F14F020E030E088279927821B96
:10069000930B089581E090E0089580E00E94160396
:1006A0008436910564F421E030E08D399F4F14F0D9
:1006B00020E030E088279927821B930B089581E082
:1006C00090E00895CF93DF93D82FC62F0E9497050F
:1006D00082E00E948C058D2F0E948C058C2F0E9439
:1006E0008C050E949905DF91CF910895CF938830B2
:1006F00018F4C82FC06801C0C0E80E9497058C2F6D
:100700000E948C050E949905CF9108951F93CF9365
:10071000DF93182FD62FC42F0E94970585E00E94E3
:100720008C05812F0E948C058D2F0E948C058C2FAB
:100730000E948C050E949905DF91CF911F91089529
:100740000E94970580EC0E948C050E9499050895EF
:10075000CF93C82F0E94970583E00E948C058C2FB1
:100760000E948C050E949005C82F0E9499058C2F2D
:10077000CF910895CF93DF931F92CDB7DEB70E943C
:1007800084050E94A0038EE00E94A80389838981CA
:10079000807E803821F088E991E00E94070A0F905E
:1007A000DF91CF91089528E0829FC0011124FC01C0
:1007B000E059F04080E09491A0910A01B0910B01C2
:1007C0009C938F5F31968830B1F7089590EB980F26
:1007D000E0910C01F0910D0190838093860482E5F5
:1007E0008A95F1F7089580E890E0E0910A01F09190
:1007F0000B01108201970097C1F70895CF93DF9303
:10080000C0E0D0E0CE010E94E6030E94F30380E046
:1008100090EF0197F1F72196C830D10599F7DF9154
:10082000CF910895CF93DF93EB010E94E603C0318F
:10083000D105E8F48C2F880F880F880F80938704E8
:10084000E0910C01F0910D01CC0FDD1FCC0FDD1FED
:10085000CC0FDD1FD295C295CF70CD27DF70CD278D
:10086000C083E0910C01F0910D01C05FC083DF9166
:10087000CF910895CF93DF93CDB7DEB7FE013596C4
:1008800061917191AF018EE091E00E94340ADF9195
:10089000CF910895E0910C01F0910D018EEA8083D3
:1008A000E0910C01F0910D0181EA8083E0910C014F
:1008B000F0910D018AED8083E0910C01F0910D0122
:1008C00082E18083E0910C01F0910D0188EC80833E
:1008D000E0910C01F0910D0188EA8083E0910C0118
:1008E000F0910D018FE38083E0910C01F0910D01F7
:1008F00085ED8083E0910C01F0910D0180E880830B
:10090000E0910C01F0910D0181E88083E0910C01F0
:10091000F0910D0180E58083E0910C01F0910D01D3
:1009200089ED8083E0910C01F0910D0181E28083DB
:10093000E0910C01F0910D0180E28083E0910C01C7
:10094000F0910D0182E08083E0910C01F0910D01A6
:100950008BED8083E0910C01F0910D0180E38083A9
:10096000E0910C01F0910D018DEA8083E0910C0182
:10097000F0910D011082E0910C01F0910D0184EADB
:100980008083E0910C01F0910D0186EA8083E09173
:100990000C01F0910D018FEA80830E94FE0363E059
:1009A00070E082E090E00E94120489EF91E09F9352
:1009B0008F930E943A0467E070E083E090E00E9429
:1009C000120480E092E09F938F930E943A0469E0C2
:1009D00070E084E090E00E94120484E092E09F9333
:1009E0008F930E943A042FEF8FEF9BE021508040BD
:1009F0009040E1F700C000C00E94FE030F900F90EE
:100A00000F900F900F900F9008958091800408959B
:100A10008093800470E090E00E941204E0910A014B
:100A2000F0910B0188E18083E0910A01F0910B01C4
:100A30008083E0910A01F0910B019EE79083E091A1
:100A40000A01F0910B019CE39083E0910A01F0917F
:100A50000B018083089570E090E00E941204E09101
:100A60000A01F0910B011082E0910A01F0910B0153
:100A70001082E0910A01F0910B011082E0910A01CD
:100A8000F0910B011082E0910A01F0910B011082AC
:100A900008959923A4F4E09180042E2F30E02417C8
:100AA000350768F460E08E2F0E942B05809180044A
:100AB0008F5F8093800460E00E94080508951816F7
:100AC000190694F480918004282F30E06217730790
:100AD00058F460E00E942B0580918004815080933F
:100AE000800460E00E94080508950E9449052FEFE8
:100AF0008FE797E0215080409040E1F700C0000070
:100B00008091800490E0089587B3806B87BBBE9886
:100B10008DB181658DB908958FB9779BFECF08950A
:100B20008AEA0E948C05779BFECF8FB10895C49806
:100B30000895C49A0895CF92DF92EF92FF920F9397
:100B40001F93CF93DF930E94FE0362E070E083E087
:100B500090E00E9412048AE092E09F938F930E949B
:100B60003A0487E192E00E94070A0E94E3096C01BF
:100B70000E94E8090F900F90C0E0D0E000E010E084
:100B80000F2EFEE2EF2EF2E0FF2EF02D0E94E30981
:100B9000FE01F85E808320812817A9F099279F9392
:100BA0008F931F922F93DF93CF93FF92EF920E9428
:100BB000F3090F5F1F4F8DB79EB708960FB6F894D5
:100BC0009EBF0FBE8DBF2196C11598E0D907F1F6E3
:100BD000C6010E94E809C0E0D0E0E12CF12C0F2E04
:100BE000F7E6CF2EF2E0DF2EF02D0E94E309FE01A2
:100BF000F85E20812817B1F099279F938F931F9259
:100C00002F93DF93CF93DF92CF920E94F3099FEF50
:100C1000E91AF90A8DB79EB708960FB6F8949EBFE9
:100C20000FBE8DBF2196C11598E0D907F1F6E114EA
:100C3000F10419F40115110571F160E070E085E02F
:100C400090E00E941204FF92EF9284EA92E09F9358
:100C50008F930E943A0460E070E086E090E00E948A
:100C600012041F930F9383EB92E09F938F930E9444
:100C70003A042FEF8FEF9BE3215080409040E1F743
:100C800000C000008DB79EB708960FB6F8949EBFBF
:100C90000FBE8DBF0EC064E070E086E090E00E9461
:100CA000120482EC92E09F938F930E943A040F907B
:100CB0000F90FF92EF921F930F938CEC92E09F9313
:100CC0008F930E94F3090F900F900F900F900F9049
:100CD0000F90DF91CF911F910F91FF90EF90DF90D8
:100CE000CF90089580E885BF8FEF8ABB0E949B0557
:100CF00008955D9BFECF8CB908955F9BFECF8CB1AC
:100D000090E0089589B988E18AB98CE191E09093E7
:100D10008F0480938E0490938D0480938C040895A7
:100D20008FE190E00E94820685E293E00E94070A2C
:100D30000E9472060E9407030E944A040E94D30187
:100D40008FE293E00E94070A0E94A1020E9402071C
:100D50000E94AE07FBCFDF92EF92FF920F931F939B
:100D6000CF93DF937C018B01D42E89E090E00E9429
:100D70006E08EC01FE82ED8218870F83D8824D2D1C
:100D800050E0CA01880F991F880F991F880F991F7B
:100D9000840F951F0E946E089A838983CE01DF918C
:100DA000CF911F910F91FF90EF90DF9008951F93C7
:100DB000CF93DF93EC018881882301F110E0812F2C
:100DC00090E0880F991FE981FA81E80FF91F0190DF
:100DD000F081E02DD483C38329813A81F901E80FA2
:100DE000F91F0190F081E02D8081882319F0CF0157
:100DF0000E94D7061F5F8881181708F3DF91CF91F3
:100E00001F9108950F931F93CF93DF9343E060E00A
:100E100070E08FE393E00E94AB06EC011C821B8222
:100E200009811A8140E06BE975E084E493E00E9457
:100E3000AB06F8019183808309811A8140E06BE958
:100E400075E08EE493E00E94AB06F8019383828301
:100E500009811A8142E060E070E084E593E00E943D
:100E6000AB06F80195838483E981FA810480F581DA
:100E7000E02D0181128140E060E478E083E693E0B8
:100E80000E94AB06F80191838083E981FA81048096
:100E9000F581E02D0181128140E06BE975E08FE67C
:100EA00093E00E94AB06F80193838283CE010E94F7
:100EB000D706CE01DF91CF911F910F910895EF9248
:100EC000FF920F931F93CF93DF937C010E94FE0349
:100ED00060E080912A010E94080560E070E080E0F7
:100EE00090E00E941204D70116968C9116978F936A
:100EF00015968C918F930E943A040F900F90F701F2
:100F00008081882321F100E010E0C0E0D0E021964C
:100F100062E070E0CE010E941204D7011196ED91BB
:100F2000FC911297E00FF11F0190F081E02D868176
:100F30008F9385818F930E943A040E5F1F4FF701B4
:100F4000808190E00F900F90C817D90700F3DF91D0
:100F5000CF911F910F91FF90EF9008958C010E9407
:100F60005F070E943803892B71F0F801C081D0E03F
:100F70000E943803AE0161E070E00E947505909315
:100F80002B0180932A010E944D03892B51F30E946B
:100F90004D03019709F057C0F801C181D2810E9429
:100FA000050590E081509048880F991FC80FD91F00
:100FB000E881F98180818823C1F0F801C181D28163
:100FC0000E94050590E081509048880F991FC80F36
:100FD000D91F0881198181E090E090932B018093C3
:100FE0002A01C8010E945F0741C0F801C181D28176
:100FF0000E94050590E081509048880F991FC80F06
:10100000D91FE881F98187819085892B79F1F801D1
:10101000C181D2810E94050590E081509048880FDF
:10102000991FC80FD91FE881F9810780F085E02D4D
:10103000099581E090E090932B0180932A01C801EB
:101040000E945F0713C00E944D03019679F4F801D6
:10105000C381D481209751F081E090E090932B01DF
:1010600080932A01CE010E945F078E01FFEF2FE7D8
:1010700087E0F15020408040E1F700C0000071CFD0
:101080000E94FE0363E070E082E090E00E941204A0
:101090008CE793E09F938F930E943A0464E070E0A2
:1010A00084E090E00E94120485E893E09F938F9380
:1010B0000E943A040F900F900F900F9084E190E0FF
:1010C000C09AE0E0F0EF3197F1F7C098E0E0F0EF80
:1010D0003197F1F70197009799F70895CF93DF9330
:1010E0008230910510F482E090E0E0918A04F09162
:1010F0008B0420E030E0A0E0B0E0309739F140818F
:10110000518148175907B8F04817590771F482817F
:101110009381109729F013969C938E9312972CC06D
:1011200090938B0480938A0427C02115310531F0F8
:101130004217530718F0A901DB0101C0EF019A0122
:10114000BD01DF010280F381E02DD7CF21153105EC
:10115000F9F0281B390B2430310580F48A819B81FA
:101160006115710521F0FB019383828304C0909384
:101170008B0480938A04FE01329644C0FE01E20F84
:10118000F31F8193919322503109398328833AC008
:101190002091880430918904232B41F4209102018D
:1011A0003091030130938904209388042091000139
:1011B000309101012115310541F42DB73EB7409121
:1011C000040150910501241B350BE0918804F09136
:1011D0008904E217F307A0F42E1B3F0B28173907E9
:1011E00078F0AC014E5F5F4F2417350748F04E0F83
:1011F0005F1F50938904409388048193919302C0A8
:10120000E0E0F0E0CF01DF91CF910895CF93DF933D
:10121000009709F487C0FC01329713821282C091B3
:101220008A04D0918B04209781F420813181280F8A
:10123000391F80918804909189048217930779F56A
:10124000F0938904E09388046DC0DE0120E030E073
:10125000AE17BF0750F412964D915C9113979D0104
:101260004115510509F1DA01F3CFB383A28340811F
:101270005181840F951F8A179B0771F48D919C9162
:101280001197840F951F02969183808312968D91FA
:101290009C911397938382832115310529F4F09350
:1012A0008B04E0938A043EC0D9011396FC93EE931D
:1012B00012974D915D91A40FB51FEA17FB0779F4C2
:1012C00080819181840F951F0296D90111969C937C
:1012D0008E938281938113969C938E931297E0E074
:1012E000F0E08A819B81009719F0FE01EC01F9CFB3
:1012F000CE01029628813981820F931F20918804A4
:10130000309189042817390769F4309729F410922D
:101310008B0410928A0402C013821282D093890433
:10132000C0938804DF91CF9108958F929F92AF92DE
:10133000BF92CF92DF92EF92FF92CF93DF93EC01B7
:10134000688179818A819B8161157105810591058B
:1013500021F464E279ED8BE597E02DE133EF41E094
:1013600050E00E94AC0C49015A019B01AC01A7EA74
:10137000B1E40E94CB0C6B017C01ACEEB4EFA50193
:1013800094010E94D90CC60ED71EE81EF91EF7FE66
:1013900006C081E0C81AD108E10880E8F80AC882CE
:1013A000D982EA82FB82C6019F77DF91CF91FF90BD
:1013B000EF90DF90CF90BF90AF909F908F90089567
:1013C0000E949509089586E091E00E94950908958C
:1013D000A0E0B0E08093060190930701A09308017C
:1013E000B09309010895A0E0B0E0E9EFF9E00C94B2
:1013F000EE0CFE01359661917191AF0180918E04E2
:1014000090918F040E94340AE2E00C940A0D0F932D
:101410001F93CF93DF93E0918E04F0918F0423818B
:1014200021FF1BC0EC0100E010E0899160918E0467
:1014300070918F04DB011896ED91FC911997882328
:1014400031F00995892B89F30FEF1FEFEECF8AE07A
:101450000995892B11F4C80102C08FEF9FEFDF912E
:10146000CF911F910F910895ACE0B0E0EAE3FAE06C
:101470000C94DE0C7C016B018A01FC011782168240
:10148000838181FFBDC1CE0101964C01F70193819B
:10149000F60193FD859193FF81916F01882309F4F3
:1014A000ABC1853239F493FD859193FF81916F0132
:1014B000853229F4B70190E00E941C0CE7CF512C33
:1014C000312C20E02032A0F48B3269F030F48032ED
:1014D00059F0833269F420612CC08D3239F08033A9
:1014E00039F4216026C02260246023C0286021C016
:1014F00027FD27C030ED380F3A3078F426FF06C0BC
:10150000FAE05F9E300D1124532E13C08AE0389EFE
:10151000300D1124332E20620CC08E3221F426FDB2
:101520006BC1206406C08C3611F4206802C0883676
:1015300041F4F60193FD859193FF81916F01811133
:10154000C1CF982F9F7D9554933028F40C5F1F4F87
:10155000FFE3F9830DC0833631F0833771F08335B3
:1015600009F05BC022C0F801808189830E5F1F4FA4
:1015700044244394512C540115C03801F2E06F0EFD
:10158000711CF801A080B18026FF03C0652D70E0BA
:1015900002C06FEF7FEFC5012C870E94110C2C0158
:1015A00083012C852F77222E17C03801F2E06F0EB1
:1015B000711CF801A080B18026FF03C0652D70E08A
:1015C00002C06FEF7FEFC5012C870E94060C2C0133
:1015D0002C852068222E830123FC1BC0832D90E0E4
:1015E00048165906B0F4B70180E290E00E941C0C46
:1015F0003A94F4CFF50127FC859127FE81915F0194
:10160000B70190E00E941C0C31103A94F1E04F1A9F
:1016100051084114510471F7E5C0843611F0893640
:1016200039F5F80127FF07C06081718182819381BC
:101630000C5F1F4F08C060817181882777FD8095FE
:10164000982F0E5F1F4F2F76B22E97FF09C09095EF
:101650008095709561957F4F8F4F9F4F2068B22E78
:101660002AE030E0A4010E944E0CA82EA81844C025
:10167000853729F42F7EB22E2AE030E025C0F22FE4
:10168000F97FBF2E8F36C1F018F4883579F0B4C0D9
:10169000803719F0883721F0AFC02F2F2061B22E8C
:1016A000B4FE0DC08B2D8460B82E09C024FF0AC083
:1016B0009F2F9660B92E06C028E030E005C020E1DB
:1016C00030E002C020E132E0F801B7FE07C06081DF
:1016D0007181828193810C5F1F4F06C0608171818F
:1016E00080E090E00E5F1F4FA4010E944E0CA82ED8
:1016F000A818FB2DFF77BF2EB6FE0BC02B2D2E7F1B
:10170000A51450F4B4FE0AC0B2FC08C02B2D2E7EE6
:1017100005C07A2C2B2D03C07A2C01C0752C24FF18
:101720000DC0FE01EA0DF11D8081803311F4297E88
:1017300009C022FF06C07394739404C0822F867878
:1017400009F0739423FD13C020FF06C05A2C7314B4
:1017500018F4530C5718732C731468F4B70180E213
:1017600090E02C870E941C0C73942C85F5CF731489
:1017700010F4371801C0312C24FF12C0B70180E3E8
:1017800090E02C870E941C0C2C8522FF17C021FFA3
:1017900003C088E590E002C088E790E0B7010CC084
:1017A000822F867859F021FD02C080E201C08BE2D1
:1017B00027FD8DE2B70190E00E941C0CA51438F4BF
:1017C000B70180E390E00E941C0C5A94F7CFAA94D2
:1017D000F401EA0DF11D8081B70190E00E941C0C1C
:1017E000A110F5CF332009F451CEB70180E290E08B
:1017F0000E941C0C3A94F6CFF7018681978102C0B3
:101800008FEF9FEF2C96E2E10C94FA0CFC0105900F
:10181000615070400110D8F7809590958E0F9F1FF2
:101820000895FC016150704001900110D8F7809537
:1018300090958E0F9F1F08950F931F93CF93DF9363
:10184000182F092FEB018B8181FD03C08FEF9FEFD4
:1018500020C082FF10C04E815F812C813D814217E4
:1018600053077CF4E881F9819F012F5F3F4F398353
:101870002883108306C0E885F985812F0995892B77
:1018800029F72E813F812F5F3F4F3F832E83812F8A
:10189000902FDF91CF911F910F910895FA01AA2700
:1018A000283051F1203181F1E8946F936E7F6E5FA3
:1018B0007F4F8F4F9F4FAF4FB1E03ED0B4E03CD051
:1018C000670F781F891F9A1FA11D680F791F8A1F34
:1018D000911DA11D6A0F711D811D911DA11D20D09B
:1018E00009F468943F912AE0269F11243019305D55
:1018F0003193DEF6CF010895462F4770405D419346
:10190000B3E00FD0C9F7F6CF462F4F70405D4A3392
:1019100018F0495D31FD4052419302D0A9F7EACF5A
:10192000B4E0A6959795879577956795BA95C9F789
:1019300000976105710508959B01AC010A2E06947C
:101940005795479537952795BA95C9F7620F731F35
:10195000841F951FA01D0895052E97FB1EF400946B
:101960000E94C30C57FD07D00E94150D07FC03D041
:101970004EF40C94C30C50954095309521953F4FF3
:101980004F4F5F4F089590958095709561957F4F6B
:101990008F4F9F4F08950E94370DA59F900DB49FC4
:1019A000900DA49F800D911D11240895B7FF0C94F4
:1019B000CB0C0E94CB0C821B930B08952F923F926D
:1019C0004F925F926F927F928F929F92AF92BF924F
:1019D000CF92DF92EF92FF920F931F93CF93DF93FB
:1019E000CDB7DEB7CA1BDB0B0FB6F894DEBF0FBE58
:1019F000CDBF09942A88398848885F846E847D84A5
:101A00008C849B84AA84B984C884DF80EE80FD80A6
:101A10000C811B81AA81B981CE0FD11D0FB6F8941C
:101A2000DEBF0FBECDBFED010895A1E21A2EAA1BA5
:101A3000BB1BFD010DC0AA1FBB1FEE1FFF1FA2177E
:101A4000B307E407F50720F0A21BB30BE40BF50B7B
:101A5000661F771F881F991F1A9469F76095709504
:101A6000809590959B01AC01BD01CF010895A29F87
:101A7000B001B39FC001A39F700D811D1124911D62
:101A8000B29F700D811D1124911D0895F894FFCF10
:101A9000000092042000010000000012001000006D
:101AA000000200000000D30300000000000000035B
:101AB0000000000079067D060000010043414E430E
:101AC00054524C202865787065637420307838371C
:101AD000293A203078253032780A004D65737361D9
:101AE00067652069643A2025640A4D6573736167F0
:101AF00065206C656E6774682025640A004D657307
:101B00007361676520646174613A205B2025780009
:101B10002C20256400205D0A0043414E4354524C62
:101B20003A20253032780A004D4350323531352085
:101B30006973206E6F7420696E20636F6E666967CB
:101B4000206D6F64652061667465722072657365CF
:101B500074004E6F7420696E206C6F6F70626163E9
:101B60006B206F7065726174696F6E206D6F646554
:101B7000004F70206D6F64653A2025780A00546527
:101B8000737420646F6E650A002023535741470029
:101B900020203400204C5946450054455354494EAA
:101BA00047205352414D000A5374617274696E6745
:101BB000205352414D20746573742E2E2E0057729F
:101BC000697465207068617365206572726F723A1E
:101BD000206578745F72616D5B2534645D203D2003
:101BE00025303258202873686F756C642062652038
:101BF00025303258290A0052657472696576616C25
:101C0000207068617365206572726F723A20657822
:101C1000745F72616D5B2534645D203D2025303238
:101C200058202873686F756C6420626520253032F7
:101C300058290A0052204552524F52533A2020252B
:101C400034640057204552524F52533A20202534D5
:101C500064004E4F204552524F5253005352414D53
:101C6000207465737420636F6D706C657465642097
:101C700077697468200A253464206572726F727304
:101C800020696E20777269746520706861736520C1
:101C9000616E64200A253464206572726F7273204D
:101CA000696E2072657472696576616C2070686116
:101CB00073650A0A000A5245424F4F544544000AD0
:101CC000416C6C20696E697420646F6E650A004D0A
:101CD00061696E00506C61792067616D6500536EBB
:101CE000616B6500546573742066756E6374696F0B
:101CF0006E7300466C6173682064696F64650043AD
:101D0000414E206C6F6F706261636B00464C4153B3
:101D100048494E470044494F4445000A5B726F6F83
:101D20007440736B796E65745D233A0025730020EF
:101D300025730A0044494F44455F74657374007409
:101D4000657374696E672064696F64652E2E2E005A
:101D5000646F6E652074657374696E672064696F63
:101D60006465005352414D5F746573740041444390
:101D70005F74657374004A6F79737469636B20785C
:101D80002D706F733A20253030336920094A6F79FE
:101D9000737469636B20792D706F733A202530302E
:101DA000336920094C65667420736C696465723A06
:101DB0002025303033642009526967687420736CC1
:101DC000696465723A202530303364200A004F4C34
:101DD00045445F74657374006F6C65645F696E6918
:101DE0007428293A20646F6E65004D454E555F7426
:101DF00065737400636C65617200756E6B6E6F77EE
:101E00006E20636F6D6D616E6420222573220A005F
:00000001FF
