:100000000C94BA010C94D7010C94D7010C94D7012D
:100010000C94D7010C94D7010C94D7010C94D70100
:100020000C94D7010C94D7010C94D7010C94D701F0
:100030000C94D7010C94D7010C94D7010C94D701E0
:100040000C94D7010C94D7010C94D7010C94D701D0
:100050000C94D7010C94D7010C94D7010C94D701C0
:100060000C94D7010C94D7010C94D7010C94D701B0
:10007000000000000000000000065F5F06000000B6
:100080000007070007070000147F7F147F7F14001C
:10009000242E6B6B3A120000466630180C66620024
:1000A000307A4F5D377A48000407030000000000F3
:1000B000001C3E63410000000041633E1C00000044
:1000C000082A3E1C1C3E2A0808083E3E080800007C
:1000D00000A0E06000000000080808080808000010
:1000E00000006060000000006030180C0603010092
:1000F0003E7F594D7F3E000042427F7F40400000DE
:10010000627359496F660000226349497F360000D7
:10011000181C16137F7F1000276745457D390000A6
:100120003C7E4B4979300000036371190F070000D2
:10013000367F49497F360000064F49693F1E00005F
:1001400000006C6C0000000000A0EC6C00000000DF
:10015000081C366341000000141414141414000029
:10016000004163361C080000020351590F060000CD
:100170003E7F415D5D1F1E007C7E13137E7C000070
:10018000417F7F49497F36001C3E63414163220025
:10019000417F7F41637F1C00417F7F495D41630058
:1001A000417F7F491D0103001C3E63415173720072
:1001B0007F7F08087F7F000000417F7F41000000B3
:1001C000307040417F3F0100417F7F081C77630012
:1001D000417F7F41406070007F7F060C067F7F007B
:1001E0007F7F060C187F7F001C3E6341633E1C002E
:1001F000417F7F49090F06001E3F21717F5E00008D
:10020000417F7F19396F460026674D597B320000C8
:1002100003417F7F410300007F7F40407F7F0000DC
:100220001F3F60603F1F00007F7F3018307F7F00DE
:1002300063771C081C776300074F78784F0700002E
:100240006773594D47637100007F7F414100000093
:100250000103060C183060000041417F7F00000060
:10026000080C0603060C0800808080808080808057
:100270000000030704000000207454543C78400040
:10028000413F7F44447C3800387C44446C28000063
:10029000307848493F7F4000387C54545C18000057
:1002A000487E7F490302000098BCA4A4F87C0400A7
:1002B000417F7F08047C780000447D7D4000000081
:1002C00040C484FD7D000000417F7F10386C4400F5
:1002D00000417F7F400000007C7C0C180C7C780083
:1002E0007C7C04047C780000387C44447C3800002A
:1002F00084FCF8A4243C1800183C24A4F8FC8400D6
:10030000447C78441C180000485C54547424000059
:1003100000043E7F442400003C7C40403C7C400084
:100320001C3C60603C1C00003C7C6030607C3C00FD
:10033000446C3810386C44009CBCA0A0FC7C0000CD
:100340004C64745C4C64000008083E774141000036
:1003500000000077770000004141773E0808000068
:1003600002030103020301006364696E6F70737519
:1003700078585B0011241FBECFEFD4E0DEBFCDBFA5
:1003800013E0A0E0B1E0E4E1F7E102C005900D92D6
:10039000A030B107D9F723E0A0E0B3E001C01D927F
:1003A000AA30B207E1F70E9415020C94880B0C9456
:1003B00000008C5F8093001481E48A95F1F700C0FF
:1003C0008091001490E0089580E00E94D9019093FC
:1003D00001038093000381E00E94D90190930303FD
:1003E000809302030895CF93C82F0E94D901C111B1
:1003F00007C02091000330910103821B930B08C0BA
:10040000C13031F42091020330910303821B930B1E
:1004100080382FEF920714F480E89FEF8038910521
:1004200014F08FE790E0CF9108958FE190E00E9463
:100430008A040E94AD030E94E4010E9473020E949C
:10044000C0030E94B403FBCF28E0829FC0011124A7
:10045000FC01E059F04080E09491A0910401B0913A
:1004600005019C938F5F31968830B1F708958055D0
:10047000E0910601F0910701808380E18A95F1F710
:1004800000C0089580E890E0E0910401F09105013A
:10049000108201970097C1F70895CF93DF93C0E0D2
:1004A000D0E0CE010E9437020E94420283ED90E329
:1004B0000197F1F700C000002196C830D10589F7F7
:1004C000DF91CF910895CF93DF93CDB7DEB7FE01D3
:1004D000359661917191AF0188E091E00E945405D9
:1004E000DF91CF910895E0910601F09107018EEA26
:1004F0008083E0910601F091070181EA8083E09119
:100500000601F09107018AED8083E0910601F091E8
:10051000070182E18083E0910601F091070188ECF8
:100520008083E0910601F091070188EA8083E091E1
:100530000601F09107018FE38083E0910601F091BD
:10054000070185ED8083E0910601F091070180E8C5
:100550008083E0910601F091070181E88083E091BA
:100560000601F091070180E58083E0910601F0919A
:10057000070189ED8083E0910601F091070181E296
:100580008083E0910601F091070180E28083E09191
:100590000601F091070182E08083E0910601F0916D
:1005A00007018BED8083E0910601F091070180E364
:1005B0008083E0910601F09107018DEA8083E0914C
:1005C0000601F09107011082E0910601F091070108
:1005D00084EA8083E0910601F091070186EA808336
:1005E000E0910601F09107018FEA80830E944D029D
:1005F00082E090E00E94370284E291E09F938F9323
:100600000E94630283E090E00E9437028BE291E057
:100610009F938F930E94630284E090E00E943702D0
:100620008FE291E09F938F930E9463022FEB87E20A
:1006300099E0215080409040E1F700C000000E9406
:100640004D020F900F900F900F900F900F90089504
:10065000CF92DF92EF92FF920F931F93CF93DF938E
:1006600085E391E00E9413050E94E6046C010E945C
:10067000EB04C0E0D0E000E010E00F2EFCE4EF2E31
:10068000F1E0FF2EF02D0E94E604FE01F85E80836B
:1006900020812817A9F099279F938F931F922F935A
:1006A000DF93CF93FF92EF920E94FF040F5F1F4FE3
:1006B0008DB79EB708960FB6F8949EBF0FBE8DBF3C
:1006C0002196C11598E0D907F1F6C6010E94EB0406
:1006D000C0E0D0E0E12CF12C0F2EF5E8CF2EF1E0B8
:1006E000DF2EF02D0E94E604FE01F85E208128171F
:1006F000B1F099279F938F931F922F93DF93CF93FE
:10070000DF92CF920E94FF048FEFE81AF80A8DB7AC
:100710009EB708960FB6F8949EBF0FBE8DBF219668
:10072000C11598E0D907F1F6FF92EF921F930F934E
:1007300082EC91E09F938F930E94FF040F900F90A3
:100740000F900F900F900F90DF91CF911F910F910D
:10075000FF90EF90DF90CF90089580E885BF8FEFF6
:100760008ABB0E94280308958FEF88BB80E090EF3A
:100770000197F1F718BA80E090EF0197F1F708952B
:10078000AF92BF92CF92DF92EF92FF920F931F939F
:10079000CF93DF93CDB7DEB7DA950FB6F894DEBF0F
:1007A0000FBECDBF8BE192E09F938F930E94FF0419
:1007B0008E010F5F1F4F1F930F938CE292E09F9368
:1007C0008F930E9440051F930F938FE292E09F93B7
:1007D0008F930E94FF0464E372E0C8010E94F60454
:1007E0000FB6F894DEBF0FBECDBF892B91F48EE318
:1007F00092E00E94130504E110E00E94B40301504E
:10080000110901151105C9F78FE492E00E94130543
:1008100067C062E672E0CE0101960E94F604892B61
:1008200019F40E9428035CC06CE672E0CE010196C8
:100830000E94F604892B41F505E712E083E00E944F
:10084000D901B82EA92E82E00E94D901D82EC92E36
:1008500081E090E00E94F301F82EE92E80E090E024
:100860000E94F301AF92BF92CF92DF92EF92FF927C
:100870009F938F931F930F930E94FF040FB6F894DA
:10088000DEBF0FBECDBFDACF6DEC72E0CE010196B8
:100890000E94F604892BB1F487ED92E00E941305C3
:1008A00080E090E00E9437020E944D020E944D02BB
:1008B0009FEF2FE731E0915020403040E1F700C03A
:1008C00000C0F4CFCE0101969F938F9389EE92E002
:1008D0009F938F930E94FF040F900F900F900F90A3
:1008E000D3950FB6F894DEBF0FBECDBFDF91CF9189
:1008F0001F910F91FF90EF90DF90CF90BF90AF903E
:1009000008955D9BFECF8CB908955F9BFECF8CB19F
:1009100090E0089589B988E18AB986E191E09093E1
:1009200007038093060390930503809304030895BF
:100930008F929F92AF92BF92CF92DF92EF92FF92EF
:10094000CF93DF93EC01688179818A819B81611566
:1009500071058105910521F464E279ED8BE597E05D
:100960002DE133EF41E050E00E94EE0A49015A01C7
:100970009B01AC01A7EAB1E40E940D0B6B017C0165
:10098000ACEEB4EFA50194010E941B0BC60ED71E5E
:10099000E81EF91EF7FE06C081E0C81AD108E1087A
:1009A00080E8F80AC882D982EA82FB82C6019F7772
:1009B000DF91CF91FF90EF90DF90CF90BF90AF90FD
:1009C0009F908F9008950E949804089580E091E090
:1009D0000E9498040895A0E0B0E0809300019093F5
:1009E0000101A0930201B09303010895FB01DC0112
:1009F0008D91019080190110D9F3990B0895A0E011
:100A0000B0E0E5E0F5E00C94300BFE013596619125
:100A10007191AF0180910603909107030E945405E4
:100A2000E2E00C944C0B0F931F93CF93DF93E09174
:100A30000603F0910703238121FF1BC0EC0100E0B6
:100A400010E089916091060370910703DB0118960D
:100A5000ED91FC911997882331F00995892B89F341
:100A60000FEF1FEFEECF8AE00995892B11F4C80133
:100A700002C08FEF9FEFDF91CF911F910F910895EB
:100A8000A0E0B0E0E6E4F5E00C94300BFE01359612
:100A900061917191AF0180910403909105030E94CF
:100AA000A408E2E00C944C0BACE0B0E0EAE5F5E021
:100AB0000C94200B7C016B018A01FC0117821682C9
:100AC000838181FFBDC1CE0101964C01F701938165
:100AD000F60193FD859193FF81916F01882309F4BD
:100AE000ABC1853239F493FD859193FF81916F01FC
:100AF000853229F4B70190E00E94420AE7CF512CD9
:100B0000312C20E02032A0F48B3269F030F48032B6
:100B100059F0833269F420612CC08D3239F0803372
:100B200039F4216026C02260246023C0286021C0DF
:100B300027FD27C030ED380F3A3078F426FF06C085
:100B4000FAE05F9E300D1124532E13C08AE0389EC8
:100B5000300D1124332E20620CC08E3221F426FD7C
:100B60006BC1206406C08C3611F4206802C0883640
:100B700041F4F60193FD859193FF81916F018111FD
:100B8000C1CF982F9F7D9554933028F40C5F1F4F51
:100B9000FFE3F9830DC0833631F0833771F083357D
:100BA00009F05BC022C0F801808189830E5F1F4F6E
:100BB00044244394512C540115C03801F2E06F0EC7
:100BC000711CF801A080B18026FF03C0652D70E084
:100BD00002C06FEF7FEFC5012C870E94F9092C013D
:100BE00083012C852F77222E17C03801F2E06F0E7B
:100BF000711CF801A080B18026FF03C0652D70E054
:100C000002C06FEF7FEFC5012C870E94EE092C0117
:100C10002C852068222E830123FC1BC0832D90E0AD
:100C200048165906B0F4B70180E290E00E94420AEB
:100C30003A94F4CFF50127FC859127FE81915F015D
:100C4000B70190E00E94420A31103A94F1E04F1A45
:100C500051084114510471F7E5C0843611F089360A
:100C600039F5F80127FF07C0608171818281938186
:100C70000C5F1F4F08C060817181882777FD8095C8
:100C8000982F0E5F1F4F2F76B22E97FF09C09095B9
:100C90008095709561957F4F8F4F9F4F2068B22E42
:100CA0002AE030E0A4010E948D0AA82EA81844C0B2
:100CB000853729F42F7EB22E2AE030E025C0F22FAE
:100CC000F97FBF2E8F36C1F018F4883579F0B4C0A3
:100CD000803719F0883721F0AFC02F2F2061B22E56
:100CE000B4FE0DC08B2D8460B82E09C024FF0AC04D
:100CF0009F2F9660B92E06C028E030E005C020E1A5
:100D000030E002C020E132E0F801B7FE07C06081A8
:100D10007181828193810C5F1F4F06C06081718158
:100D200080E090E00E5F1F4FA4010E948D0AA82E64
:100D3000A818FB2DFF77BF2EB6FE0BC02B2D2E7FE4
:100D4000A51450F4B4FE0AC0B2FC08C02B2D2E7EB0
:100D500005C07A2C2B2D03C07A2C01C0752C24FFE2
:100D60000DC0FE01EA0DF11D8081803311F4297E52
:100D700009C022FF06C07394739404C0822F867842
:100D800009F0739423FD13C020FF06C05A2C73147E
:100D900018F4530C5718732C731468F4B70180E2DD
:100DA00090E02C870E94420A73942C85F5CF73142F
:100DB00010F4371801C0312C24FF12C0B70180E3B2
:100DC00090E02C870E94420A2C8522FF17C021FF49
:100DD00003C088E590E002C088E790E0B7010CC04E
:100DE000822F867859F021FD02C080E201C08BE29B
:100DF00027FD8DE2B70190E00E94420AA51438F465
:100E0000B70180E390E00E94420A5A94F7CFAA9477
:100E1000F401EA0DF11D8081B70190E00E94420AC1
:100E2000A110F5CF332009F451CEB70180E290E054
:100E30000E94420A3A94F6CFF7018681978102C058
:100E40008FEF9FEF2C96E2E10C943C0B20FD09C044
:100E5000FC0123FD05C022FF02C07383628351831E
:100E60004083089544FD10C046FD10C0DB01FC0125
:100E7000AA0FBB1FEE1FFF1F1094D1F76A0F7B1F35
:100E80008E1F9F1F31E003C033E001C034E0660FC6
:100E9000771F881F991F3150D1F7620F711D811D77
:100EA000911D08950F931F93CF93DF938C01C80179
:100EB0000E94040AEC0197FD08C00E94DB09892BFF
:100EC000B1F7B801CE010E94740ACE01DF91CF9133
:100ED0001F910F9108958F929F92AF92CF92DF92C0
:100EE000EF92FF920F931F93CF93DF93EC01A62E07
:100EF0004A01022F0E94040AAC0155274B325105CA
:100F000021F04D32510551F40068AA9411F480E0AB
:100F100067C0CE010E94040A97FDF9CF102F1D7FF4
:100F2000302F307301F58033F1F4FF24FA94FA0C7A
:100F300009F442C0CE010E94040A97FD3DC0382F3B
:100F40003F7D383551F41264AA94AA94A9F1CE01D8
:100F50000E94040A97FF07C02FC006FF02C012605C
:100F600001C01261AF2CC12CD12C760120ED280FCD
:100F7000283080F014FF04C0BE010E94740A19C01A
:100F80002A3040F016FFF8CF2F7D3FEE320F36307B
:100F900098F72750412FC701B6010E9432076B0115
:100FA0007C011260AA9459F0CE010E94040A97FFB6
:100FB000DDCF11FD04C0ABCFC12CD12C760117FFC2
:100FC00008C0F094E094D094C094C11CD11CE11CE2
:100FD000F11C212FB701A601C4010E94260781E060
:100FE000DF91CF911F910F91FF90EF90DF90CF9005
:100FF000AF909F908F900895A1E2B0E0E2E0F8E01A
:101000000C94250B5C017A018E010F5F1F4F680164
:1010100080E2D8011D928A95E9F7F501738040E0DE
:1010200050E0812CB0E0912C81E090E0F90173FC5C
:10103000A59173FEA1918F017A2F9F01A11103C089
:1010400080E090E07DC0AE3519F44115510559F1AD
:10105000E92DF0E0E417F5073CF4AD3569F1AD3268
:1010600019F4BB2319F103C0B11101C08A2EE72F77
:10107000E695E695E69586010E0F111DF801A72F5E
:10108000A7708C0102C0000F111FAA95E2F7D801CA
:10109000B081BA2BB083781559F0781510F47F5FC2
:1010A000E6CF7150E4CF9924939403C0B1E001C01E
:1010B000B0E04F5F5F4FBACFBB2319F08E818062E3
:1010C0008E83911003C09924939415C0F601CE012C
:1010D0008196208120952193E817F907D1F7F3CF66
:1010E000E114F10429F0D7018C93F70131967F01C7
:1010F000615001F1912CC50169A30E94040A69A104
:1011000097FD16C0282F269526952695F601E20F05
:10111000F11D208130E0AC014770552702C03595A4
:1011200027954A95E2F720FDDBCFB5010E94740AAE
:10113000911086CFE114F10411F0D7011C92C8017F
:10114000A196EDE00C94410B4F925F927F928F92AB
:101150009F92AF92BF92CF92DF92EF92FF920F9346
:101160001F93CF93DF931F92CDB7DEB78C012B0176
:101170007A01FC0117821682A12CF801D380F201BA
:10118000D3FC8591D3FE8191382F2F01882309F458
:10119000FCC090E039830E94DB093981892B21F062
:1011A000C8010E945207E9CF353241F4F201D3FC65
:1011B0003591D3FE31912F01353269F4C80139835D
:1011C0000E94040A398197FDDEC03817B1F2B801D8
:1011D0000E94740ADAC03A3241F4D3FC3591D3FE4E
:1011E00031912F01BB24B39401C0B12C712C20ED9F
:1011F000230F2A3090F4FB2DF260BF2E672D70E094
:1012000080E090E040E20E943207762EF201D3FCAB
:101210003591D3FE31912F01EACFB1FE03C0711099
:1012200003C0B3C077247A94383619F03C3661F0A5
:1012300014C0F201D3FC3591D3FE31912F01383621
:1012400061F4FB2DF860BF2E8B2D8460B82EF20167
:10125000D3FC3591D3FE31912F01332309F495C08E
:10126000632F70E088E693E039830E94E3093981B7
:10127000892B09F48AC0B0FC07C0F701C080D18077
:10128000C70102967C0102C0C12CD12C3E3651F41C
:10129000F8014681578160E070E02B2DC6010E9465
:1012A00026076BCF3336A1F4B1FC02C077247394C8
:1012B000C8010E94040A97FD66C0C114D10429F038
:1012C000F6018083C60101966C017A9489F757C0B4
:1012D0003B3559F49201A601672DC8010E94FC0715
:1012E0002C01009709F04BC045C0C80139830E940A
:1012F0005207398197FD47C03F3669F128F43436EB
:1013000031F1393679F12BC0333769F03537F9F0DF
:1013100026C0C114D10429F0F6018082C6010196CD
:101320006C017A9471F0C8010E94040A4C0197FD87
:1013300008C00E94DB09892B61F3B801C4010E9437
:10134000740AC114D104D9F0F601108218C0FB2D23
:10135000F062BF2E07C08B2D8061B82E03C09B2D7D
:101360009064B92E2B2DA601672DC8010E946B0732
:10137000811105C0F8018381807329F406C0B0FC97
:10138000FCCEA394FACEAA2019F08A2D90E002C0D8
:101390008FEF9FEF0F90DF91CF911F910F91FF90F3
:1013A000EF90DF90CF90BF90AF909F908F907F9005
:1013B0005F904F90089591110EC1803219F08950BD
:1013C0008550D0F70895FC010590061621F0002005
:1013D000D9F7C00108953197CF010895FC01059018
:1013E000615070400110D8F7809590958E0F9F1F27
:1013F0000895FC016150704001900110D8F780956C
:1014000090958E0F9F1F0895CF93DF93EC012B8152
:1014100020FF33C026FF0AC02F7B2B838E819F8144
:1014200001969F838E838A8190E029C022FF0FC09E
:10143000E881F9818081992787FD9095009719F4BB
:1014400020622B831AC03196F983E8830EC0EA85A7
:10145000FB85099597FF09C02B81019611F480E166
:1014600001C080E2822B8B8308C02E813F812F5FD9
:101470003F4F3F832E83992702C08FEF9FEFDF916D
:10148000CF9108950F931F93CF93DF93182F092FB8
:10149000EB018B8181FD03C08FEF9FEF20C082FFA6
:1014A00010C04E815F812C813D81421753077CF42F
:1014B000E881F9819F012F5F3F4F39832883108393
:1014C00006C0E885F985812F0995892B29F72E819A
:1014D0003F812F5F3F4F3F832E83812F902FDF91DE
:1014E000CF911F910F910895FB01238120FF12C01E
:1014F00026FD10C08F3F3FEF930761F082832F7D61
:101500002064238326813781215031093783268344
:10151000992708958FEF9FEF0895FA01AA272830A1
:1015200051F1203181F1E8946F936E7F6E5F7F4FB0
:101530008F4F9F4FAF4FB1E03ED0B4E03CD0670F2C
:10154000781F891F9A1FA11D680F791F8A1F911D7F
:10155000A11D6A0F711D811D911DA11D20D009F4CF
:1015600068943F912AE0269F11243019305D319311
:10157000DEF6CF010895462F4770405D4193B3E0FA
:101580000FD0C9F7F6CF462F4F70405D4A3318F0A1
:10159000495D31FD4052419302D0A9F7EACFB4E052
:1015A000A6959795879577956795BA95C9F700970A
:1015B0006105710508959B01AC010A2E06945795AB
:1015C000479537952795BA95C9F7620F731F841F02
:1015D000951FA01D0895992788270895052E97FB2C
:1015E0001EF400940E94050B57FD07D00E94570B74
:1015F00007FC03D04EF40C94050B509540953095A4
:1016000021953F4F4F4F5F4F08959095809570956E
:1016100061957F4F8F4F9F4F08950E94790BA59F33
:10162000900DB49F900DA49F800D911D11240895DD
:10163000B7FF0C940D0B0E940D0B821B930B0895AA
:101640002F923F924F925F926F927F928F929F92D2
:10165000AF92BF92CF92DF92EF92FF920F931F93C0
:10166000CF93DF93CDB7DEB7CA1BDB0B0FB6F89471
:10167000DEBF0FBECDBF09942A88398848885F84B1
:101680006E847D848C849B84AA84B984C884DF8022
:10169000EE80FD800C811B81AA81B981CE0FD11D06
:1016A0000FB6F894DEBF0FBECDBFED010895A1E2E5
:1016B0001A2EAA1BBB1BFD010DC0AA1FBB1FEE1FCC
:1016C000FF1FA217B307E407F50720F0A21BB30B17
:1016D000E40BF50B661F771F881F991F1A9469F793
:1016E00060957095809590959B01AC01BD01CF01EF
:1016F0000895A29FB001B39FC001A39F700D811DEB
:101700001124911DB29F700D811D1124911D08950A
:04171000F894FFCF7B
:1017140001000000001200100000000200000000A0
:101724002402000000000000000300000000810407
:101734008504000020235357414700202034002013
:101744004C594645000A5374617274696E6720539C
:1017540052414D20746573742E2E2E005772697495
:1017640065207068617365206572726F723A2065D6
:1017740078745F72616D5B2534645D203D20253093
:101784003258202873686F756C6420626520253098
:101794003258290A0052657472696576616C20704A
:1017A40068617365206572726F723A206578745F40
:1017B40072616D5B2534645D203D202530325820F4
:1017C4002873686F756C642062652025303258294F
:1017D4000A005352414D207465737420636F6D7019
:1017E4006C657465642077697468200A2534642004
:1017F4006572726F727320696E20777269746520E6
:10180400706861736520616E64200A253464206504
:1018140072726F727320696E207265747269657674
:10182400616C2070686173650A0A000A5B726F6FED
:101834007440736B796E65745D233A0025730020E0
:1018440025730A007465737464696F646500746554
:101854007374696E672064696F64652E2E2E00644C
:101864006F6E652074657374696E672064696F6454
:1018740065005352414D5F74657374004144435F86
:1018840074657374004A6F79737469636B20782D7F
:10189400706F733A20253030336920094A6F7973A9
:1018A4007469636B20792D706F733A20253030335F
:1018B4006920094C65667420736C696465723A200A
:1018C40025303033642009526967687420736C6969
:1018D4006465723A202530303364200A004F4C4549
:1018E400445F74657374006F6C65645F696E6974DA
:1018F40028293A20646F6E6500756E6B6E6F776E83
:1019040020636F6D6D616E6420222573220A0000CE
:00000001FF
