S016000050696E675F506F6E675F536869742E7372656396
S11300000C94B4010C94D1010C94D1010C94D10141
S11300100C94D1010C94D1010C94D1010C94D10114
S11300200C94D1010C94D1010C94D1010C94D10104
S11300300C94D1010C94D1010C94D1010C94D101F4
S11300400C94D1010C94D1010C94D1010C94D101E4
S11300500C94D1010C94D1010C94D1010C94D101D4
S11300600C94D1010C94D1010C94D1010C94D101C4
S1130070000000000000000000065F5F06000000B2
S11300800007070007070000147F7F147F7F140018
S1130090242E6B6B3A120000466630180C66620020
S11300A0307A4F5D377A48000407030000000000EF
S11300B0001C3E63410000000041633E1C00000040
S11300C0082A3E1C1C3E2A0808083E3E0808000078
S11300D000A0E0600000000008080808080800000C
S11300E000006060000000006030180C060301008E
S11300F03E7F594D7F3E000042427F7F40400000DA
S1130100627359496F660000226349497F360000D3
S1130110181C16137F7F1000276745457D390000A2
S11301203C7E4B4979300000036371190F070000CE
S1130130367F49497F360000064F49693F1E00005B
S113014000006C6C0000000000A0EC6C00000000DB
S1130150081C366341000000141414141414000025
S1130160004163361C080000020351590F060000C9
S11301703E7F415D5D1F1E007C7E13137E7C00006C
S1130180417F7F49497F36001C3E63414163220021
S1130190417F7F41637F1C00417F7F495D41630054
S11301A0417F7F491D0103001C3E6341517372006E
S11301B07F7F08087F7F000000417F7F41000000AF
S11301C0307040417F3F0100417F7F081C7763000E
S11301D0417F7F41406070007F7F060C067F7F0077
S11301E07F7F060C187F7F001C3E6341633E1C002A
S11301F0417F7F49090F06001E3F21717F5E000089
S1130200417F7F19396F460026674D597B320000C4
S113021003417F7F410300007F7F40407F7F0000D8
S11302201F3F60603F1F00007F7F3018307F7F00DA
S113023063771C081C776300074F78784F0700002A
S11302406773594D47637100007F7F41410000008F
S11302500103060C183060000041417F7F0000005C
S1130260080C0603060C0800808080808080808053
S11302700000030704000000207454543C7840003C
S1130280413F7F44447C3800387C44446C2800005F
S1130290307848493F7F4000387C54545C18000053
S11302A0487E7F490302000098BCA4A4F87C0400A3
S11302B0417F7F08047C780000447D7D400000007D
S11302C040C484FD7D000000417F7F10386C4400F1
S11302D000417F7F400000007C7C0C180C7C78007F
S11302E07C7C04047C780000387C44447C38000026
S11302F084FCF8A4243C1800183C24A4F8FC8400D2
S1130300447C78441C180000485C54547424000055
S113031000043E7F442400003C7C40403C7C400080
S11303201C3C60603C1C00003C7C6030607C3C00F9
S1130330446C3810386C44009CBCA0A0FC7C0000C9
S11303404C64745C4C64000008083E774141000032
S113035000000077770000004141773E0808000064
S1130360020301030203010011241FBECFEFD4E0F6
S1130370DEBFCDBF14E0A0E0B1E0ECECFBE102C0D5
S113038005900D92A435B107D9F724E0A4E5B4E0B3
S113039001C01D92A536B207E1F70E9418070C941C
S11303A0E40D0C9400000E942B044FEF60E680E6FD
S11303B00E94F70340E064E080E60E94F70340E017
S11303C060EE8FE00E94F7034FEF61E08BE20E9442
S11303D0F7030895CF92DF92EF92FF920F931F934A
S11303E0CF93DF93CDB7DEB72A970FB6F894DEBF6D
S11303F00FBECDBF0983C12E1A832B833C834D834B
S11304005E836F83788789879A8780E30E941904C3
S113041083FDFBCF61E3802F8695869586950E94A8
S1130420D30362E3802F8295880F807E0E94D303DA
S113043065E38C2D0E94D303D12C1C141D0494F469
S11304407E0183E0E80EF11C00E010E066E3600F3B
S1130450F70181917F010E94D3030F5F1F4F0C1599
S11304601D05A4F386E30E94E7032A960FB6F894C9
S1130470DEBF0FBECDBFDF91CF911F910F91FF90D3
S1130480EF90DF90CF900895CF92DF92EF92FF929A
S11304900F931F93CF93DF93CDB7DEB72A970FB691
S11304A0F894DEBF0FBECDBF6C01FE0131968AE029
S11304B0DF011D928A95E9F78CE20E94190480FFFE
S11304C02BC081E60E941904182F82E60E941904A9
S11304D0110F110F110F829586958770182B1983B0
S11304E085E60E9419048F708A838823B9F07E01FF
S11304F0B3E0EB0EF11C00E010E086E6800F0E94F2
S11305001904F70181937F010F5F1F4F2A8130E0A7
S11305100217130794F302C08FEF89838AE0FE0168
S11305203196D60101900D928A95E1F7C6012A967B
S11305300FB6F894DEBF0FBECDBFDF91CF911F91F0
S11305400F91FF90EF90DF90CF900895CF92DF92BC
S1130550EF92FF920F931F93CF93DF93CDB7DEB744
S11305602A970FB6F894DEBF0FBECDBF09831A8356
S11305702B833C834D835E836F83788789879A8737
S11305801F921F9389811F928F938CE291E09F9316
S11305908F930E94910A8E010D5F1F4F6E018BE0B5
S11305A0C80ED11C0F900F900F900F900F900F90CA
S11305B00F2EF2E5EF2EF1E0FF2EF02DF8018191E0
S11305C08F011F928F93FF92EF920E94910A0F90D6
S11305D00F900F900F900C151D0581F786E591E0A3
S11305E00E94A50A2A960FB6F894DEBF0FBECDBFAF
S11305F0DF91CF911F910F91FF90EF90DF90CF90FB
S11306000895CF93DF93CDB7DEB764970FB6F89410
S1130610DEBF0FBECDBF40E460EE8FE00E94F70363
S11306208FE00E9419041F928F9388E591E09F93B5
S11306308F930E94910A8EE00E9419041F928F9357
S11306408EE791E09F938F930E94910A81E08983C2
S1130650FE0133960FB6F894DEBF0FBECDBF80E027
S113066081938F5F8830E1F76894FF24F3F8FA826E
S113067009811F2D2B813C814D815E816F8178859D
S113068089859A850E94EA0109811A812B813C811E
S11306904D815E816F81788589859A850E94A60245
S11306A0CE010B960E9444020B851C852D853E8548
S11306B04F85588969897A898B899C890E94A60209
S11306C08B818F5F8B839FEF2FE78DE091502040CC
S11306D08040E1F700C00000CACF8C5F8093001413
S11306E081E48A95F1F700C08091001490E00895A8
S11306F080E00E946D03909356048093550481E03A
S11307000E946D0390935804809357040895CF93E7
S1130710C82F0E946D03C11107C020915504309168
S11307205604821B930B08C0C13031F42091570446
S113073030915804821B930B80382FEF920714F4E6
S113074080E89FEF8038910514F08FE790E0CF9117
S1130750089581E00E9487038436910564F421E0C2
S113076030E08D399F4F14F020E030E0882799273E
S1130770821B930B089581E090E0089580E00E942D
S113078087038436910564F421E030E08D399F4F6E
S113079014F020E030E088279927821B930B0895FA
S11307A081E090E00895CF93DF93D82FC62F0E9465
S11307B01F0682E00E9414068D2F0E9414068C2FBF
S11307C00E9414060E942106DF91CF910895CF93D1
S11307D0883018F4C82FC06801C0C0E80E941F0602
S11307E08C2F0E9414060E942106CF9108951F9316
S11307F0CF93DF93182FD62FC42F0E941F0685E0B6
S11308000E941406812F0E9414068D2F0E94140644
S11308108C2F0E9414060E942106DF91CF911F9114
S113082008950E941F0680EC0E9414060E9421066F
S11308300895CF93C82F0E941F0683E00E941406D8
S11308408C2F0E9414060E941806C82F0E942106AD
S11308508C2FCF910895CF93DF931F92CDB7DEB73E
S11308600E940C060E9411048EE00E9419048983E0
S11308708981807E8038C1F084EA91E00E94A50AD3
S113088040E860EE8FE00E94F7030E9411042FEF0E
S11308908FEF9EE0215080409040E1F700C00000BF
S11308A08981807E803841F70F90DF91CF91089540
S11308B028E0829FC0011124FC01E059F04080E04F
S11308C09491A0910A01B0910B019C938F5F319692
S11308D08830B1F7089590EB980FE0910C01F091F6
S11308E00D0190838093590480E18A95F1F700C04B
S11308F0089580E890E0E0910A01F0910B011082E4
S113090001970097C1F70895CF93DF93C0E0D0E03B
S1130910CE010E946B040E94790483ED90E3019759
S1130920F1F700C000002196C830D10589F7DF91A6
S1130930CF910895CF93DF93EB010E946B04C031F4
S1130940D105E8F48C2F880F880F880F80935A0400
S1130950E0910C01F0910D01CC0FDD1FCC0FDD1FD8
S1130960CC0FDD1FD295C295CF70CD27DF70CD2778
S1130970C083E0910C01F0910D01C05FC083DF9151
S1130980CF910895CF93DF93CDB7DEB7FE013596AF
S113099061917191AF018EE091E00E94D20ADF91E2
S11309A0CF910895E0910C01F0910D018EEA8083BE
S11309B0E0910C01F0910D0181EA8083E0910C013A
S11309C0F0910D018AED8083E0910C01F0910D010D
S11309D082E18083E0910C01F0910D0188EC808329
S11309E0E0910C01F0910D0188EA8083E0910C0103
S11309F0F0910D018FE38083E0910C01F0910D01E2
S1130A0085ED8083E0910C01F0910D0180E88083F5
S1130A10E0910C01F0910D0181E88083E0910C01DB
S1130A20F0910D0180E58083E0910C01F0910D01BE
S1130A3089ED8083E0910C01F0910D0181E28083C6
S1130A40E0910C01F0910D0180E28083E0910C01B2
S1130A50F0910D0182E08083E0910C01F0910D0191
S1130A608BED8083E0910C01F0910D0180E3808394
S1130A70E0910C01F0910D018DEA8083E0910C016D
S1130A80F0910D011082E0910C01F0910D0184EAC6
S1130A908083E0910C01F0910D0186EA8083E0915E
S1130AA00C01F0910D018FEA80830E94840463E0BD
S1130AB070E082E090E00E949A048EEC91E09F93B3
S1130AC08F930E94C20467E070E083E090E00E948C
S1130AD09A0485ED91E09F938F930E94C20469E08C
S1130AE070E084E090E00E949A0489ED91E09F9385
S1130AF08F930E94C2042FEF80E792E02150804040
S1130B009040E1F700C000000E9484040F900F9011
S1130B100F900F900F900F900895809154040895B2
S1130B208093540470E090E00E949A04E0910A01DA
S1130B30F0910B0188E18083E0910A01F0910B01AF
S1130B408083E0910A01F0910B019EE79083E0918C
S1130B500A01F0910B019CE39083E0910A01F0916A
S1130B600B018083089570E090E00E949A04E09164
S1130B700A01F0910B011082E0910A01F0910B013E
S1130B801082E0910A01F0910B011082E0910A01B8
S1130B90F0910B011082E0910A01F0910B01108297
S1130BA008959923A4F4E09154042E2F30E02417DF
S1130BB0350768F460E08E2F0E94B30580915404D9
S1130BC08F5F8093540460E00E9490050895181686
S1130BD0190694F480915404282F30E062177307A7
S1130BE058F460E00E94B3058091540481508093CE
S1130BF0540460E00E94900508950E94D1052FE9F5
S1130C0086E891E0215080409040E1F700C0000068
S1130C108091540490E0089587B3806B87BBBE989D
S1130C208DB181658DB908958FB9779BFECF0895F5
S1130C308FEF0E941406779BFECF8FB10895C4985E
S1130C400895C49A0895CF92DF92EF92FF920F9382
S1130C501F93CF93DF930E94840462E070E083E0EB
S1130C6090E00E949A048FED91E09F938F930E94ED
S1130C70C2048CEE91E00E94A50A0E94810A6C01D4
S1130C800E94860A0F900F90C0E0D0E000E010E0D0
S1130C900F2EF3E0EF2EF2E0FF2EF02D0E94810ADA
S1130CA0FE01F85E808320812817A9F099279F937D
S1130CB08F931F922F93DF93CF93FF92EF920E9413
S1130CC0910A0F5F1F4F8DB79EB708960FB6F89421
S1130CD09EBF0FBE8DBF2196C11598E0D907F1F6CE
S1130CE0C6010E94860AC0E0D0E0E12CF12C0F2E50
S1130CF0FCE3CF2EF2E0DF2EF02D0E94810AFE01EC
S1130D00F85E20812817B1F099279F938F931F9243
S1130D102F93DF93CF93DF92CF920E94910A9FEF9C
S1130D20E91AF90A8DB79EB708960FB6F8949EBFD4
S1130D300FBE8DBF2196C11598E0D907F1F6E114D5
S1130D40F10419F40115110571F160E070E085E01A
S1130D5090E00E949A04FF92EF9289E792E09F93B9
S1130D608F930E94C20460E070E086E090E00E94ED
S1130D709A041F930F9388E892E09F938F930E94A5
S1130D80C2042FEF8FEF9BE3215080409040E1F7A6
S1130D9000C000008DB79EB708960FB6F8949EBFAA
S1130DA00FBE8DBF0EC064E070E086E090E00E944C
S1130DB09A0487E992E09F938F930E94C2040F9054
S1130DC00F90FF92EF921F930F9381EA92E09F930B
S1130DD08F930E94910A0F900F900F900F900F9095
S1130DE00F90DF91CF911F910F91FF90EF90DF90C3
S1130DF0CF90089580E885BF8FEF8ABB0E942306B9
S1130E0008955D9BFECF8CB908955F9BFECF8CB196
S1130E1090E0089589B988E18AB98CE191E09093D2
S1130E206204809361049093600480935F04089546
S1130E308FE190E00E940A078AEF92E00E94A50ADF
S1130E400E94FA060E9478030E94D2040E94D301F1
S1130E5084E093E00E94A50A0E9401030E948C078B
S1130E600E9438080E94DE08F9CFDF92EF92FF92C9
S1130E700F931F93CF93DF937C018B01D42E89E0D2
S1130E8090E00E940C09EC01FE82ED8218870F832A
S1130E90D8824D2D50E0CA01880F991F880F991FE1
S1130EA0880F991F840F951F0E940C099A838983C8
S1130EB0CE01DF91CF911F910F91FF90EF90DF90C2
S1130EC008951F93CF93DF93EC018881882301F168
S1130ED010E0812F90E0880F991FE981FA81E80FD3
S1130EE0F91F0190F081E02DD483C38329813A81D5
S1130EF0F901E80FF91F0190F081E02D808188232A
S1130F0019F0CF010E9461071F5F8881181708F349
S1130F10DF91CF911F9108950F931F93CF93DF9388
S1130F2043E060E070E082E193E00E943507EC0169
S1130F301C821B8209811A8140E063E276E087E12A
S1130F4093E00E943507F8019183808309811A8117
S1130F5040E063E276E081E293E00E943507F80125
S1130F609383828309811A8142E060E070E087E222
S1130F7093E00E943507F80195838483E981FA811F
S1130F800480F581E02D0181128140E06EED78E06E
S1130F9086E393E00E943507F80191838083E98119
S1130FA0FA810480F581E02D0181128140E061E045
S1130FB073E082E493E00E943507F801938382830F
S1130FC0CE010E946107CE01DF91CF911F910F9155
S1130FD00895EF92FF920F931F93CF93DF937C01B9
S1130FE00E94840460E080912A010E94900560E0E0
S1130FF070E080E090E00E949A04D70116968C91EC
S113100016978F9315968C918F930E94C2040F901C
S11310100F90F7018081882321F100E010E0C0E007
S1131020D0E0219662E070E0CE010E949A04D701DC
S11310301196ED91FC911297E00FF11F0190F08150
S1131040E02D86818F9385818F930E94C2040E5F69
S11310501F4FF701808190E00F900F90C817D907B8
S113106000F3DF91CF911F910F91FF90EF900895BE
S11310708C010E94E9070E94A903892B71F0D80111
S1131080CC91D0E00E94A903AE0161E070E00E941F
S1131090FD0590932B0180932A010E94BE03892BA6
S11310A051F30E94BE03019709F06BC0F801C1819E
S11310B0D2810E948D0590E081509048880F991F3D
S11310C0C80FD91FE881F9818081882351F1D801A3
S11310D01196CD91DC9112970E948D0590E081507C
S11310E09048880F991FC80FD91F08811981D8010A
S11310F01196ED91FC9112970190F081E02D86817B
S11311008F9385818F930E94910A81E090E0909360
S11311102B0180932A01C8010E94E9070F900F90C8
S113112043C0F801C181D2810E948D0590E08150B5
S11311309048880F991FC80FD91FE881F9818781CA
S11311409085892B89F1D8011196CD91DC91129764
S11311500E948D0590E081509048880F991FC80F18
S1131160D91FE881F9810780F085E02D099581E098
S113117090E090932B0180932A01C8010E94E90713
S113118013C00E94BE03019679F4F801C381D4818F
S1131190209751F081E090E090932B0180932A01F5
S11311A0CE010E94E9078E01FFE926E881E0F150B3
S11311B020408040E1F700C000005DCF0E9484041D
S11311C063E070E082E090E00E949A048FE493E090
S11311D09F938F930E94C20464E070E084E090E0E7
S11311E00E949A0488E593E09F938F930E94C2041F
S11311F00F900F900F900F9084E190E0C09AE0E080
S1131200F0EF3197F1F7C098E0E0F0EF3197F1F7A4
S11312100197009799F70895CF93DF938230910552
S113122010F482E090E0E0915D04F0915E0420E02F
S113123030E0A0E0B0E0309739F1408151814817A7
S11312405907B8F04817590771F4828193811097B0
S113125029F013969C938E9312972CC090935E045E
S113126080935D0427C02115310531F042175307DF
S113127018F0A901DB0101C0EF019A01BD01DF01F2
S11312800280F381E02DD7CF21153105F9F0281B19
S1131290390B2430310580F48A819B8161157105F5
S11312A021F0FB019383828304C090935E048093B6
S11312B05D04FE01329644C0FE01E20FF31F8193E8
S11312C0919322503109398328833AC020915B04D9
S11312D030915C04232B41F42091020130910301ED
S11312E030935C0420935B04209100013091010150
S11312F02115310541F42DB73EB7409104015091B9
S11313000501241B350BE0915B04F0915C04E217AA
S1131310F307A0F42E1B3F0B2817390778F0AC0114
S11313204E5F5F4F2417350748F04E0F5F1F5093F1
S11313305C0440935B048193919302C0E0E0F0E08D
S1131340CF01DF91CF910895CF93DF93009709F4F4
S113135087C0FC01329713821282C0915D04D09140
S11313605E04209781F420813181280F391F8091F8
S11313705B0490915C048217930779F5F0935C0405
S1131380E0935B046DC0DE0120E030E0AE17BF07E0
S113139050F412964D915C9113979D01411551059E
S11313A009F1DA01F3CFB383A28340815181840F21
S11313B0951F8A179B0771F48D919C911197840F47
S11313C0951F02969183808312968D919C91139719
S11313D0938382832115310529F4F0935E04E0930D
S11313E05D043EC0D9011396FC93EE9312974D9180
S11313F05D91A40FB51FEA17FB0779F480819181F1
S1131400840F951F0296D90111969C938E93828125
S1131410938113969C938E931297E0E0F0E08A8177
S11314209B81009719F0FE01EC01F9CFCE010296E1
S113143028813981820F931F20915B0430915C04D1
S11314402817390769F4309729F410925E04109232
S11314505D0402C013821282D0935C04C0935B04C7
S1131460DF91CF9108958F929F92AF92BF92CF92C6
S1131470DF92EF92FF92CF93DF93EC016881798141
S11314808A819B81611571058105910521F464E2CE
S113149079ED8BE597E02DE133EF41E050E00E94D8
S11314A04A0D49015A019B01AC01A7EAB1E40E942B
S11314B0690D6B017C01ACEEB4EFA50194010E94AF
S11314C0770DC60ED71EE81EF91EF7FE06C081E092
S11314D0C81AD108E10880E8F80AC882D982EA82E9
S11314E0FB82C6019F77DF91CF91FF90EF90DF9051
S11314F0CF90BF90AF909F908F9008950E94330A31
S1131500089586E091E00E94330A0895A0E0B0E0D7
S11315108093060190930701A0930801B0930901F9
S11315200895A0E0B0E0E7E9FAE00C948C0DFE0128
S1131530359661917191AF0180916104909162043B
S11315400E94D20AE2E00C94A80D0F931F93CF934C
S1131550DF93E0916104F0916204238121FF1BC0B9
S1131560EC0100E010E089916091610470916204E3
S1131570DB011896ED91FC911997882331F00995B8
S1131580892B89F30FEF1FEFEECF8AE00995892BA2
S113159011F4C80102C08FEF9FEFDF91CF911F912B
S11315A00F910895ACE0B0E0E8EDFAE00C947C0D06
S11315B07C016B018A01FC0117821682838181FF01
S11315C0BDC1CE0101964C01F7019381F60193FD53
S11315D0859193FF81916F01882309F4ABC1853212
S11315E039F493FD859193FF81916F01853229F43C
S11315F0B70190E00E94BA0CE7CF512C312C20E0C7
S11316002032A0F48B3269F030F4803259F0833206
S113161069F420612CC08D3239F0803339F42160B3
S113162026C02260246023C0286021C027FD27C073
S113163030ED380F3A3078F426FF06C0FAE05F9EAA
S1131640300D1124532E13C08AE0389E300D11241E
S1131650332E20620CC08E3221F426FD6BC120642F
S113166006C08C3611F4206802C0883641F4F601B5
S113167093FD859193FF81916F018111C1CF982FC3
S11316809F7D9554933028F40C5F1F4FFFE3F9833B
S11316900DC0833631F0833771F0833509F05BC0B8
S11316A022C0F801808189830E5F1F4F4424439434
S11316B0512C540115C03801F2E06F0E711CF80171
S11316C0A080B18026FF03C0652D70E002C06FEFDB
S11316D07FEFC5012C870E94AF0C2C0183012C8560
S11316E02F77222E17C03801F2E06F0E711CF8011B
S11316F0A080B18026FF03C0652D70E002C06FEFAB
S11317007FEFC5012C870E94A40C2C012C85206836
S1131710222E830123FC1BC0832D90E0481659061A
S1131720B0F4B70180E290E00E94BA0C3A94F4CF8E
S1131730F50127FC859127FE81915F01B70190E0B7
S11317400E94BA0C31103A94F1E04F1A5108411436
S1131750510471F7E5C0843611F0893639F5F80182
S113176027FF07C060817181828193810C5F1F4FC5
S113177008C060817181882777FD8095982F0E5F5E
S11317801F4F2F76B22E97FF09C0909580957095C4
S113179061957F4F8F4F9F4F2068B22E2AE030E033
S11317A0A4010E94EC0CA82EA81844C0853729F483
S11317B02F7EB22E2AE030E025C0F22FF97FBF2E13
S11317C08F36C1F018F4883579F0B4C0803719F039
S11317D0883721F0AFC02F2F2061B22EB4FE0DC088
S11317E08B2D8460B82E09C024FF0AC09F2F9660F9
S11317F0B92E06C028E030E005C020E130E002C088
S113180020E132E0F801B7FE07C060817181828176
S113181093810C5F1F4F06C06081718180E090E06E
S11318200E5F1F4FA4010E94EC0CA82EA818FB2DDC
S1131830FF77BF2EB6FE0BC02B2D2E7FA51450F4C0
S1131840B4FE0AC0B2FC08C02B2D2E7E05C07A2C33
S11318502B2D03C07A2C01C0752C24FF0DC0FE0172
S1131860EA0DF11D8081803311F4297E09C022FF25
S113187006C07394739404C0822F867809F073941D
S113188023FD13C020FF06C05A2C731418F4530C04
S11318905718732C731468F4B70180E290E02C8716
S11318A00E94BA0C73942C85F5CF731410F4371876
S11318B001C0312C24FF12C0B70180E390E02C87D3
S11318C00E94BA0C2C8522FF17C021FF03C088E5B3
S11318D090E002C088E790E0B7010CC0822F8678C0
S11318E059F021FD02C080E201C08BE227FD8DE2A8
S11318F0B70190E00E94BA0CA51438F4B70180E354
S113190090E00E94BA0C5A94F7CFAA94F401EA0D1D
S1131910F11D8081B70190E00E94BA0CA110F5CFAF
S1131920332009F451CEB70180E290E00E94BA0C52
S11319303A94F6CFF7018681978102C08FEF9FEF2B
S11319402C96E2E10C94980DFC01059061507040D6
S11319500110D8F7809590958E0F9F1F0895FC0174
S11319606150704001900110D8F7809590958E0FCA
S11319709F1F08950F931F93CF93DF93182F092F61
S1131980EB018B8181FD03C08FEF9FEF20C082FFAD
S113199010C04E815F812C813D81421753077CF436
S11319A0E881F9819F012F5F3F4F3983288310839A
S11319B006C0E885F985812F0995892B29F72E81A1
S11319C03F812F5F3F4F3F832E83812F902FDF91E5
S11319D0CF911F910F910895FA01AA27283051F150
S11319E0203181F1E8946F936E7F6E5F7F4F8F4F4C
S11319F09F4FAF4FB1E03ED0B4E03CD0670F781FAB
S1131A00891F9A1FA11D680F791F8A1F911DA11D8F
S1131A106A0F711D811D911DA11D20D009F46894C8
S1131A203F912AE0269F11243019305D3193DEF670
S1131A30CF010895462F4770405D4193B3E00FD026
S1131A40C9F7F6CF462F4F70405D4A3318F0495D11
S1131A5031FD4052419302D0A9F7EACFB4E0A695F4
S1131A609795879577956795BA95C9F70097610516
S1131A70710508959B01AC010A2E0694579547956C
S1131A8037952795BA95C9F7620F731F841F951F61
S1131A90A01D0895052E97FB1EF400940E94610D6D
S1131AA057FD07D00E94B30D07FC03D04EF40C94ED
S1131AB0610D50954095309521953F4F4F4F5F4FA5
S1131AC0089590958095709561957F4F8F4F9F4FA6
S1131AD008950E94D50DA59F900DB49F900DA49FCD
S1131AE0800D911D11240895B7FF0C94690D0E9477
S1131AF0690D821B930B08952F923F924F925F9230
S1131B006F927F928F929F92AF92BF92CF92DF9209
S1131B10EF92FF920F931F93CF93DF93CDB7DEB76E
S1131B20CA1BDB0B0FB6F894DEBF0FBECDBF099402
S1131B302A88398848885F846E847D848C849B8459
S1131B40AA84B984C884DF80EE80FD800C811B8167
S1131B50AA81B981CE0FD11D0FB6F894DEBF0FBE96
S1131B60CDBFED010895A1E21A2EAA1BBB1BFD01F6
S1131B700DC0AA1FBB1FEE1FFF1FA217B307E40768
S1131B80F50720F0A21BB30BE40BF50B661F771FC0
S1131B90881F991F1A9469F76095709580959095A0
S1131BA09B01AC01BD01CF010895A29FB001B39F79
S1131BB0C001A39F700D811D1124911DB29F700D52
S10F1BC0811D1124911D0895F894FFCF9D
S1131BCC0000650420000100000000120010000059
S1131BDC0002000000005804000000000000000394
S1131BEC0000000001070507000001004D65737338
S1131BFC616765202869643A2025642C206C656E25
S1131C0C6768743A2025642C2064617461203D203B
S1131C1C5B00256420005D004D43505F43414E43FF
S1131C2C54524C3A20307825303278202873686F1F
S1131C3C756C642062652030783437290A004D4372
S1131C4C505F43414E535441543A2030782530323E
S1131C5C78202873686F756C642062652030783442
S1131C6C30290A004D435032353135206973206ECA
S1131C7C6F7420696E20636F6E666967206D6F6484
S1131C8C6520616674657220726573657400202327
S1131C9C535741470020203400204C5946450054EA
S1131CAC455354494E47205352414D000A537461D5
S1131CBC7274696E67205352414D20746573742E8F
S1131CCC2E2E0057726974652070686173652065E7
S1131CDC72726F723A206578745F72616D5B253431
S1131CEC645D203D2025303258202873686F756C54
S1131CFC642062652025303258290A0052657472BA
S1131D0C696576616C207068617365206572726FA9
S1131D1C723A206578745F72616D5B2534645D2062
S1131D2C3D2025303258202873686F756C6420620E
S1131D3C652025303258290A0052204552524F5200
S1131D4C533A20202534640057204552524F5253A5
S1131D5C3A2020253464004E4F204552524F5253A2
S1131D6C005352414D207465737420636F6D706C15
S1131D7C657465642077697468200A253464206569
S1131D8C72726F727320696E207772697465207039
S1131D9C6861736520616E64200A25346420657261
S1131DAC726F727320696E207265747269657661E4
S1131DBC6C2070686173650A0A000A5245424F4FE1
S1131DCC54454400416C6C20696E697420646F6ED8
S1131DDC65004D61696E00506C61792067616D65B9
S1131DEC00536E616B6500546573742066756E6385
S1131DFC74696F6E7300466C6173682064696F64F8
S1131E0C650043414E206C6F6F706261636B0046DA
S1131E1C4C415348494E470044494F4445000A5BE2
S1131E2C726F6F7440736B796E65745D233A002521
S1131E3C73002025730A0044494F44455F7465734D
S1131E4C740074657374696E672064696F64652EBD
S1131E5C2E2E00646F6E652074657374696E672032
S1131E6C64696F6465005352414D5F74657374000B
S1131E7C4144435F74657374004A6F797374696386
S1131E8C6B20782D706F733A20253030336920091C
S1131E9C4A6F79737469636B20792D706F733A2070
S1131EAC253030336920094C65667420736C696481
S1131EBC65723A202530303364200952696768749E
S1131ECC20736C696465723A202530303364200ABF
S1131EDC004F4C45445F74657374006F6C65645FAC
S1131EEC696E697428293A20646F6E65004D454EFD
S1131EFC555F7465737400636C65617200756E6B09
S1131F0C6E6F776E20636F6D6D616E642022257326
S1071F1C220A000091
S9030000FC
