S016000050696E675F506F6E675F536869742E7372656396
S11300000C94B4010C94D1010C94D1010C94D10141
S11300100C94D1010C94D1010C94D1010C94D10114
S11300200C94D1010C94D1010C94D1010C94D10104
S11300300C94D1010C94D1010C94D1010C94D101F4
S11300400C94D1010C94D1010C94D1010C94D101E4
S11300500C94D1010C94D1010C94D1010C94D101D4
S11300600C94D1010C94D1010C94D1010C94D101C4
S1130070000000000000000000065F5F06000000B2
S11300800007070007070000147F7F147F7F140018
S1130090242E6B6B3A120000466630180C66620020
S11300A0307A4F5D377A48000407030000000000EF
S11300B0001C3E63410000000041633E1C00000040
S11300C0082A3E1C1C3E2A0808083E3E0808000078
S11300D000A0E0600000000008080808080800000C
S11300E000006060000000006030180C060301008E
S11300F03E7F594D7F3E000042427F7F40400000DA
S1130100627359496F660000226349497F360000D3
S1130110181C16137F7F1000276745457D390000A2
S11301203C7E4B4979300000036371190F070000CE
S1130130367F49497F360000064F49693F1E00005B
S113014000006C6C0000000000A0EC6C00000000DB
S1130150081C366341000000141414141414000025
S1130160004163361C080000020351590F060000C9
S11301703E7F415D5D1F1E007C7E13137E7C00006C
S1130180417F7F49497F36001C3E63414163220021
S1130190417F7F41637F1C00417F7F495D41630054
S11301A0417F7F491D0103001C3E6341517372006E
S11301B07F7F08087F7F000000417F7F41000000AF
S11301C0307040417F3F0100417F7F081C7763000E
S11301D0417F7F41406070007F7F060C067F7F0077
S11301E07F7F060C187F7F001C3E6341633E1C002A
S11301F0417F7F49090F06001E3F21717F5E000089
S1130200417F7F19396F460026674D597B320000C4
S113021003417F7F410300007F7F40407F7F0000D8
S11302201F3F60603F1F00007F7F3018307F7F00DA
S113023063771C081C776300074F78784F0700002A
S11302406773594D47637100007F7F41410000008F
S11302500103060C183060000041417F7F0000005C
S1130260080C0603060C0800808080808080808053
S11302700000030704000000207454543C7840003C
S1130280413F7F44447C3800387C44446C2800005F
S1130290307848493F7F4000387C54545C18000053
S11302A0487E7F490302000098BCA4A4F87C0400A3
S11302B0417F7F08047C780000447D7D400000007D
S11302C040C484FD7D000000417F7F10386C4400F1
S11302D000417F7F400000007C7C0C180C7C78007F
S11302E07C7C04047C780000387C44447C38000026
S11302F084FCF8A4243C1800183C24A4F8FC8400D2
S1130300447C78441C180000485C54547424000055
S113031000043E7F442400003C7C40403C7C400080
S11303201C3C60603C1C00003C7C6030607C3C00F9
S1130330446C3810386C44009CBCA0A0FC7C0000C9
S11303404C64745C4C64000008083E774141000032
S113035000000077770000004141773E0808000064
S1130360020301030203010011241FBECFEFD4E0F6
S1130370DEBFCDBF12E0A0E0B1E0ECE4F6E102C0E4
S113038005900D92A235B107D9F722E0A2E5B2E0BB
S113039001C01D92A336B207E1F70E9439020C9402
S11303A0240B0C9400008C5F8093001481E48A95E4
S11303B0F1F700C08091001490E0089580E00E945D
S11303C0D301909354028093530281E00E94D3019D
S11303D090935602809355020895CF93C82F0E949C
S11303E0D301C11107C02091530230915402821BE2
S11303F0930B08C0C13031F420915502309156025C
S1130400821B930B80382FEF920714F480E89FEF40
S11304108038910514F08FE790E0CF91089581E042
S11304200E94ED018436910564F421E030E08D39B9
S11304309F4F14F020E030E088279927821B930B0C
S1130440089581E090E0089580E00E94ED018436F3
S1130450910564F421E030E08D399F4F14F020E0E1
S113046030E088279927821B930B089581E090E060
S113047008958FE190E00E943E068AE291E00E9496
S1130480E5070E9422060E94DE010E946C040E947D
S1130490A5020E945E030E942906F9CFDF92EF9223
S11304A0FF920F931F93CF93DF937C018B01D42E84
S11304B089E090E00E944C06EC01FE82ED821887F0
S11304C00F83D8824D2D50E0CA01880F991F880FE1
S11304D0991F880F991F840F951F0E944C069A83B9
S11304E08983CE01DF91CF911F910F91FF90EF90FF
S11304F0DF9008951F93CF93DF93EC0188818823C5
S113050001F110E0812F90E0880F991FE981FA81B1
S1130510E80FF91F0190F081E02DD483C383298172
S11305203A81F901E80FF91F0190F081E02D8081F3
S1130530882319F0CF010E947A021F5F888118175F
S113054008F3DF91CF911F9108950F931F93CF93D9
S1130550DF9344E060E070E084E391E00E944E02A7
S1130560EC011C821B8209811A8140E06DE975E06F
S113057089E391E00E944E02F8019183808309810E
S11305801A8142E06DE975E08FE391E00E944E022A
S1130590F8019383828309811A8140E06DE975E053
S11305A085E491E00E944E02F801958384830981D9
S11305B01A8141E060E070E08BE491E00E944E0219
S11305C0F80197838683E981FA810680F781E02D1B
S11305D00181128140E06DE975E081E591E00E94BE
S11305E04E02F80191838083CE010E947A02CE01EB
S11305F0DF91CF911F910F910895EF92FF920F9386
S11306001F93CF93DF937C010E941E0460E081E07E
S11306100E94240560E070E080E090E00E943404D1
S1130620D70116968C9116978F9315968C918F936C
S11306300E945C04F701858196810E94E5070F9072
S11306400F90D7018C91882391F1C0E0D0E000E0B5
S113065010E00F5F1F4F62E070E0C8010E94340495
S1130660D7011196ED91FC911297EC0FFD1F0190AB
S1130670F081E02D86818F9385818F930E945C04A5
S1130680D7011196ED91FC911297EC0FFD1F01908B
S1130690F081E02D858196810E94E5072296F7017D
S11306A0808190E00F900F900817190790F2DF9166
S11306B0CF911F910F91FF90EF9008958C010E94AC
S11306C0FD0260E081E00E9424050E940F02892B54
S11306D051F0D801CC91D0E00E940F02AE0161E04C
S11306E070E00E9491050E942402892B71F30E94FC
S11306F02402019709F05FC0F801C181D2810E94F0
S1130700210590E081509048880F991FC80FD91F88
S1130710E881F9818081882321F1D8011196CD9156
S1130720DC9112970E94210590E081509048880F37
S1130730991FC80FD91F08811981D8011196ED910D
S1130740FC9112970190F081E02D86818F93858131
S11307508F930E94D107C8010E94FD020F900F9051
S113076037C0F801C181D2810E94210590E08150F7
S11307709048880F991FC80FD91FE881F981878194
S11307809085892B29F1D8011196CD91DC9112978E
S11307900E94210590E081509048880F991FC80F4E
S11307A0D91FE881F9810780F085E02D0995C801FA
S11307B00E94FD020DC00E942402019649F4F80132
S11307C0C381D481209721F0CE010E94FD028E01C5
S11307D0FFE926E881E0F15020408040E1F700C0C5
S11307E0000073CF28E0829FC0011124FC01E0596E
S11307F0F04080E09491A0910A01B0910B019C9388
S11308008F5F31968830B1F7089590EB980FE0919F
S11308100C01F0910D0190838093570280E18A9539
S1130820F1F700C0089580E890E0E0910A01F091AA
S11308300B01108201970097C1F70895CF93DF93BE
S1130840C0E0D0E0CE010E9405040E94130483EDB1
S113085090E30197F1F700C000002196C830D1055C
S113086089F7DF91CF910895CF93DF93EB010E9435
S11308700504C031D105E8F48C2F880F880F880F48
S113088080935802E0910C01F0910D01CC0FDD1F13
S1130890CC0FDD1FCC0FDD1FD295C295CF70CD27B5
S11308A0DF70CD27C083E0910C01F0910D01C05F92
S11308B0C083DF91CF910895CF93DF93CDB7DEB797
S11308C0FE01359661917191AF018EE091E00E9435
S11308D01208DF91CF910895E0910C01F0910D0180
S11308E08EEA8083E0910C01F0910D0181EA80830E
S11308F0E0910C01F0910D018AED8083E0910C01EF
S1130900F0910D0182E18083E0910C01F0910D01E1
S113091088EC8083E0910C01F0910D0188EA8083DA
S1130920E0910C01F0910D018FE38083E0910C01C3
S1130930F0910D0185ED8083E0910C01F0910D01A2
S113094080E88083E0910C01F0910D0181E88083BF
S1130950E0910C01F0910D0180E58083E0910C01A0
S1130960F0910D0189ED8083E0910C01F0910D016E
S113097081E28083E0910C01F0910D0180E280839B
S1130980E0910C01F0910D0182E08083E0910C0173
S1130990F0910D018BED8083E0910C01F0910D013C
S11309A080E38083E0910C01F0910D018DEA808356
S11309B0E0910C01F0910D011082E0910C01F09195
S11309C00D0184EA8083E0910C01F0910D0186EA27
S11309D08083E0910C01F0910D018FEA80830E94E5
S11309E01E0482E090E00E9405048AE591E09F9352
S11309F08F930E945C0483E090E00E94050481E6EA
S1130A0091E09F938F930E945C0484E090E00E94A5
S1130A10050485E691E09F938F930E945C042FEB7D
S1130A2087E299E0215080409040E1F700C0000047
S1130A300E941E040F900F900F900F900F900F9034
S1130A4008958091520208958093520270E090E0DC
S1130A500E943404E0910A01F0910B0188E1808343
S1130A60E0910A01F0910B018083E0910A01F09179
S1130A700B019EE79083E0910A01F0910B019CE346
S1130A809083E0910A01F0910B018083089570E056
S1130A9090E00E943404E0910A01F0910B0110826D
S1130AA0E0910A01F0910B011082E0910A01F091AA
S1130AB00B011082E0910A01F0910B011082E09188
S1130AC00A01F0910B01108208959923A4F4E09196
S1130AD052022E2F30E02417350768F460E08E2F81
S1130AE00E944705809152028F5F8093520260E01A
S1130AF00E94240508951816190694F48091520250
S1130B00282F30E06217730758F460E00E9447050D
S1130B108091520281508093520260E00E94240529
S1130B2008950E9465052FE986E891E021508040F0
S1130B309040E1F700C000000895CF92DF92EF9259
S1130B40FF920F931F93CF93DF938BE691E00E9464
S1130B50E5070E94C1076C010E94C607C0E0D0E00F
S1130B6000E010E00F2EF2E8EF2EF1E0FF2EF02D62
S1130B700E94C107FE01F85E808320812817A9F036
S1130B8099279F938F931F922F93DF93CF93FF9275
S1130B90EF920E94D1070F5F1F4F8DB79EB7089643
S1130BA00FB6F8949EBF0FBE8DBF2196C11598E075
S1130BB0D907F1F6C6010E94C607C0E0D0E0E12CD7
S1130BC0F12C0F2EFBEBCF2EF1E0DF2EF02D0E9447
S1130BD0C107FE01F85E20812817B1F099279F9381
S1130BE08F931F922F93DF93CF93DF92CF920E9424
S1130BF0D1078FEFE81AF80A8DB79EB708960FB69B
S1130C00F8949EBF0FBE8DBF2196C11598E0D907F9
S1130C10F1F6FF92EF921F930F9388EF91E09F9369
S1130C208F930E94D1070F900F900F900F900F9009
S1130C300F90DF91CF911F910F91FF90EF90DF9074
S1130C40CF90089580E885BF8FEF8ABB0E949D05F1
S1130C5008958FEF88BB80E090EF0197F1F718BA01
S1130C6080E090EF0197F1F708955D9BFECF8CB97A
S1130C7008955F9BFECF8CB190E0089589B988E117
S1130C808AB98CE191E09093600280935F02909323
S1130C905E0280935D020895CF93DF9382309105C5
S1130CA010F482E090E0E0915B02F0915C0220E0BD
S1130CB030E0A0E0B0E0309739F14081518148172D
S1130CC05907B8F04817590771F482819381109736
S1130CD029F013969C938E9312972CC090935C02E8
S1130CE080935B0227C02115310531F04217530769
S1130CF018F0A901DB0101C0EF019A01BD01DF0178
S1130D000280F381E02DD7CF21153105F9F0281B9E
S1130D10390B2430310580F48A819B81611571057A
S1130D2021F0FB019383828304C090935C0280933F
S1130D305B02FE01329644C0FE01E20FF31F819371
S1130D40919322503109398328833AC02091590262
S1130D5030915A02232B41F4209102013091030176
S1130D6030935A02209359022091000130910101DD
S1130D702115310541F42DB73EB74091040150913E
S1130D800501241B350BE0915902F0915A02E21738
S1130D90F307A0F42E1B3F0B2817390778F0AC019A
S1130DA04E5F5F4F2417350748F04E0F5F1F509377
S1130DB05A02409359028193919302C0E0E0F0E01B
S1130DC0CF01DF91CF910895CF93DF93009709F47A
S1130DD087C0FC01329713821282C0915B02D091CA
S1130DE05C02209781F420813181280F391F809182
S1130DF0590290915A028217930779F5F0935A0297
S1130E00E09359026DC0DE0120E030E0AE17BF0769
S1130E1050F412964D915C9113979D014115510523
S1130E2009F1DA01F3CFB383A28340815181840FA6
S1130E30951F8A179B0771F48D919C911197840FCC
S1130E40951F02969183808312968D919C9113979E
S1130E50938382832115310529F4F0935C02E09396
S1130E605B023EC0D9011396FC93EE9312974D9109
S1130E705D91A40FB51FEA17FB0779F48081918176
S1130E80840F951F0296D90111969C938E938281AB
S1130E90938113969C938E931297E0E0F0E08A81FD
S1130EA09B81009719F0FE01EC01F9CFCE01029667
S1130EB028813981820F931F2091590230915A025F
S1130EC02817390769F4309729F410925C021092BC
S1130ED05B0202C013821282D0935A02C093590259
S1130EE0DF91CF9108958F929F92AF92BF92CF924C
S1130EF0DF92EF92FF92CF93DF93EC0168817981C7
S1130F008A819B81611571058105910521F464E253
S1130F1079ED8BE597E02DE133EF41E050E00E945D
S1130F208A0A49015A019B01AC01A7EAB1E40E9473
S1130F30A90A6B017C01ACEEB4EFA50194010E94F7
S1130F40B70AC60ED71EE81EF91EF7FE06C081E0DA
S1130F50C81AD108E10880E8F80AC882D982EA826E
S1130F60FB82C6019F77DF91CF91FF90EF90DF90D6
S1130F70CF90BF90AF909F908F9008950E94730779
S1130F80089586E091E00E9473070895A0E0B0E020
S1130F908093060190930701A0930801B09309017F
S1130FA00895A0E0B0E0E7EDF7E00C94CC0AFE0170
S1130FB0359661917191AF0180915F0290916002C9
S1130FC00E941208E2E00C94E80A0F931F93CF9357
S1130FD0DF93E0915F02F0916002238121FF1BC047
S1130FE0EC0100E010E0899160915F027091600271
S1130FF0DB011896ED91FC911997882331F009953E
S1131000892B89F30FEF1FEFEECF8AE00995892B27
S113101011F4C80102C08FEF9FEFDF91CF911F91B0
S11310200F910895ACE0B0E0E8E1F8E00C94BC0A5C
S11310307C016B018A01FC0117821682838181FF86
S1131040BDC1CE0101964C01F7019381F60193FDD8
S1131050859193FF81916F01882309F4ABC1853297
S113106039F493FD859193FF81916F01853229F4C1
S1131070B70190E00E94FA09E7CF512C312C20E00F
S11310802032A0F48B3269F030F4803259F083328C
S113109069F420612CC08D3239F0803339F4216039
S11310A026C02260246023C0286021C027FD27C0F9
S11310B030ED380F3A3078F426FF06C0FAE05F9E30
S11310C0300D1124532E13C08AE0389E300D1124A4
S11310D0332E20620CC08E3221F426FD6BC12064B5
S11310E006C08C3611F4206802C0883641F4F6013B
S11310F093FD859193FF81916F018111C1CF982F49
S11311009F7D9554933028F40C5F1F4FFFE3F983C0
S11311100DC0833631F0833771F0833509F05BC03D
S113112022C0F801808189830E5F1F4F44244394B9
S1131130512C540115C03801F2E06F0E711CF801F6
S1131140A080B18026FF03C0652D70E002C06FEF60
S11311507FEFC5012C870E94EF092C0183012C85A8
S11311602F77222E17C03801F2E06F0E711CF801A0
S1131170A080B18026FF03C0652D70E002C06FEF30
S11311807FEFC5012C870E94E4092C012C8520687F
S1131190222E830123FC1BC0832D90E048165906A0
S11311A0B0F4B70180E290E00E94FA093A94F4CFD7
S11311B0F50127FC859127FE81915F01B70190E03D
S11311C00E94FA0931103A94F1E04F1A510841147F
S11311D0510471F7E5C0843611F0893639F5F80108
S11311E027FF07C060817181828193810C5F1F4F4B
S11311F008C060817181882777FD8095982F0E5FE4
S11312001F4F2F76B22E97FF09C090958095709549
S113121061957F4F8F4F9F4F2068B22E2AE030E0B8
S1131220A4010E942C0AA82EA81844C0853729F4CA
S11312302F7EB22E2AE030E025C0F22FF97FBF2E98
S11312408F36C1F018F4883579F0B4C0803719F0BE
S1131250883721F0AFC02F2F2061B22EB4FE0DC00D
S11312608B2D8460B82E09C024FF0AC09F2F96607E
S1131270B92E06C028E030E005C020E130E002C00D
S113128020E132E0F801B7FE07C0608171818281FC
S113129093810C5F1F4F06C06081718180E090E0F4
S11312A00E5F1F4FA4010E942C0AA82EA818FB2D24
S11312B0FF77BF2EB6FE0BC02B2D2E7FA51450F446
S11312C0B4FE0AC0B2FC08C02B2D2E7E05C07A2CB9
S11312D02B2D03C07A2C01C0752C24FF0DC0FE01F8
S11312E0EA0DF11D8081803311F4297E09C022FFAB
S11312F006C07394739404C0822F867809F07394A3
S113130023FD13C020FF06C05A2C731418F4530C89
S11313105718732C731468F4B70180E290E02C879B
S11313200E94FA0973942C85F5CF731410F43718BE
S113133001C0312C24FF12C0B70180E390E02C8758
S11313400E94FA092C8522FF17C021FF03C088E5FB
S113135090E002C088E790E0B7010CC0822F867845
S113136059F021FD02C080E201C08BE227FD8DE22D
S1131370B70190E00E94FA09A51438F4B70180E39C
S113138090E00E94FA095A94F7CFAA94F401EA0D66
S1131390F11D8081B70190E00E94FA09A110F5CFF8
S11313A0332009F451CEB70180E290E00E94FA099B
S11313B03A94F6CFF7018681978102C08FEF9FEFB1
S11313C02C96E2E10C94D80AFC010590615070401F
S11313D00110D8F7809590958E0F9F1F0895FC01FA
S11313E06150704001900110D8F7809590958E0F50
S11313F09F1F08950F931F93CF93DF93182F092FE7
S1131400EB018B8181FD03C08FEF9FEF20C082FF32
S113141010C04E815F812C813D81421753077CF4BB
S1131420E881F9819F012F5F3F4F3983288310831F
S113143006C0E885F985812F0995892B29F72E8126
S11314403F812F5F3F4F3F832E83812F902FDF916A
S1131450CF911F910F910895FA01AA27283051F1D5
S1131460203181F1E8946F936E7F6E5F7F4F8F4FD1
S11314709F4FAF4FB1E03ED0B4E03CD0670F781F30
S1131480891F9A1FA11D680F791F8A1F911DA11D15
S11314906A0F711D811D911DA11D20D009F468944E
S11314A03F912AE0269F11243019305D3193DEF6F6
S11314B0CF010895462F4770405D4193B3E00FD0AC
S11314C0C9F7F6CF462F4F70405D4A3318F0495D97
S11314D031FD4052419302D0A9F7EACFB4E0A6957A
S11314E09795879577956795BA95C9F7009761059C
S11314F0710508959B01AC010A2E069457954795F2
S113150037952795BA95C9F7620F731F841F951FE6
S1131510A01D0895052E97FB1EF400940E94A10AB5
S113152057FD07D00E94F30A07FC03D04EF40C9435
S1131530A10A50954095309521953F4F4F4F5F4FED
S1131540089590958095709561957F4F8F4F9F4F2B
S113155008950E94150BA59F900DB49F900DA49F14
S1131560800D911D11240895B7FF0C94A90A0E94BF
S1131570A90A821B930B08952F923F924F925F9278
S11315806F927F928F929F92AF92BF92CF92DF928F
S1131590EF92FF920F931F93CF93DF93CDB7DEB7F4
S11315A0CA1BDB0B0FB6F894DEBF0FBECDBF099488
S11315B02A88398848885F846E847D848C849B84DF
S11315C0AA84B984C884DF80EE80FD800C811B81ED
S11315D0AA81B981CE0FD11D0FB6F894DEBF0FBE1C
S11315E0CDBFED010895A1E21A2EAA1BBB1BFD017C
S11315F00DC0AA1FBB1FEE1FFF1FA217B307E407EE
S1131600F50720F0A21BB30BE40BF50B661F771F45
S1131610881F991F1A9469F7609570958095909525
S11316209B01AC01BD01CF010895A29FB001B39FFE
S1131630C001A39F700D811D1124911DB29F700DD7
S10F1640811D1124911D0895F894FFCF22
S113164C00006302200001000000001200100000E2
S113165C000200000000F203000000000000000380
S113166C000000003506390600000A5245424F4F6F
S113167C544544004D61696E0054657374310054D3
S113168C6573743200546573743300546573743425
S113169C00537562746573743100202353574147AA
S11316AC0020203400204C594645000A53746172C2
S11316BC74696E67205352414D20746573742E2ED9
S11316CC2E005772697465207068617365206572A9
S11316DC726F723A206578745F72616D5B25346445
S11316EC5D203D2025303258202873686F756C645A
S11316FC2062652025303258290A005265747269BB
S113170C6576616C207068617365206572726F72A6
S113171C3A206578745F72616D5B2534645D203D9D
S113172C2025303258202873686F756C64206265EC
S113173C2025303258290A005352414D20746573C8
S113174C7420636F6D706C6574656420776974685C
S113175C200A253464206572726F727320696E20BE
S113176C777269746520706861736520616E64209A
S113177C0A253464206572726F727320696E20724C
S113178C657472696576616C2070686173650A0AA8
S105179C000047
S9030000FC
