S00D00004E6F6465322E737265635F
S113000043C10000AAC300005FC100005DC100003D
S11300105BC1000059C1000057C1000055C1000078
S113002053C1000051C100004FC100004DC1000088
S11300304BC1000049C1000047C1000045C1000098
S113004043C1000041C100003FC100003DC10000A8
S11300503BC1000039C1000037C1000035C10000B8
S113006033C1000031C100002FC100002DC10000C8
S11300702BC1000029C1000027C1000025C10000D8
S113008023C1000021C100001FC100001DC10000E8
S11300901BC1000019C1000017C1000037C60000D1
S11300A013C1000011C10000AFC400000DC1000065
S11300B00BC1000009C1000007C10000D0C5000049
S11300C003C1000001C10000FFC00000FDC000002A
S11300D0FBC00000F9C00000F7C00000F5C000003C
S11300E0F3C00000A106F306F306F306F306F306D5
S11300F0F306F306A106F306F306F306F306F30686
S1130100F306F306A306F306F306F306F306F30673
S1130110F306F306F306F306F306F306F306F30613
S1130120F306F306A306F306F306F306F306F30653
S1130130F306F306F306F306F306F306F306F306F3
S1130140F306F306EF06F306F306F306F306F306E7
S1130150F306F306CC06F306F306F306F306F306FA
S1130160F306F306F306F306F306F306F306F306C3
S1130170F306F306C006F306F306F306F306F306E6
S1130180F306F306DE066E616E00696E66000040DB
S11301907A10F35A00A0724E18090010A5D4E80092
S11301A000E87648170000E40B54020000CA9A3BAA
S11301B0000000E1F5050000809698000000404230
S11301C00F000000A08601000000102700000000BE
S11301D0E803000000006400000000000A000000C2
S11301E000000100000000002C76D888DC674F086E
S11301F023DFC1DFAE59E1B1B796E5E3E453C63A74
S1130200E651997696E8E6C28426EB898C9B62EDEA
S1130210407C6FFCEFBC9C9F40F2BAA56FA5F490A4
S1130220055A2AF75C936B6CF9676DC11BFCE0E41B
S11302300D47FEF520E6B500D0ED902E0300943571
S113024077050080841E080000204E0A000000C8C4
S11302500C333333330F986E12831141EF8D211415
S1130260893BE65516CFFEE6DB18D1844B381BF7E5
S11302707C1D901DA4BBE424203284725E22810084
S1130280C9F124ECA1E53D2711241FBECFEFD1E233
S1130290DEBFCDBF00E00CBF12E0A0E0B2E0E4E2BC
S11302A0FDE100E00BBF02C007900D92AE3EB10726
S11302B0D9F723E0AEEEB2E001C01D92A335B20738
S11302C0E1F787D40C94900E9BCE81E067D38CE445
S11302D050D32FEF87EA91E6215080409040E1F718
S11302E000C0000080E045D32FEF80E792E021506A
S11302F080409040E1F700C0000024D380E04ED35A
S113030086E437D32FEF87EA91E62150804090406E
S1130310E1F700C0000080E02CD32FEF80E792E0EB
S1130320215080409040E1F700C000004FD38093FB
S1130330390390933A039F938F938FE092E09F93B6
S11303408F930E94F40D0F900F900F900F900895CB
S113035081E080933F031092470310924803109268
S1130360490310924A0310924203AFDF60913903AC
S113037070913A0380E090E04ED660933B03709313
S11303803C0380933D0390933E03089520E2829FB3
S1130390C0011124909341038093400308954F9228
S11303A05F926F927F928F929F92AF92BF92CF9201
S11303B0DF92EF92FF92CF9309D3BC01882777FD98
S11303C08095982F2AD66B017C0160933B03709330
S11303D03C0380933D0390933E03609140037091EE
S11303E04103882777FD8095982F17D64B015C0130
S11303F09B01AC01C701B6010CD5DCD5882777FD7C
S11304008095982F0AD62B013C0120E030E04FE57F
S113041053E4B3D620E034E244E75BE463D520E060
S113042030E040E854E4A9D69B01AC016091470355
S1130430709148038091490390914A03EBD46093EF
S11304404703709348038093490390934A0326EA31
S11304503BE944EC5CE3C301B2018FD6B0D5C62FAF
S1130460693708F0C8E7A5019401C701B60136D57C
S113047088231CF480E092D202C081E08FD28C2FBA
S113048078D2CF91FF90EF90DF90CF90BF90AF9054
S11304909F908F907F906F905F904F900895EAE7C0
S11304A0F0E0808187688083ECE7F0E080818064FD
S11304B0808380818F7780830895837080648093A4
S11304C07C00EAE7F0E0808180648083808186FD9F
S11304D0FDCF8091780090917900089513D28FE038
S11304E004D21F928F938DE192E09F938F930E9489
S11304F0F40D4FEF60E680E6DFD140E064E080E693
S1130500DBD14FEF61E08BE2D7D140E060EE8FE0CA
S1130510D3D10F900F900F900F90089580E3E5D101
S113052086958695869591E08927817090E0089557
S11305301F93CF93DF93EC01F1DF892BE9F36881FB
S1130540798175956795759567957595679581E337
S113055097D168817981660F771F62957295707F54
S11305607627607F762782E38BD16A816F7085E37B
S113057087D18A81882361F010E0FE01E10FF11D2B
S1130580638186E3810F7CD11F5F8A811817A8F3EA
S113059081E085D1DF91CF911F9108959F92AF9211
S11305A0BF92CF92DF92EF92FF920F931F93CF935C
S11305B0DF93CDB7DEB72B970FB6F894DEBF0FBE2F
S11305C0CDBF7C018CE291D180FF30C081E68DD11A
S11305D0C82E82E68AD1829586958770D12CCC0C60
S11305E0DD1CCC0CDD1CCC0CDD1CC82A85E67DD1C1
S11305F08F70982EA1F08E010C5F1F4F0F2EF6E620
S1130600AF2EF02DA80E0F2EF6E6BF2EF02D8B2D5B
S11306106CD1F80181938F01B394BA10F8CF109282
S11306204C0340E061E08CE247D103C0CC24CA947F
S1130630DC2CDA82C9829B828BE0FE013196D701E1
S113064001900D928A95E1F7C7012B960FB6F894A5
S1130650DEBF0FBECDBFDF91CF911F910F91FF90F1
S1130660EF90DF90CF90BF90AF909F900895FF924E
S11306700F931F93CF93DF93EC01888199818F3F70
S11306802FEF920709F441C02A811F922F939F9361
S11306908F938CE392E09F938F930E94F40D2B81B0
S11306A0822F992787FD90959F932F938EE592E053
S11306B09F938F930E94F40D8DB79EB70A960FB641
S11306C0F8949EBF0FBE8DBF8A818230D0F0FF2484
S11306D0F39401E712E0FE01EF0DF11D2381822F57
S11306E0992787FD90959F932F931F930F930E94B3
S11306F0F40DF3940F900F900F900F908A81F816D9
S113070050F386E792E00E94050EDF91CF911F918E
S11307100F91FF900895CF93DF93CDB7DEB72B975A
S11307200FB6F894DEBF0FBECDBFCE01019636DF03
S11307308BE0FE013196A4E0B3E001900D928A951E
S1130740E1F784E093E093DF2B960FB6F894DEBFD5
S11307500FBECDBFDF91CF9108951F920F920FB6B8
S11307600F9211240BB60F922F933F934F935F93E5
S11307706F937F938F939F93AF93BF93EF93FF9365
S1130780CADFFF91EF91BF91AF919F918F917F91BC
S11307906F915F914F913F912F910F900BBE0F90EE
S11307A00FBE0F901F901895CF93DF93CDB7DEB790
S11307B02B970FB6F894DEBF0FBECDBFCE010196C6
S11307C0EDDE8BE0FE013196A9EFB2E001900D92CF
S11307D08A95E1F78091F9029091FA0283309105AC
S11307E069F08430910561F0019781F48091FC02F5
S11307F0992781950CF4909538D108C05CD106C036
S11308008091FC02992787FD9095C0DD2B960FB649
S1130810F894DEBF0FBECDBFDF91CF91089581E084
S11308208093F00282E090E09093EF028093EE02D6
S113083080914B038093F1028EEE92E079CE08957D
S1130840CF93C82F37D27894C0930F03CF910895D4
S1130850CF93DF9300D0CDB7DEB790910F0397709D
S1130860990F9065998387708A836B8363E0CE01C7
S113087001962AD20F900F900F90DF91CF91089597
S1130880CF93DF93D82FC62F39D182E02BD18D2F70
S113089029D18C2F27D134D1DF91CF910895CF93D3
S11308A0883018F4C82FC06801C0C0E827D18C2F45
S11308B019D126D1CF9108951F93CF93DF93182F89
S11308C0D62FC42F1BD185E00DD1812F0BD18D2FB5
S11308D009D18C2F07D114D1DF91CF911F910895A5
S11308E00DD180ECFFD00CC10895CF93C82F06D151
S11308F083E0F8D08C2FF6D0FAD0C82F01D18C2FFA
S1130900CF910895CF93DF931F92CDB7DEB7E2D096
S1130910E7DF8EE0EADF89838981807E803821F0F9
S113092089E892E00E94050E0F90DF91CF9108951F
S1130930882331F047988AE68A95F1F700C0089534
S1130940479A089546988AE68A95F1F700C0469A30
S11309500895882311F0459A01C045988AE68A953E
S1130960F1F700C00895882311F0449A089544983B
S11309700895682F80E06CCF089580E061DF87B12F
S1130980886F87B91092070181E0D2DFDBDF80E056
S1130990E0DF80E0EEDF81E0E6CF0895813011F4FE
S11309A043980895439A0895282F2A7A2695982FD4
S11309B09575990F922B292F2C7C26952695892F96
S11309C08373880F880F822B829508951F93CF938A
S11309D0DF9381E0ADDF80E0BCDFC6E0D1E0888159
S11309E0E3DF182F81E0B5DF8881DEDFC82F80E0E8
S11309F09FDF2C2F30E0C901912B919581959109AE
S1130A00DF91CF911F9108951F920F920FB60F920D
S1130A1011240F900FBE0F901F9018956B9AA1E9A7
S1130A20B0E08C9182608C938C918A7F8C93E0E906
S1130A30F0E080818260808380818E7F80838C91CE
S1130A4088618C9380818068808380818F7B8083A0
S1130A5080E49CE9909397008093960088EB9BE058
S1130A60909399008093980008959C0120583F4FDB
S1130A704BE4429FC001439F900D11246FEF70E03F
S1130A8066D7660F771F62957295707F7627607FB1
S1130A907627685F784F7093990060939800089563
S1130AA0E1E0F1E0808188608083E2E0F1E0808130
S1130AB0886080830895E2E0F1E08081877F80830D
S1130AC08FE59AEE0197F1F700C0000080818860FD
S1130AD08083089584B1876084B923988CB5816537
S1130AE08CBD08958EBD0DB407FEFDCF08958AEA2E
S1130AF0F9DF0DB407FEFDCF8EB50895289808954B
S1130B00289A0895E0ECF0E0908195FFFDCF809362
S1130B10C6000895E0ECF0E080818823ECF7809132
S1130B20C60090E008958093C40088E18093C100DA
S1130B3080E092E09093500380934F0390934E0390
S1130B4080934D030895CF93DF93809131038F30C9
S1130B5018F01092310303C08F5F80933103C0916A
S1130B603103D0E080E0A9DCCC0FDD1FCF5EDC4F89
S1130B70929582958F7089279F708927998388839E
S1130B80E1E1F3E041E353E020E030E08191919131
S1130B90280F391FE417F507C9F781E0223331051F
S1130BA008F080E0DF91CF910895CF93C0E1CBDFCF
S1130BB0C150E9F7CF910895C6DF80931003909157
S1130BC04B03891721F080934B0381E0089580E063
S1130BD0089587E690E0A7DF81DC20DF8AEE92E0CB
S1130BE00E94050E5CDCE1DF5BDFC7DEB1DB2FEFCB
S1130BF083ED90E3215080409040E1F700C0000075
S1130C000AD02FEF89E698E1215080409040E1F727
S1130C1000C00000F6CFE1E2F1E0808185608083CE
S1130C2080818D7F8083A0E2B1E08C918E7F8C9354
S1130C308C918D7F8C9380818860808380818F7E6E
S1130C4080838FED90E09093290180932801E3E75E
S1130C50F0E0808182608083D59A789408951F9211
S1130C600F920FB60F9211240BB60F922F933F934E
S1130C704F935F936F937F938F939F93AF93BF93A0
S1130C80EF93FF9399DF8111CADD8EDD88DBFF913D
S1130C90EF91BF91AF919F918F917F916F915F91F0
S1130CA04F913F912F910F900BBE0F900FBE0F905D
S1130CB01F9018958CE08093B8008FEF8093BB0051
S1130CC084E08093BC000895ECEBF0E0208120FDEB
S1130CD0FDCF60933403FC0120812093350320FD74
S1130CE00CC0623050F0DC011196E6E3F3E081E0E1
S1130CF09D9191938F5F8613FBCF1092330388EFFE
S1130D0080930E0285EA8093BC0008951F920F928F
S1130D100FB60F9211240BB60F922F933F938F931C
S1130D209F93AF93BF93EF93FF938091B90090E0AB
S1130D30FC013897E135F10508F055C0EE58FF4F36
S1130D4019C610923203E091320380913403E817FC
S1130D5070F481E08E0F80933203F0E0EB5CFC4F83
S1130D6080818093BB0085E88093BC0043C0809160
S1130D70330381608093330384E98093BC003AC0D9
S1130D80E091320381E08E0F809332038091BB00A7
S1130D90F0E0EB5CFC4F80832091320330E08091E3
S1130DA0340390E001972817390724F485EC8093E5
S1130DB0BC0020C085E88093BC001CC08091BB00AF
S1130DC0E0913203F0E0EB5CFC4F808380913303CD
S1130DD081608093330384E98093BC000BC085EA6F
S1130DE08093BC0007C08091B90080930E0284E018
S1130DF08093BC00FF91EF91BF91AF919F918F9130
S1130E003F912F910F900BBE0F900FBE0F901F902C
S1130E1018955058BB27AA270ED075C166D130F05B
S1130E206BD120F031F49F3F11F41EF45BC10EF43A
S1130E30E095E7FB51C1E92F77D180F3BA17620738
S1130E4073078407950718F071F49EF58FC10EF4AB
S1130E50E0950B2EBA2FA02D0B01B90190010C01C6
S1130E60CA01A0011124FF27591B99F0593F50F4DE
S1130E70503E68F11A16F040A22F232F342F442736
S1130E80585FF3CF469537952795A795F04053952E
S1130E90C9F77EF41F16BA0B620B730B840BBAF0FE
S1130EA09150A1F0FF0FBB1F661F771F881FC2F769
S1130EB00EC0BA0F621F731F841F48F4879577957D
S1130EC06795B795F7959E3F08F0B3CF9395880F34
S1130ED008F09927EE0F979587950895D9D008F4CF
S1130EE081E008950CD00FC107D140F0FED030F05E
S1130EF021F45F3F19F0F0C0511139C1F3C014D18E
S1130F0098F39923C9F35523B1F3951B550BBB27CC
S1130F10AA2762177307840738F09F5F5F4F220F79
S1130F20331F441FAA1FA9F333D00E2E3AF0E0E872
S1130F3030D091505040E695001CCAF729D0FE2FBE
S1130F4027D0660F771F881FBB1F26173707480750
S1130F50AB07B0E809F0BB0B802DBF01FF27935806
S1130F605F4F2AF09E3F510568F0B6C000C15F3F55
S1130F70ECF3983EDCF3869577956795B795F795EE
S1130F809F5FC9F7880F911D9695879597F90895E6
S1130F90E1E0660F771F881FBB1F62177307840782
S1130FA0BA0720F0621B730B840BBA0BEE1F88F791
S1130FB0E095089504D06894B111D9C00895BCD0C7
S1130FC088F09F5790F0B92F9927B751A0F0D1F02E
S1130FD0660F771F881F991F1AF0BA95C9F712C0B8
S1130FE0B13081F0C3D0B1E00895C0C0672F782F2D
S1130FF08827B85F39F0B93FCCF386957795679524
S1131000B395D9F73EF490958095709561957F4F8F
S11310108F4F9F4F0895E89409C097FB3EF4909535
S11310208095709561957F4F8F4F9F4F9923A9F0BD
S1131030F92F96E9BB279395F6958795779567954C
S1131040B795F111F8CFFAF4BB0F11F460FF1BC090
S11310506F5F7F4F8F4F9F4F16C0882311F096E923
S113106011C0772321F09EE8872F762F05C06623D1
S113107071F096E8862F70E060E02AF09A95660F8A
S1131080771F881FDAF7880F9695879597F9089543
S1131090990F0008550FAA0BE0E8FEEF1616170685
S11310A0E807F907C0F012161306E407F50798F0ED
S11310B0621B730B840B950B39F40A2661F0232B06
S11310C0242B252B21F408950A2609F4A140A69582
S11310D08FEF811D811D089597F99F6780E870E067
S11310E060E008959FEF80EC089500240A9416169A
S11310F0170618060906089500240A941216130602
S1131100140605060895092E0394000C11F488238F
S113111052F0BB0F40F4BF2B11F460FF04C06F5FAB
S11311207F4F8F4F9F4F089557FD9058440F551F81
S113113059F05F3F71F04795880F97FB991F61F055
S11311409F3F79F087950895121613061406551FCC
S1131150F2CF4695F1DF08C0161617061806991F38
S1131160F1CF86957105610508940895E894BB272D
S113117066277727CB0197F908950BD0C4CFB5DF45
S113118028F0BADF18F0952309F0A6CFABCF1124CD
S1131190EECFCADFA0F3959FD1F3950F50E0551F12
S11311A0629FF001729FBB27F00DB11D639FAA27B8
S11311B0F00DB11DAA1F649F6627B00DA11D661F07
S11311C0829F2227B00DA11D621F739FB00DA11D28
S11311D0621F839FA00D611D221F749F3327A00DE2
S11311E0611D231F849F600D211D822F762F6A2F7E
S11311F011249F5750408AF0E1F088234AF0EE0F03
S1131200FF1FBB1F661F771F881F91505040A9F70F
S11312109E3F510570F060CFAACF5F3FECF3983E3C
S1131220DCF3869577956795B795F795E7959F5F76
S1131230C1F7FE2B880F911D9695879597F9089510
S11312402F923F924F925F926F927F928F929F92D2
S1131250AF92BF92CF92DF92EF92FF920F931F93C0
S1131260CF93DF93CDB7DEB763970FB6F894DEBFA5
S11312700FBECDBF7C011B016A01FC0117821682DF
S1131280838181FF49C3BE016F5F7F4F4B01F7012B
S11312909381F10193FD859193FF81911F0188232F
S11312A009F436C3853239F493FD859193FF819116
S11312B01F01853231F4B70190E064D45601650111
S11312C0E6CF10E0512C20E02032A0F48B3269F0FC
S11312D030F4803259F0833269F420612CC08D32AD
S11312E039F0803339F4216026C02260246023C0A1
S11312F0286021C027FD27C030ED380F3A3078F43C
S113130026FF06C0FAE01F9F300D1124132F13C0CF
S11313106AE0569E300D1124532E20620CC08E328A
S113132021F426FDF5C2206406C08C3611F4206831
S113133002C0883641F4F10193FD859193FF8191B8
S11313401F018111C1CF9BEB980F933018F42061DA
S1131350805E06C09BE9980F933008F09AC12F7EF7
S113136026FF16E02F73722E853621F4F22FF064D7
S11313707F2E08C0863621F4622F6068762E02C064
S11313801111115077FE07C01C3348F444244394D0
S1131390410E27E00BC0183030F4212F06C027E09F
S11313A04CE3442E03C027E017E0412C560174E0BF
S11313B0A70EB11CF6016081718182819381042D95
S11313C0A401F2D26C01098100FF02C003FF06C030
S11313D071FC07C072FC08C0612C08C03DE2632E9A
S11313E005C02BE2622E02C090E2692E802F8C7021
S11313F081F1662011F084E001C083E0851510F0CE
S1131400512C0AC0581A73FC07C0B70180E290E05F
S1131410B9D35A94D1F7F4CF662021F0B701862DC1
S113142090E0B0D303FD03C00AE811E002C006E86F
S113143011E0F72DF0717F2EF8018491882309F4CF
S11314405EC271108052B70190E09CD30F5F1F4FB2
S1131450F3CF77FE0FC04C0C04FF04C08A818133A4
S113146009F44A94141474F5F8E0F41578F588E056
S1131470482E2CC076FC2AC0812F90E08C159D0547
S11314809CF06CEFC6166FEFD60674F0772D70687B
S1131490772E0AC0E2E0F0E0EC0FFD1FE10FF11D32
S11314A08081803319F411501111F4CF77FE0EC0EE
S11314B044244394410E812F90E0C816D9062CF49D
S11314C01C1904C04424439401C010E077FE07C0F3
S11314D01C141D043CF496012F5F3F4F05C025E00A
S11314E030E002C021E030E0662011F02F5F3F4F72
S11314F0112331F0412F50E04F5F5F4F240F351F10
S1131500452D50E02417350714F4521A01C0512C0C
S1131510872D897041F4552031F0B70180E290E0C5
S113152031D35A94F8CF662021F0B701862D90E08C
S113153029D373FC08C0552031F0B70180E390E053
S113154021D35A94F8CF77FE5DC09C2D8D2DD7FE04
S113155002C090E080E0692E782E40E050E0C601A1
S1131560841991099D878C87960126193709280DBE
S1131570391D812F90E0EE27FF27E81BF90BFF8729
S1131580EE87FFEF6F167F0661F4B7018EE290E0FD
S11315902B8B3A8B488B598BF5D2598948893A89D8
S11315A02B89C614D70454F06C857D8566157705A0
S11315B02CF4F901E40FF51F818101C080E371E08F
S11315C0671A71084F5F5F4FEE85FF856E167F06C1
S11315D064F0B70190E02B8B3A8B488B598BD2D2B5
S11315E02B893A8948895989CCCF6C147D0439F404
S11315F09A81963318F4953311F404FF81E3B7010B
S113160090E045C08A81813309F00F7EB70190E0F4
S1131610B9D2111105C074FE16C085E490E015C05E
S1131620B7018EE290E0AED282E066246394680E45
S1131630F401E80FF11D8081B70190E0A3D21150AD
S113164051F3862DF2CF85E690E0B7019BD2D7FC0B
S113165005C0C114D10439F404FF05C0D194C19468
S1131660D1088DE201C08BE2B70190E08BD280E318
S11316706AE0C616D1042CF08F5FFAE0CF1AD108C5
S1131680F7CFB70190E07ED2B701C601C0967AD2F7
S113169036C1833631F0833779F0833509F054C08D
S11316A020C0560172E0A70EB11CF6018081898327
S11316B001E010E0640113C05601F2E0AF0EB11C6A
S11316C0F601C080D18026FF03C0612F70E002C004
S11316D06FEF7FEFC6012B8B4AD28C012B892F77BA
S11316E014C05601F2E0AF0EB11CF601C080D180E7
S11316F026FF03C0612F70E002C06FEF7FEFC601C9
S11317002B8B2AD28C012B892068722E23FD18C0C2
S1131710852D90E00817190798F4B70180E290E04E
S113172031D25A94F5CFF60177FC859177FE8191F9
S11317306F01B70190E026D251105A94015011095B
S11317400115110581F7DBC0843611F0893649F59E
S1131750560127FF09C0F4E0AF0EB11CF601608109
S11317607181828193810AC0F2E0AF0EB11CF6014F
S113177060817181882777FD8095982F022F0F76DD
S113178097FF08C090958095709561957F4F8F4F16
S11317909F4F00682AE030E0A40164D2C82EC81824
S11317A03DC0022F853721F40F7E2AE030E01DC0B2
S11317B0097F8F3691F018F4883559F0A9C0803725
S11317C019F0883711F0A4C0006104FF09C0046057
S11317D007C024FF08C0066006C028E030E005C04A
S11317E020E130E002C020E132E0560107FF09C0E9
S11317F0F4E0AF0EB11CF6016081718182819381A6
S113180008C0F2E0AF0EB11CF6016081718180E086
S113181090E0A40127D2C82EC8180F7706FF0BC08A
S1131820202F2E7FC11650F404FF0AC002FD08C009
S1131830202F2E7E05C0DC2C202F03C0DC2C01C001
S1131840D12E24FF0DC0FE01EC0DF11D80818033EB
S113185011F4297E09C022FF06C0D394D39404C096
S1131860822F867809F0D39423FD12C020FF06C08E
S11318701C2DD51418F4150D1D19D52CD51460F490
S1131880B70180E290E02B8B7DD1D3942B89F6CFE6
S1131890D51410F45D1801C0512C24FF11C0B701F8
S11318A080E390E02B8B6ED12B8922FF16C021FFA1
S11318B003C088E590E002C088E790E0B7010CC05F
S11318C0822F867851F021FD02C080E201C08BE2B4
S11318D027FD8DE2B70190E055D1C11630F4B70170
S11318E080E390E04FD11150F8CFCA94F401EC0D8D
S11318F0F11D8081B70190E045D1C110F6CF55208C
S113190009F4DDCCB70180E290E03CD15A94F7CFE2
S1131910F7018681978102C08FEF9FEF63960FB620
S1131920F894DEBF0FBECDBFDF91CF911F910F9111
S1131930FF90EF90DF90CF90BF90AF909F908F90EB
S11319407F906F905F904F903F902F90089597FBFA
S1131950072E16F4009406D077FD08D011D007FCAA
S113196005D03EF4909581959F4F089570956195AB
S11319707F4F0895EE0FFF1F0590F491E02D199409
S1131980AA1BBB1B51E107C0AA1FBB1FA617B707A1
S113199010F0A61BB70B881F991F5A95A9F78095BD
S11319A09095BC01CD010895283008F027E0332735
S11319B0DA01990F311D87FD91600096610571056B
S11319C039F432602E5F3D9330E32A95E1F70895B0
S11319D09F3F30F080387105610509F03C5F3C5F42
S11319E03D93913008F08068911DDF93CF931F934E
S11319F00F93FF92EF92192F987F9695E92F969562
S1131A009695E90FFF27E851FE4F99273327EE24D7
S1131A10FF24A701E70105900894079428F4360FE2
S1131A20E71EF81E491F511D660F771F881F991F57
S1131A300694A1F70590079428F4E70EF81E491FB1
S1131A40561FC11D770F881F991F661F0694A1F7A3
S1131A500590079428F4F80E491F561FC71FD11D7F
S1131A60880F991F661F771F0694A1F705900794A6
S1131A7020F4490F561FC71FD81F990F661F771FE1
S1131A80881F0694A9F784911095177041F0D69594
S1131A90C79557954795F794E7941A95C1F7EEE8DB
S1131AA0F1E06894159015913591659195910590A3
S1131AB07FE27395E118F10A430B560BC90BD00969
S1131AC0C0F7E10CF11E431F561FC91FD01D7EF441
S1131AD0703311F48A95E6CFE894015030F0080F82
S1131AE00AF40027021708F4202F2395022F7A33D3
S1131AF028F079E37D932A95E9F710C07D932A9520
S1131B0089F6069497956795379517951794E11874
S1131B10F10A430B560BC90BD00998F023957E911B
S1131B2073957A3308F070E37C932013B8F77E91B1
S1131B3070617D9330F0839571E37D9370E32A9512
S1131B40E1F71124EF90FF900F911F91CF91DF9156
S1131B50992787FD90950895FC0105906150704088
S1131B600110D8F7809590958E0F9F1F0895FC0162
S1131B706150704001900110D8F7809590958E0FB8
S1131B809F1F08950F931F93CF93DF93182F092F4F
S1131B90EB018B8181FD03C08FEF9FEF20C082FF9B
S1131BA010C04E815F812C813D81421753077CF424
S1131BB0E881F9819F012F5F3F4F39832883108388
S1131BC006C0E885F985812F1995892B29F72E817F
S1131BD03F812F5F3F4F3F832E83812F902FDF91D3
S1131BE0CF911F910F910895CF93DF93CDB7DEB7B7
S1131BF0FE01369661917191AF0180914F039091EE
S1131C0050031EDBDF91CF9108950F931F93CF9361
S1131C10DF93E0914F03F0915003238121FF1BC018
S1131C20EC0100E010E0899160914F037091500342
S1131C30DB011896ED91FC911997882331F01995E1
S1131C40892B89F30FEF1FEFEECF8AE01995892BCB
S1131C5011F4C80102C08FEF9FEFDF91CF911F9164
S1131C600F910895FA01AA27283051F1203181F10A
S1131C70E8946F936E7F6E5F7F4F8F4F9F4FAF4F90
S1131C80B1E03ED0B4E03CD0670F781F891F9A1FA3
S1131C90A11D680F791F8A1F911DA11D6A0F711D57
S1131CA0811D911DA11D20D009F468943F912AE063
S1131CB0269F11243019305D3193DEF6CF0108954B
S1131CC0462F4770405D4193B3E00FD0C9F7F6CF7C
S1131CD0462F4F70405D4A3318F0495D31FD405244
S1131CE0419302D0A9F7EACFB4E0A69597958795DA
S1131CF077956795BA95C9F70097610571050895B9
S1131D009B01AC010A2E0694579547953795279564
S1131D10BA95C9F7620F731F841F951FA01D0895FC
S1071D20F894FFCF61
S1131D24000000030000000082058A050000F86D2D
S1131D34617820706F733A2025640A0A0043414E87
S1131D444354524C20286578706563742030783885
S1131D5437293A203078253032780A004D65737378
S1131D646167652069643A2025640A4D657373616B
S1131D746765206C656E6774682025640A004D6588
S1131D84737361676520646174613A205B20256420
S1131D94002C20256400205D0A0043414E43545224
S1131DA44C3A20253032780A004D435032353135CF
S1131DB4206973206E6F7420696E20636F6E666988
S1131DC467206D6F64652061667465722072657343
S1131DD46574004E6F7420696E206C6F6F7062615D
S1131DE4636B206F7065726174696F6E206D6F64CC
S1131DF465004F70206D6F64653A2025780A00549D
S1111E0465737420646F6E650A0069720000D5
S9030000FC
