S00D00004E6F6465322E737265635F
S113000071C0000017C100008CC000008AC000004D
S113001088C0000086C0000084C0000082C00000C8
S113002080C000007EC000007CC000007AC00000D8
S113003078C0000076C0000074C0000072C00000E8
S113004070C000006EC000006CC000006AC00000F8
S113005068C0000066C0000064C0000062C0000008
S113006060C000005EC000005CC000005AC0000018
S113007058C0000056C0000054C0000052C0000028
S113008050C000004EC000004CC000004AC0000038
S113009048C0000046C0000044C0000042C0000048
S11300A040C000003EC000003CC000003AC0000058
S11300B038C0000036C0000034C0000032C0000068
S11300C030C000002EC000002CC000002AC0000078
S11300D028C0000026C0000024C0000022C0000088
S11300E020C0000011241FBECFEFD1E2DEBFCDBF80
S11300F000E00CBF12E0A0E0B2E0E0E3FAE000E0D0
S11301000BBF02C007900D92A23FB107D9F722E0BE
S1130110A2EFB2E001C01D92A93FB207E1F786D178
S113012085C46ECFE4D08FE0D5D01F928F938EE03C
S113013092E09F938F93A8D14FEF60E680E6B1D011
S113014040E064E080E6ADD04FEF61E08BE2A9D0FF
S113015040E060EE8FE0A5D00F900F900F900F90CD
S113016008959F92AF92BF92CF92DF92EF92FF9247
S11301700F931F93CF93DF93CDB7DEB72B970FB6B3
S1130180F894DEBF0FBECDBF7C018CE2A3D080FF0C
S113019030C081E69FD0C82E82E69CD08295869599
S11301A08770D12CCC0CDD1CCC0CDD1CCC0CDD1CE4
S11301B0C82A85E68FD08F70982EA1F08E010C5F2F
S11301C01F4F0F2EF6E6AF2EF02DA80E0F2EF6E6DB
S11301D0BF2EF02D8B2D7ED0F80181938F01B39427
S11301E0BA10F8CF1092F20240E061E08CE259D0EC
S11301F003C0CC24CA94DC2CDA82C9829B828BE0B3
S1130200FE013196D70101900D928A95E1F7C7015D
S11302102B960FB6F894DEBF0FBECDBFDF91CF9102
S11302201F910F91FF90EF90DF90CF90BF90AF9010
S11302309F9008951F920F920FB60F9211248F93DF
S11302409F938FE39CE90197F1F700C0000081E0E0
S11302508093F2029F918F910F900FBE0F901F9089
S11302601895CF93DF93CDB7DEB72B970FB6F894DD
S1130270DEBF0FBECDBFCE01019673DF89819A81A7
S1130280019631F08C81992781950CF4909565D075
S11302902B960FB6F894DEBF0FBECDBFDF91CF9182
S11302A008951F93CF93DF93182FD62FC42F99D07F
S11302B085E08BD0812F89D08D2F87D08C2F85D04E
S11302C092D0DF91CF911F9108958BD080EC7DD097
S11302D08AC00895CF93C82F84D083E076D08C2F22
S11302E074D078D0C82F7FD08C2FCF910895CF931E
S11302F0DF931F92CDB7DEB760D0E7DF8EE0EADF91
S113030089838981807E803819F080E992E0CDD09C
S11303100F90DF91CF9108956B9AA1E9B0E08C9191
S113032085608C938C918D7F8C93E0E9F0E08081E3
S11303308260808380818E7F80838C9188618C939E
S113034080818068808380818F7B808388E391E0D3
S11303509093970080939600089580589F4F880F3C
S1130360991F9C01220F331F220F331F220F331FAB
S1130370820F931F6FEF70E060D0CB010D96685031
S113038071096330710538F486E190E09093990027
S11303908093980008959C012D5031092431310532
S11303A028F4909399008093980008958DE090E04C
S11303B09093990080939800089584B1876084B9DC
S11303C023988CB581658CBD08958EBD0DB407FE50
S11303D0FDCF08958AEAF9DF0DB407FEFDCF8EB58F
S11303E0089528980895289A0895E0ECF0E0908103
S11303F095FFFDCF8093C6000895E0ECF0E0808186
S11304008823ECF78091C60090E008958093C4009F
S113041088E18093C10080E092E09093F60280939B
S1130420F5029093F4028093F302089587E690E036
S1130430EDDF78DE71DF15DFFECF97FB072E16F4B4
S1130440009406D077FD08D00BD007FC05D03EF40D
S1130450909581959F4F0895709561957F4F08956C
S1130460AA1BBB1B51E107C0AA1FBB1FA617B707D6
S113047010F0A61BB70B881F991F5A95A9F78095F2
S11304809095BC01CD010895CF93DF93CDB7DEB72E
S1130490FE01369661917191AF018091F5029091C0
S11304A0F60230D0DF91CF9108950F931F93CF932D
S11304B0DF93E091F502F091F602238121FF1BC046
S11304C0EC0100E010E089916091F5027091F60270
S11304D0DB011896ED91FC911997882331F0199559
S11304E0892B89F30FEF1FEFEECF8AE01995892B43
S11304F011F4C80102C08FEF9FEFDF91CF911F91DC
S11305000F9108952F923F924F925F926F927F9234
S11305108F929F92AF92BF92CF92DF92EF92FF920F
S11305200F931F93CF93DF93CDB7DEB72C970FB6FE
S1130530F894DEBF0FBECDBF7C016B018A01FC01C4
S113054017821682838181FFB0C1CE0101964C01CE
S1130550F7019381F60193FD859193FF81916F01DA
S1130560882309F49EC1853239F493FD859193FF64
S113057081916F01853221F4B70190E0C7D1E8CFB2
S1130580512C312C20E02032A0F48B3269F030F46D
S1130590803259F0833269F420612CC08D3239F0F5
S11305A0803339F4216026C02260246023C028608F
S11305B021C027FD27C030ED380F3A3078F426FFEC
S11305C006C0FAE05F9E300D1124532E13C08AE05A
S11305D0389E300D1124332E20620CC08E3221F44B
S11305E026FD5FC1206406C08C3611F4206802C069
S11305F0883641F4F60193FD859193FF81916F0153
S11306008111C1CF982F9F7D9554933028F40C5FAE
S11306101F4FFFE3F9830DC0833631F0833771F048
S1130620833509F057C021C0F801808189830E5FAA
S11306301F4F44244394512C540114C03801F2E058
S11306406F0E711CF801A080B18026FF03C0652DD8
S113065070E002C06FEF7FEFC5012C874CD12C01F5
S113066083012C852F77222E16C03801F2E06F0EFD
S1130670711CF801A080B18026FF03C0652D70E0D5
S113068002C06FEF7FEFC5012C872AD12C012C8586
S11306902068222E830123FC19C0832D90E0481684
S11306A05906A0F4B70180E290E030D13A94F5CF36
S11306B0F50127FC859127FE81915F01B70190E048
S11306C025D131103A94F1E04F1A510841145104E4
S11306D079F7DEC0843611F0893631F5F80127FF49
S11306E007C060817181828193810C5F1F4F08C0B4
S11306F060817181882777FD8095982F0E5F1F4F49
S11307002F76B22E97FF09C09095809570956195CC
S11307107F4F8F4F9F4F2068B22E2AE030E0A40114
S113072027D1A82EA81843C0853729F42F7EB22ECE
S11307302AE030E025C0F22FF97FBF2E8F36C1F0BA
S113074018F4883579F0ADC0803719F0883721F076
S1130750A8C02F2F2061B22EB4FE0DC08B2D846053
S1130760B82E09C024FF0AC09F2F9660B92E06C078
S113077028E030E005C020E130E002C020E132E0B2
S1130780F801B7FE07C060817181828193810C5F9B
S11307901F4F06C06081718180E090E00E5F1F4FA3
S11307A0A401E6D0A82EA818FB2DFF77BF2EB6FE15
S11307B00BC02B2D2E7FA51450F4B4FE0AC0B2FC3E
S11307C008C02B2D2E7E05C07A2C2B2D03C07A2C2D
S11307D001C0752C24FF0DC0FE01EA0DF11D8081BE
S11307E0803311F4297E09C022FF06C073947394E8
S11307F004C0822F867809F0739423FD12C020FF71
S113080006C05A2C731418F4530C5718732C731411
S113081060F4B70180E290E02C8778D073942C8543
S1130820F6CF731410F4371801C0312C24FF11C013
S1130830B70180E390E02C8769D02C8522FF16C095
S113084021FF03C088E590E002C088E790E0B7018B
S11308500CC0822F867851F021FD02C080E201C0D5
S11308608BE227FD8DE2B70190E050D0A51430F45F
S1130870B70180E390E04AD05A94F8CFAA94F401E7
S1130880EA0DF11D8081B70190E040D0A110F6CFB0
S1130890332009F45DCEB70180E290E037D03A947A
S11308A0F7CFF7018681978102C08FEF9FEF2C96D7
S11308B00FB6F894DEBF0FBECDBFDF91CF911F916D
S11308C00F91FF90EF90DF90CF90BF90AF909F90EB
S11308D08F907F906F905F904F903F902F900895EE
S11308E0FC010590615070400110D8F780959095F7
S11308F08E0F9F1F0895FC016150704001900110FC
S1130900D8F7809590958E0F9F1F08950F931F938E
S1130910CF93DF93182F092FEB018B8181FD03C047
S11309208FEF9FEF20C082FF10C04E815F812C812A
S11309303D81421753077CF4E881F9819F012F5FC1
S11309403F4F39832883108306C0E885F985812FBA
S11309501995892B29F72E813F812F5F3F4F3F83C4
S11309602E83812F902FDF91CF911F910F910895A6
S1130970FA01AA27283051F1203181F1E8946F93CC
S11309806E7F6E5F7F4F8F4F9F4FAF4FB1E03ED072
S1130990B4E03CD0670F781F891F9A1FA11D680F10
S11309A0791F8A1F911DA11D6A0F711D811D911D43
S11309B0A11D20D009F468943F912AE0269F1124B8
S11309C03019305D3193DEF6CF010895462F47701C
S11309D0405D4193B3E00FD0C9F7F6CF462F4F7077
S11309E0405D4A3318F0495D31FD4052419302D0D5
S11309F0A9F7EACFB4E0A69597958795779567957B
S1130A00BA95C9F700976105710508959B01AC017A
S1130A100A2E06945795479537952795BA95C9F7A1
S1130A20620F731F841F951FA01D0895F894FFCFB4
S1130A300000000300000000F501FD010000434137
S1130A404E4354524C202865787065637420307886
S1130A503837293A203078253032780A004E6F2012
S1130A606D65737361676520696E2062756666657E
S1130A70720A004D6573736167652069643A2025C5
S1130A80640A4D657373616765206C656E6774688D
S1130A902025640A004D6573736167652064617481
S1130AA0613A205B202564002C20256400205D0A27
S1130AB00043414E4354524C3A20253032780A00C8
S1130AC04D435032353135206973206E6F7420697F
S1130AD06E20636F6E666967206D6F646520616662
S1130AE0746572207265736574004E6F7420696E4C
S1130AF0206C6F6F706261636B206F7065726174DC
S1130B00696F6E206D6F6465004F70206D6F646552
S1130B103A2025780A005465737420646F6E650A60
S1050B200000CF
S9030000FC
