:10000000C2C0000045C20000DDC00000DBC000002F
:10001000D9C00000D7C00000D5C00000D3C0000088
:10002000D1C00000CFC00000CDC00000CBC0000098
:10003000C9C00000C7C00000C5C00000C3C00000A8
:10004000C1C00000BFC00000BDC00000BBC00000B8
:10005000B9C00000B7C00000B5C00000B3C00000C8
:10006000B1C00000AFC00000ADC00000ABC00000D8
:10007000A9C00000A7C00000A5C00000A3C00000E8
:10008000A1C000009FC000009DC000009BC00000F8
:1000900099C0000097C0000095C00000B2C30000E6
:1000A00091C000008FC000008DC000008BC0000018
:1000B00089C0000087C0000085C0000083C0000028
:1000C00081C000007FC000007DC000007BC0000038
:1000D00079C0000077C0000075C0000073C0000048
:1000E00071C000001C046E046E046E046E046E0485
:1000F0006E046E041C046E046E046E046E046E04C2
:100100006E046E041E046E046E046E046E046E04AF
:100110006E046E046E046E046E046E046E046E044F
:100120006E046E041E046E046E046E046E046E048F
:100130006E046E046E046E046E046E046E046E042F
:100140006E046E046A046E046E046E046E046E0423
:100150006E046E0447046E046E046E046E046E0436
:100160006E046E046E046E046E046E046E046E04FF
:100170006E046E043B046E046E046E046E046E0422
:100180006E046E04590411241FBECFEFD1E2DEBF0E
:10019000CDBF00E00CBF12E0A0E0B2E0EAE0FFE07B
:1001A00000E00BBF02C007900D92A63FB107D9F740
:1001B00023E0A6EFB2E001C01D92AD32B207E1F735
:1001C000F5D2A1C61DCFEAE7F0E080818768808381
:1001D000ECE7F0E080818064808380818F7780838A
:1001E0000895ECE7F0E0908121E030E002C0220FBA
:1001F000331F8A95E2F72370922B9083EAE7F0E0B1
:10020000808180648083808186FDFDCF809178002D
:10021000909179000895D7D18FE0C8D11F928F9324
:100220008FE092E09F938F939CD34FEF60E680E640
:10023000A4D140E064E080E6A0D14FEF61E08BE222
:100240009CD140E060EE8FE098D10F900F900F901E
:100250000F90089580E3AAD186958695869591E0C2
:100260008927817090E008951F93CF93DF93EC016D
:10027000F1DF892BE9F3688179817595679575952B
:1002800067957595679581E35CD168817981660F83
:10029000771F62957295707F7627607F762782E35D
:1002A00050D16A816F7085E34CD18A81882361F0D7
:1002B00010E0FE01E10FF11D638186E3810F41D162
:1002C0001F5F8A811817A8F381E04AD1DF91CF918F
:1002D0001F9108959F92AF92BF92CF92DF92EF92BB
:1002E000FF920F931F93CF93DF93CDB7DEB72B977A
:1002F0000FB6F894DEBF0FBECDBF7C018CE256D1A5
:1003000080FF30C081E652D1C82E82E64FD182955F
:1003100086958770D12CCC0CDD1CCC0CDD1CCC0C54
:10032000DD1CC82A85E642D18F70982EA1F08E017F
:100330000C5F1F4F0F2EF6E6AF2EF02DA80E0F2EDE
:10034000F6E6BF2EF02D8B2D31D1F80181938F0170
:10035000B394BA10F8CF1092260340E061E08CE22B
:100360000CD103C0CC24CA94DC2CDA82C9829B82D3
:100370008BE0FE013196D70101900D928A95E1F74D
:10038000C7012B960FB6F894DEBF0FBECDBFDF912D
:10039000CF911F910F91FF90EF90DF90CF90BF9082
:1003A000AF909F900895FF920F931F93CF93DF9389
:1003B000EC01888199818F3F2FEF920721F48EE223
:1003C00092E0E0D23DC02A811F922F939F938F939A
:1003D00084E492E09F938F93C4D22B81822F99273C
:1003E00087FD90959F932F9386E692E09F938F933E
:1003F000B8D28DB79EB70A960FB6F8949EBF0FBEBF
:100400008DBF8A818230C8F0FF24F39409E712E09F
:10041000FE01EF0DF11D2381822F992787FD909515
:100420009F932F931F930F939CD2F3940F900F9051
:100430000F900F908A81F81658F38EE792E0A2D2BF
:10044000DF91CF911F910F91FF900895CF93DF938C
:10045000CDB7DEB72B970FB6F894DEBF0FBECDBF7A
:10046000CE01019637DF8BE0FE013196A1E0B3E0CB
:1004700001900D928A95E1F781E093E094DF2B964D
:100480000FB6F894DEBF0FBECDBFDF91CF910895B8
:100490001F920F920FB60F9211240BB60F922F934B
:1004A0003F934F935F936F937F938F939F93AF93FC
:1004B000BF93EF93FF93CADFFF91EF91BF91AF918D
:1004C0009F918F917F916F915F914F913F912F916C
:1004D0000F900BBE0F900FBE0F901F901895CF93EB
:1004E000DF93CDB7DEB72B970FB6F894DEBF0FBE04
:1004F000CDBFCE010196EEDE8BE0FE013196A6EF78
:10050000B2E001900D928A95E1F78091F602909108
:10051000F7028130910519F0039749F009C08091E5
:10052000F902992781950CF4909589D001C0ADD03E
:100530002B960FB6F894DEBF0FBECDBFDF91CF91E3
:100540000895CF93DF93D82FC62FC5D082E0B7D0C0
:100550008D2FB5D08C2FB3D0C0D0DF91CF9108951F
:10056000CF93883018F4C82FC06801C0C0E8B3D05A
:100570008C2FA5D0B2D0CF9108951F93CF93DF9346
:10058000182FD62FC42FA7D085E099D0812F97D0D0
:100590008D2F95D08C2F93D0A0D0DF91CF911F912C
:1005A000089599D080EC8BD098C00895CF93C82F30
:1005B00092D083E084D08C2F82D086D0C82F8DD06B
:1005C0008C2FCF910895CF93DF931F92CDB7DEB7D5
:1005D0006ED0E7DF8EE0EADF89838981807E803814
:1005E00019F081E992E0CED10F90DF91CF9108957B
:1005F0006B9AA1E9B0E08C9182608C938C918A7F98
:100600008C93E0E9F0E080818260808380818E7F3E
:1006100080838C9188618C938081806880838081C5
:100620008F7B808380E49CE9909397008093960071
:1006300088EB9BE0909399008093980008959C012B
:1006400020583F4F4BE4429FC001439F900D11241F
:100650006FEF70E059D1660F771F62957295707FCA
:100660007627607F7627685F784F70939900609354
:1006700098000895E1E0F1E0808188608083E2E005
:10068000F1E08081886080830895E2E0F1E080817C
:10069000877F80832FEF80E792E021508040904059
:1006A000E1F700C00000808188608083089584B1F4
:1006B000876084B923988CB581658CBD08958EBD03
:1006C0000DB407FEFDCF08958AEAF9DF0DB407FEE9
:1006D000FDCF8EB5089528980895289A0895E0ECE6
:1006E000F0E0908195FFFDCF8093C6000895E0EC87
:1006F000F0E080818823ECF78091C60090E00895B7
:100700008093C40088E18093C10080E092E09093E0
:100710002A03809329039093280380932703089545
:10072000CF93DF9380911E03873018F010921E0341
:1007300003C08F5F80931E03C0911E03D0E080E052
:1007400050DDCC0FDD1FC25FDC4F969587959695E7
:1007500087959695879599838883EEE0F3E04EE13F
:1007600053E020E030E081919191280F391FE41788
:10077000F507C9F781E0243B310508F080E0DF91FF
:10078000CF910895CF93C8E0CBDFC150E9F7CF9167
:100790000895C6DF80930D0390910C03891721F013
:1007A00080930C0381E0089580E00895CF93DF9358
:1007B000CDB7DEB72B970FB6F894DEBF0FBECDBF17
:1007C00087E690E09DDF27DD13DF82EF92E0DAD04D
:1007D000FADCD8DF4FDF81E08B8382E090E09A8300
:1007E00089837DDED6DF882329F09ADF8C83CE01D2
:1007F00001963ADD8FE79BEB0197F1F700C000000F
:10080000F0CF1F920F920FB60F9211240BB60F92DA
:100810002F933F938F939F93AF93BF93EF93FF9348
:100820008091B90090E0FC013897E135F10508F0BE
:1008300055C0EE58FF4F7BC010921F03E0911F037D
:1008400080912103E81770F481E08E0F80931F03DD
:10085000F0E0EE5DFC4F80818093BB0085E88093E3
:10086000BC0043C08091200381608093200384E911
:100870008093BC003AC0E0911F0381E08E0F80930B
:100880001F038091BB00F0E0EE5DFC4F8083209160
:100890001F0330E08091210390E00197281739076A
:1008A00024F485EC8093BC0020C085E88093BC00D4
:1008B0001CC08091BB00E0911F03F0E0EE5DFC4F97
:1008C00080838091200381608093200384E980935A
:1008D000BC000BC085EA8093BC0007C08091B900C2
:1008E00080930E0284E08093BC00FF91EF91BF9152
:1008F000AF919F918F913F912F910F900BBE0F90D1
:100900000FBE0F901F90189597FB072E16F40094BA
:1009100006D077FD08D011D007FC05D03EF49095A5
:1009200081959F4F0895709561957F4F0895EE0FC3
:10093000FF1F0590F491E02D1994AA1BBB1B51E1F8
:1009400007C0AA1FBB1FA617B70710F0A61BB70B3F
:10095000881F991F5A95A9F780959095BC01CD01E4
:100960000895CF93DF93CDB7DEB7FE013696619140
:100970007191AF018091290390912A0330D0DF91CA
:10098000CF9108950F931F93CF93DF93E0912903A5
:10099000F0912A03238121FF1BC0EC0100E010E04D
:1009A00089916091290370912A03DB011896ED91DA
:1009B000FC911997882331F01995892B89F30FEF52
:1009C0001FEFEECF8AE01995892B11F4C80102C000
:1009D0008FEF9FEFDF91CF911F910F9108952F928D
:1009E0003F924F925F926F927F928F929F92AF92BF
:1009F000BF92CF92DF92EF92FF920F931F93CF930C
:100A0000DF93CDB7DEB72C970FB6F894DEBF0FBEDD
:100A1000CDBF7C016B018A01FC01178216828381A4
:100A200081FFB0C1CE0101964C01F7019381F6011F
:100A300093FD859193FF81916F01882309F49EC1F5
:100A4000853239F493FD859193FF81916F01853251
:100A500021F4B70190E0C7D1E8CF512C312C20E030
:100A60002032A0F48B3269F030F4803259F08332B6
:100A700069F420612CC08D3239F0803339F4216063
:100A800026C02260246023C0286021C027FD27C023
:100A900030ED380F3A3078F426FF06C0FAE05F9E5A
:100AA000300D1124532E13C08AE0389E300D1124CE
:100AB000332E20620CC08E3221F426FD5FC12064EB
:100AC00006C08C3611F4206802C0883641F4F60165
:100AD00093FD859193FF81916F018111C1CF982F73
:100AE0009F7D9554933028F40C5F1F4FFFE3F983EB
:100AF0000DC0833631F0833771F0833509F057C06C
:100B000021C0F801808189830E5F1F4F44244394E4
:100B1000512C540114C03801F2E06F0E711CF80121
:100B2000A080B18026FF03C0652D70E002C06FEF8A
:100B30007FEFC5012C874CD12C0183012C852F77A9
:100B4000222E16C03801F2E06F0E711CF801A08051
:100B5000B18026FF03C0652D70E002C06FEF7FEF0C
:100B6000C5012C872AD12C012C852068222E8301D7
:100B700023FC19C0832D90E048165906A0F4B70154
:100B800080E290E030D13A94F5CFF50127FC8591D1
:100B900027FE81915F01B70190E025D131103A9491
:100BA000F1E04F1A51084114510479F7DEC0843640
:100BB00011F0893631F5F80127FF07C06081718196
:100BC000828193810C5F1F4F08C0608171818827EB
:100BD00077FD8095982F0E5F1F4F2F76B22E97FFCF
:100BE00009C090958095709561957F4F8F4F9F4F6D
:100BF0002068B22E2AE030E0A40127D1A82EA81840
:100C000043C0853729F42F7EB22E2AE030E025C07C
:100C1000F22FF97FBF2E8F36C1F018F4883579F0A6
:100C2000ADC0803719F0883721F0A8C02F2F206180
:100C3000B22EB4FE0DC08B2D8460B82E09C024FFE7
:100C40000AC09F2F9660B92E06C028E030E005C08C
:100C500020E130E002C020E132E0F801B7FE07C039
:100C600060817181828193810C5F1F4F06C060811A
:100C7000718180E090E00E5F1F4FA401E6D0A82EA6
:100C8000A818FB2DFF77BF2EB6FE0BC02B2D2E7F95
:100C9000A51450F4B4FE0AC0B2FC08C02B2D2E7E61
:100CA00005C07A2C2B2D03C07A2C01C0752C24FF93
:100CB0000DC0FE01EA0DF11D8081803311F4297E03
:100CC00009C022FF06C07394739404C0822F8678F3
:100CD00009F0739423FD12C020FF06C05A2C731430
:100CE00018F4530C5718732C731460F4B70180E296
:100CF00090E02C8778D073942C85F6CF731410F481
:100D0000371801C0312C24FF11C0B70180E390E0F7
:100D10002C8769D02C8522FF16C021FF03C088E5EF
:100D200090E002C088E790E0B7010CC0822F86787F
:100D300051F021FD02C080E201C08BE227FD8DE26F
:100D4000B70190E050D0A51430F4B70180E390E0F3
:100D50004AD05A94F8CFAA94F401EA0DF11D80818B
:100D6000B70190E040D0A110F6CF332009F45DCE5A
:100D7000B70180E290E037D03A94F7CFF70186814F
:100D8000978102C08FEF9FEF2C960FB6F894DEBFCD
:100D90000FBECDBFDF91CF911F910F91FF90EF90CC
:100DA000DF90CF90BF90AF909F908F907F906F908B
:100DB0005F904F903F902F900895FC0105906150F7
:100DC00070400110D8F7809590958E0F9F1F089561
:100DD000FC016150704001900110D8F7809590950A
:100DE0008E0F9F1F08950F931F93CF93DF93182F9C
:100DF000092FEB018B8181FD03C08FEF9FEF20C096
:100E000082FF10C04E815F812C813D8142175307C4
:100E10007CF4E881F9819F012F5F3F4F398328835C
:100E2000108306C0E885F985812F1995892B29F74C
:100E30002E813F812F5F3F4F3F832E83812F902F45
:100E4000DF91CF911F910F910895FA01AA272830C1
:100E500051F1203181F1E8946F936E7F6E5F7F4F87
:100E60008F4F9F4FAF4FB1E03ED0B4E03CD0670F03
:100E7000781F891F9A1FA11D680F791F8A1F911D56
:100E8000A11D6A0F711D811D911DA11D20D009F4A6
:100E900068943F912AE0269F11243019305D3193E8
:100EA000DEF6CF010895462F4770405D4193B3E0D1
:100EB0000FD0C9F7F6CF462F4F70405D4A3318F078
:100EC000495D31FD4052419302D0A9F7EACFB4E029
:100ED000A6959795879577956795BA95C9F70097E1
:100EE0006105710508959B01AC010A2E0694579582
:100EF000479537952795BA95C9F7620F731F841FD9
:0A0F0000951FA01D0895F894FFCF7F
:100F0A0000000003000000006F0377030000F843AD
:100F1A00414E4354524C20286578706563742030E2
:100F2A00783837293A203078253032780A004E6FDF
:100F3A00206D65737361676520696E2062756666E8
:100F4A0065720A004D6573736167652069643A20AA
:100F5A0025640A4D657373616765206C656E6774F5
:100F6A00682025640A004D657373616765206461B2
:100F7A0074613A205B202564002C20256400205DE2
:100F8A000A0043414E4354524C3A20253032780AE3
:100F9A00004D435032353135206973206E6F74200D
:100FAA00696E20636F6E666967206D6F6465206184
:100FBA0066746572207265736574004E6F74206979
:100FCA006E206C6F6F706261636B206F7065726107
:100FDA0074696F6E206D6F6465004F70206D6F6469
:100FEA00653A2025780A005465737420646F6E652B
:060FFA000A00697200000C
:00000001FF
