S00D00004E6F6465322E737265635F
S2140000000C94CC850C94EC850C94EC850C94EC85C7
S2140000100C94EC850C94EC850C94EC850C94EC8597
S2140000200C94EC850C94EC850C94EC850C94EC8587
S2140000300C94EC850C94EC850C94EC850C94EC8577
S2140000400C94EC850C94EC850C94EC850C94EC8567
S2140000500C94EC850C94EC850C94EC850C949A89A5
S2140000600C94EC850C94EC850C94EC850C94EC8547
S2140000700C94EC850C94EC850C94EC850C94EC8537
S2140000800C94EC850C94EC850C94EC850C94EC8527
S2140000900C94EC850C94EC850C94EC850C94A98B54
S2140000A00C94EC850C94EC850C94EC850C94EC8507
S2140000B00C94EC850C94EC850C94EC850C94518B8C
S2140000C00C94EC850C94EC850C94EC850C94EC85E7
S2140000D00C94EC850C94EC850C94EC850C94EC85D7
S2140000E00C94EC85BF89D289E589F8890B8A1E8A2B
S2140000F0318A448AC48B168C168C168C168C168CF9
S214000100168C168CC48B168C168C168C168C168C2D
S214000110168C168CC68B168C168C168C168C168C1B
S214000120168C168C168C168C168C168C168C168CBA
S214000130168C168CC68B168C168C168C168C168CFB
S214000140168C168C168C168C168C168C168C168C9A
S214000150168C168C128C168C168C168C168C168C8E
S214000160168C168CEF8B168C168C168C168C168CA2
S214000170168C168C168C168C168C168C168C168C6A
S214000180168C168CE38B168C168C168C168C168C8E
S214000190168C168C018C5F807D6E88707E948482AF
S2140001A076918A86626F765F6F736A706A6B6B7F12
S2140001B0777FA78A957D7B9DACAC927EB19A94871B
S2140001C0606E84654E51475A49585B485F6B5D6E5A
S2140001D06A736E7B82A1BCA39F9CACADAD9CA5ABA5
S2140001E0ACB1A6A1B2A3A8AD8EA586867E7C8A6792
S2140001F073706C6155554C3B2C363530331F423F7F
S214000200464E496E7785768A90919B8CB099A4ACC1
S2140002108299919AA0A398908EAAC5A7AFB7B6B6B2
S214000220B0B0A7A19C8EA0939285868D76707576C9
S21400023065665B60735C60776B7D5E7E7062775B25
S2140002407062645B555F5B454A58554E555D6D6CF4
S21400025061847687858B9F92938D909E947D9685FC
S214000260A781839494A892B0A797AAB1A8B5B0BE68
S214000270B5B6B3A79FACAA8F817C856E706A645EA4
S2140002806D6B604E586D5947697550546060555A8D
S2140002905354545D504C595A59666771765981804B
S2140002A08B8C99BA9A8FB1ABAA9D9DB087948E7DA0
S2140002B092A590877D869A829096B9A97BA9A39BE2
S2140002C09E83A0847983677C84756876866E54786E
S2140002D0896A526A7484735B776F6E52716F577750
S2140002E0605B665F5A5674744F527171616B7B79AE
S2140002F07B89797CAA9C92988AB29D869597B184D0
S2140003008EA7969599A8958D978D9899B49786B649
S214000310A29B8990A28B75726F89696F74597068F9
S2140003206F4D546A695969816D666C8085696690FF
S21400033071656B5D817677785A7272615E56897CDC
S2140003405979839082828098838DA4988580817F56
S214000350978E775F8CA8897389A6B08D9BA494A688
S2140003608E8C9BA5AC9194AA9988738A967C6677A6
S214000370967257607C875E5A7A6C75806B7A8D9F12
S214000380856B8B86654B6A836A50548688705F736C
S214000390856C6A71776B7A6F62817A9368608D7903
S2140003A0675C869167667A958D74778282777870B7
S2140003B06F87878F8A7F9CAE988F91918A7CA6A242
S2140003C0839EA2ABA59BAC827C738A7A6B978FA028
S2140003D087869B949B7A7180757570807F83827EFA
S2140003E0767E7B5C656C7B6F70918291806F7567A3
S2140003F08A634F6C859461778F8E8A5B7376605BB9
S214000400506D51536A5E696A748D5B70A187797608
S2140004109EA5627198958A628B82828A6F89768E93
S21400042095708D90AA9F6B8599936B619CA5818230
S2140004309CB69FA1A8959A868A827AA69D7B7C9474
S214000440AA9676737C86756C8B938C6F8399867A66
S214000450586A6870704B6A89706C527E91637963D3
S2140004606D85756F67807E6B756C79836E797B8919
S214000470925B718A7F7C5C7D8B64636563706D794B
S214000480657995979296AC9B828C8F868666708FE0
S214000490917F757D91867F806F6F8EA3927C9EAADA
S2140004A08D958B958E7F80898F868687948A8580AA
S2140004B07973788971738C9B8765859678797D8149
S2140004C09380847C82857E7C806C82795972767576
S2140004D0654A70976B5A789CA088888E93856D6065
S2140004E0536C6D5464657E855D678F897B5C6EA7F3
S2140004F08A75859DA982737D81826E67698C9D95BC
S214000500868BB0A368628381654E6689876567942B
S214000510AC917377969B9186729BB08C7976ADAFD3
S214000520786B85A57D5568928A676C92A2998B81B7
S2140005308A9993785F798D85676DB19A695B7785BF
S21400054052414F7382667794ABAB89808678705938
S2140005504E74808A706C9CA1756083846B586D9213
S214000560816A80929C9A7A74828782726A88988856
S2140005706A7691744F5D70726C617C7157597087A2
S214000580889DA7ACB9A6988781968A897B8AA39905
S214000590998D8376666E856B4B719B9C9DA9A9A5EC
S2140005A08D83957D776E757B6772747872708360C5
S2140005B0608D7F65557A8D747E788D7F5E6E675A06
S2140005C05F696F647182757D899F937CA9B7996F07
S2140005D085B399979596A2879790808F9387667034
S2140005E07E6D6764918E69807B7C566CA087887C64
S2140005F07A90738E82657F797859628378656B7797
S2140006007962808361626B94797388848F8791990D
S214000610739299826F7498806A7C7D736A8DA267E4
S21400062070AFB393808A8B665262645D7383705436
S2140006306F8E6D537B816B738FB37F7DCBC5A79D0C
S214000640B0C19B8C928793979870578FA07E778EB9
S2140006509C78698C817380A5A58486908574858333
S21400066062767F835A53A1986F6563755C5E653DBD
S2140006704D6D806F6A8D92726E806B617A8B7E5B39
S21400068074A582787079786A8972587493906C75BC
S21400069096886F7D94757C99996247838D6E626AA1
S2140006A0776A76866460819E8C7293AE9D92ADA9C1
S2140006B08A99BEB47A7EAFA9847B8D9281928F7020
S2140006C087A9B1817BA1A08384957F7788A3755382
S2140006D08AA491746A776B71825B4E6C9380586EB5
S2140006E08D82697178626589854F5483906A6474D7
S2140006F0756F8487637396A4785885967D716B6F43
S21400070068748D6A4F709B917276857B7A7D6B518B
S214000710709889505689897A77787D869F93747AFF
S2140007209EB288848D959EA2997784AABF9A638C80
S214000730A69A937F8F8EA2A3796B81A49674707904
S2140007407A76826C5E869C936360808A786B6C7522
S214000750879585695D858F71625777746E6F557260
S21400076094A98B577B9A9579697278857F715B71AE
S2140007708A806D63778F827C717592ACA670637386
S214000780877555596E7D7784705E919E8E6E6F96D6
S2140007909B847074809EAC896E84ABA67D75839EA8
S2140007A09F97A37D87A1A8916F909E8A6E707B818C
S2140007B09F8C705C789C816867858B7E88755F6A85
S2140007C0867B4B5C7A88674C6B6587918077699EE1
S2140007D0A38984819E8D838A72626D816A4F658249
S2140007E0816A7E857D8E8C95727AA7987B627C85E1
S2140007F06E71695C546A7C5E60808D7B6E848B8DC6
S214000800919196778CA796837B9D98869891847A0B
S2140008108B9076779292767294988B858E88748475
S214000820918475789385707E80867974786B6F8CEA
S2140008307762728B8D736C849171708688878395CE
S2140008408D787F7D7F68606763757A6B636F858759
S2140008506C5E84A397787A93969886867673816F73
S2140008607370647D75796D6378748C7569767F991D
S2140008707E83928D9E7C8E997B95888B6E6082732C
S2140008806B636D8372828E86887F97A69396A2A2EC
S2140008909D95A78F788381714851766C7274827BA0
S2140008A0618D977A666CA1907E989D9A838E9565E9
S2140008B05A72795D485D656E7C75786381A48C7725
S2140008C080A3AF948A9C9F7C8195845B5C847F5CCC
S2140008D04F6A7E786C6861678296816479929B8A9B
S2140008E06F8B9699A196896F6C917049506A7C6758
S2140008F077857D91A2C0977289A3B28D7A9A958EDC
S2140009008780735D6B76655B67787C747D7D6F7BB7
S2140009107F947D61849095848294899395847C707D
S21400092080846F6B635F6573756F7F8EA1A58F8202
S2140009308F8C8988747A7E8F9A84877C7F7F6664A2
S2140009405E5B717783798099A19F7E79867F8680AA
S214000950728C8E959287817479735751687076740D
S214000960757F7D8B988271687B8D87828797A09F25
S21400097093959A968B7D6159646B5B5359727C791B
S2140009808E988375809294868293948C9898978597
S21400099083795A4D565966575E7E8684819B8B6551
S2140009A066799F8A5E78959FA89695A6AAA9867C62
S2140009B07E89A5968D84718889827C5A61728D9015
S2140009C07A77848E948D7E716A6F775C50537597B4
S2140009D0746A566A847C8B8C918A7D948671738344
S2140009E08E88877E8482897D636C6A747361725C8C
S2140009F07D8493B2998C7F838669628295958A807E
S214000A0085978B88707484817D747D6D5F6A6F7A3C
S214000A106E535762806D5B628789817E889A989F45
S214000A209F92989A979A8589808D9AB1AFA2968A56
S214000A309CA48F8A84808D949A898F9EA6877874CA
S214000A40828268736A6A7A828D74635F6678565E9D
S214000A505C586E65605E6F909480545A655D605415
S214000A605E61637D8A7F737187878671727C8986F3
S214000A707D7A89A6A1897E675554526E706160841E
S214000A80A7A6928894ACA49596969CA4A3ACA29193
S214000A9099939271544F556E664E556D94A9907EFB
S214000AA082999D8F918C94ADB6C3AFB3C9BEAA91FF
S214000AB0798082897B676781A69E7761718283745D
S214000AC06D6E839097877375897F654D4653595829
S214000AD05246436D837F72728891857F69626F7C10
S214000AE07D6F6872847A655C6462675A585C61865A
S214000AF092858C8BA19F9595797B8396998B838B1A
S214000B0098937E766773786D6F7285A09E929180BB
S214000B10848C918D7B6B809EA18A7C819489838353
S214000B207D82837C7C8295A39C91939698A8AAA9A3
S214000B308C8BA4B19D85878D90727173636A68698A
S214000B406D6C8C8D817A7F7D717C85725C61888A04
S214000B50626C726B5E4C695E41545865666C726876
S214000B607480877F7D9B97807F8D9F867F82786A43
S214000B705B6969504F5D7C7B7C7F71838C94978723
S214000B8098AB959398ABA9A299887977897E564AAF
S214000B905A6F837C7F7173848A8B8C898C878B9841
S214000BA09490A19C8B717E9A947F6D8A9B9CA19851
S214000BB09D9C98A39399A38E87888F81727D7A6D6A
S214000BC04F5A7D645C5867736E726564768B8F8847
S214000BD08C93887D838C7E7676745D5D61655539F1
S214000BE04C59626E64626A7E92928F979992908B4D
S214000BF08B898E897B7073796A626E6471808B8054
S214000C00718DA2988E92A0999792908E86956F5E1F
S214000C10696E6756667F867F8A8B6C7E95948C7F1E
S214000C20949796A7AA968C9C997C7380987A768BD4
S214000C309EAD9893787689A29980898F8D93918DB1
S214000C407A717F70586273675D5D6F726F68604D12
S214000C505C777A787979818082826D7577716D623A
S214000C607B77716F627B7A7C64677B83938F8E88D9
S214000C7072848D7F73767F777374857970797C87BD
S214000C8092928C7F8F9CA9A2A4A98E9690967F5C48
S214000C906565524553676062657D7E848F737F8687
S214000CA08F9D91A1A09CA19BA38F8F9385807B860F
S214000CB0898D9B9F9B9DA49381737582797D7A8095
S214000CC099928883786D625C60655C6872808C7EC1
S214000CD0877D75777484887E777389887A716C6A65
S214000CE060645F595F6064646C6C74848286748030
S214000CF09A9B948895AA9F908D887B746B69655C97
S214000D006D6F6F726C7E8E8F908B9DB0B095829358
S214000D108F7F6D6F7A6F7D83786F6B7D7C7D787546
S214000D20777E8C8271838C918288ADA69898928CFF
S214000D30868B857B6E838C878A858C8085867C7D7A
S214000D408D9792818A97907B736F5E666D6A53511A
S214000D5069716E6574767381766D7287968F8FA3D0
S214000D60ACA49691806B68685A41576F71716C7528
S214000D70797C8B897C76888F817C82948A7B81883B
S214000D808E948A7E6A7C857D84807F7F818B7D7051
S214000D90656C725B758C9EA8959390939875605859
S214000DA065666C767D7B7E8D93868C9CA094829502
S214000DB0A9ACA49A8B8A8D84756362655A6C75811A
S214000DC07675927E75778D8E757D92A59C8F957CB7
S214000DD0717873675D6A756C78807B746A7A6D70FB
S214000DE0787D806A8188818982898377959F8F83C1
S214000DF0828B7D7C81817666766B62716F7B6F7F7E
S214000E009B95A6A4A48768797F7467646E6A7E7FC4
S214000E1082757188747F828F9C9493929B978B893E
S214000E206F6A6A686D6C6F726E8495888A878F7D2C
S214000E3061697B848D93A4AEABA29E8A7675767527
S214000E407B7C7D8A7C8878716A625D5B6470777F64
S214000E50869E9B8989838B6D748B7C737083866D6D
S214000E607E8896776C7362726E737A7EA0B0A99B4A
S214000E7089816B5E746F6D6B737E728A8F9D967CB4
S214000E80898189947A7867799D9891857B776E6950
S214000E9068657069767884989AA57F6066607770D2
S214000EA065767FACC1BFAA8F87756974717B7170D8
S214000EB0806A7E8E927F5A7178797E72787684A266
S214000EC0AB9F8D877F6E706E74736B7E7D87A39EDF
S214000ED08D716F6D67737D7F737395A3998B70713A
S214000EE05C62706E6F5C698183A2A29DA188847526
S214000EF07B7F7A776D869C9DA08176686274767B10
S214000F00726E8B909D9E89876856605C7381859013
S214000F10849AA4A1906E726F798A84816C6F8382A2
S214000F208E837D78626D5E677879897B95A39A99C2
S214000F307F7A7771898A8D827B8D8B918D7F76659E
S214000F4068676C7F79817D8391868072686D697130
S214000F507B7C7D768E989CA69E8F7B757467696C6D
S214000F60777F899AA18C81716D786D797C858B8A63
S214000F709A968F866D685B63666877818C9495A871
S214000F809B86837B8C817E83777F7B8793878B731F
S214000F90686D5A5F585C6D758F969D9F908F86859D
S214000FA0877C7D76788281948A87897F7C6E646967
S214000FB06263727F868387898A888587806F6E746E
S214000FC07F88969A999DA69671595454566C838933
S214000FD0878F989D93898980696A74757972767A05
S214000FE081928A7A64646F6D7F8485898E9CAAAAB2
S214000FF0A4948D7F6C6E5F62676E7E8A8F877D6B32
S2140010006970696E7581878E969CA195988E847797
S2140010106465606B76768189968F8D958F81606921
S2140010206E6D73737988929A9284715A5976868215
S214001030798F9BA3A292927B7B796E797778757273
S2140010408A8C8B85837F6F76736A5F5E74858B91DF
S214001050938E8E8D88837C797F8183868591887E2A
S214001060807C7C6A686A717B7D7D7D8482828581D6
S214001070858E88837566728289888381898D847B54
S21400108073717A81898B8F8B9091837A7F7A706463
S2140010906876757469686B79858484868B979E9963
S2140010A0897F83898C83807B726B6B6D7776736D9B
S2140010B0808A8B8A8286807C8B8D7E77757B7B741C
S2140010C0727D809192898A8D938F86827E757E7FCF
S2140010D080787C7F756E747475787F7A758688895B
S2140010E07F7B7C7C85918D83868D8A8075757C81DF
S2140010F0898D83747D8280796E788486867D7A80F9
S214001100757574727D817A736E788389918D83800C
S2140011108F948E7E737781827C787D8582797B7BC7
S2140011207A7A727172737F827C7B76757581847D24
S2140011308494A2978C8B8D8F878380737A7B737051
S2140011406D706D747E89847E84887C7176819088CB
S214001150817F89958F8478757C7A8383898676816A
S2140011607B80726F84807D7B7D91918A7D7B7E7E85
S2140011707C6D6F6E65676C788A949698938F8C9367
S2140011808D827D798F9487857A73696567686370C9
S214001190737A7B7F8C8984827F7D888B8384888D1D
S2140011A0938080867F7B7576786F6C787B7B7E8D70
S2140011B0918C837C81777D786E7B88938E7B797A21
S2140011C0747781898B989492927B7F706E68637136
S2140011D0797F7B737D8084808A937C867477868211
S2140011E0888C858A81918E8C727175987D7CA87C9E
S2140011F08B7D71706357684E666D8E8F8B9272937F
S21400120085868A81839A8580A98A84967E987F7E41
S2140012107B3D7565646079A0728E8A9F8967656A72
S2140012207B65716D767E7E7D787F746B73777F8944
S2140012309FA39EAAAB9BA39D8B8E818490868D8C4C
S2140012408A9289877F7773605D4F59685F606461B3
S214001250686054534E54505860606B75787C767A4C
S2140012608384848998A5ADB3BFCAC6C2BEBDBEB3CB
S214001270B1B2B3B4B2AAA6A2938B8982756969711A
S214001280665A5452504541413E3C3E393B3F454AE2
S2140012904A4F534E535D5C62637885848E9BA3A051
S2140012A0989897A0A8AEAEA6B6BCB8BBAFA8ACAE92
S2140012B0B2ACAFB5BDB3B2B5B3B1A69C938A8384C6
S2140012C0776A66656A55515145413B3A3D404751FC
S2140012D050525756574F4644484C51555865767CA1
S2140012E07C7E84848C919796A1A7A4A6A4ABA5AA7D
S2140012F0A2A5ACAFB4B0B1B1B1B3B2ACA5A49C9941
S214001300999793989C9D989390868476716F6F6258
S2140013105B5D60594C4E484B47484F5254555D6193
S2140013205D605752595A5F60677167666D6D6E7281
S2140013306E6F727C8B929D9DA6B3B9B3B1ADA29B26
S2140013409E9FA09B9BA0A3A1A3A8A79D95959894BC
S214001350989E969A94918C7F746A696E6A67707389
S214001360706864676A5E534E5151535B67696C716F
S2140013707B7B7A6D606369675F62666B7073787D8E
S2140013807A74737D80898E94999CA5A59F9F999366
S21400139094A19E989DA1A9A49D9D9D9D968B8C87AA
S2140013A08D97938D909697968B83776F756F605D0C
S2140013B0656F726A656C6D6F6B6A6C7070746F6B5C
S2140013C0716B6A5C555B5D6365615F6A777E797495
S2140013D07A787B7A7A787A81878A8C95A49F9486A5
S2140013E081908E85868B87868C959A9089898B943A
S2140013F09097979992949A9A937E777D878C838814
S2140014009899959798938C88847B72687A7D7A7879
S214001410747F7C7C6C65635B6161565D6A746D6429
S2140014206B7E756A69707C7D7A7573777269645DA8
S214001430555160696C6F6F8897918D859591746F23
S2140014407C8B8A8380868E8F949B98908A8B8A91D9
S214001450908D938A8F9799A09489858F99A39B9551
S2140014609595918B8C7E7C7A747579868E8F8E8C12
S21400147092989F9B8E81877C72776F6B6663676E90
S214001480696465656466657075716D707579797384
S2140014906B737C756F6A6B74726A70666A716E6F56
S2140014A0666B6A727F79807F89908F8983888F893F
S2140014B0817B8A9391868C918C8882878A838389A4
S2140014C08B9598999B8F9499989E9291898B918DE4
S2140014D08C8083827B80787D847C86848B9F9A98A0
S2140014E08D888D89897B787869656A737267686983
S2140014F0676D6F756B656A6E7C897F7671757A80AD
S2140015007B7973757B7D7A75756E655B60676B6AD4
S214001510676E6F6F778289827F818795938C8482CE
S2140015208D857F81797B76747E80888A8A90899083
S2140015309092959298908B8E979489878B897D79D7
S21400154081838486858C94968E8C8A8B8C878E94E9
S2140015508B87898D8C82737C82807464676C6E69DD
S2140015605F68737E867B86867973737A7B76797EF0
S21400157088857B786D6F64575E6E6E6D70767D7A4B
S2140015806B717A78746E76878B8383848C91897B73
S2140015907A776F6467747B7D7C898F8F8C868B905F
S2140015A0888280868A817F8588857D78798687820D
S2140015B083929D979091928E878C908E867A7B836D
S2140015C07D757A859695877F7F87797070777F7926
S2140015D0808789847E798688847974837F7D7B7D05
S2140015E07A6F666E747B787376787B76716F797FA8
S2140015F0787C7E79786F7374767D828A827F7F802E
S214001600837D7377767E83787A7F838583898985E1
S2140016107C79777177716B6A717E80878B8B9493F8
S21400162097958D8E8B8E9192897F74706B65687797
S21400163082828280868F888480818F8C8B84827E53
S2140016407B7D7D85898C89807B7F7A7B79727979B1
S21400165082888081808987878785817F7B79787F6C
S2140016607F756D67677078828177818C8E847C79D0
S2140016707F868A847C71797A7A8481867F78746B97
S2140016806F6E6B6C6B788786837F878C959C9C953A
S2140016908F93948E897B757068635F6C747A7573AC
S2140016A07D8489888287848E908E887F7F76757BFE
S2140016B08289817E79757C7E807676797B7F84864A
S2140016C07C7F889192888C877E80797F7B7E7975F7
S2140016D0716F7B7C7F8385888987817D818D9389E7
S2140016E08789897D7C7A797C82858280797471721B
S2140016F071727079807A76798392999B9C9A8F8C96
S214001700847A7D777268676D717B7A7B716D777C82
S2140017107671717580949A938886817C74818987A6
S2140017208585848181857D6D6D6F75757A817B84F5
S2140017308D968F9092897C73757570777777737BAB
S2140017408C9691897E7E7C75757B86918B82848251
S2140017508078787E7C838A8C887B7D7A75787875AD
S214001760717A7B7A7880928F949E998B8181857628
S214001770797C78757A868B86837B717276716A6ED1
S21400178079837E848F908274787E818992958E8903
S2140017908176777B776468727A7C7F8A867C828D96
S2140017A08D857A766F6C707476828B89848389894E
S2140017B0797A7C7C7D878F8B85868578717379783E
S2140017C07D7E83848E938477777D7C7271797A822E
S2140017D08A8B81899495887E797B7776786F7989EC
S2140017E08E848486877D74706D6F7780837F7D811D
S2140017F08885817A747C8283848E9A9485807D78AD
S214001800726F7173797B85878C918D8984818079DD
S21400181072746A6C7A827F7C84847B77797B7D8421
S2140018208A8F8E8D8B8781797972767A7A757480B5
S21400183089827B817F79716D7279818182879095AB
S2140018408B848281827E7D7E7671838781797D839B
S2140018507D797473757E7F7F838C8C80807C827E9E
S2140018607D8582828089908680827F756A686F7C9B
S21400187084828088919586807F807E7C7B7D736E57
S2140018807D827F75787C7C7A787B848C8982868E54
S214001890897D7A82857F79817E7E7A82847C7D824C
S2140018A080786E6C6E7C7F7C7B828C8885848A8850
S2140018B08583847D77777D837F807D7F7B78767058
S2140018C0757A7E82858A877C7C86837A767C868615
S2140018D084848581837C7C7D7E7A6E7684897F7C19
S2140018E08286827E80857B7A85827E79767E7B770D
S2140018F07A7A7E807F7C7E8586807F7F7E7B7588F9
S214001900897E7A808E85797B7C7F767B8987817BD2
S214001910787C7F77767B80867D868B8780757F87D1
S2140019208480748089807D81857D7C7E7B808488B0
S214001930847D7B7B7575787C7879838F8E897C85B2
S214001940877F7D777C7A79817E878686837A7B7EA1
S2140019507B77757A80888B83776D76747171828DCC
S214001960908F90938B8580847B6D6D7576716A7C85
S2140019708C898383848D8B8281868B7E7372828032
S21400198075777C7C7C7B7A7A77757F898F86828078
S2140019907F78717C797C7F7E85848F8D80797B8152
S2140019A0766F6F6C6C76899A97918F8D867B74753F
S2140019B07876767C8A93978F8682817E7E7C7D7908
S2140019C078848C847C7475726F757B86878C91970F
S2140019D0968D847979716E706C6C6B748185878B4B
S2140019E08F8A85837D7E726A6769727174797C7C62
S2140019F07A7F7F84867E87928E8E8D908C837E7E85
S214001A007F7D7B7979828C929192897D7D787978B9
S214001A1075777E868B9094A1967A736F6A756F70D1
S214001A20768995908DA37D79857B9075706D77739B
S214001A306C5F5B617C7B6669747182A1968A7E7836
S214001A407B7C726F6662666B747B858A848C8F95EE
S214001A507A687473837B7C7F8E94A1AEB5B9A59C9F
S214001A609A9C999095A9AEA296989783727472786C
S214001A7076807C7A77747A70614E4A4F676C5D6FB9
S214001A808384837B7B85837D7B7C706C6C7C8B9E68
S214001A909E9D9E967C6C6B797B6D5F54585F676BE2
S214001AA07577767D8591897A828188817B8579773D
S214001AB07780898E887B777E777C7D797A6D69776B
S214001AC070696262738389888C909AA4A3908878E0
S214001AD0697463656569728A9E97A19B94878288FC
S214001AE084878596A39D9B9190949B9DA3AFB0AA57
S214001AF0AAA49A9E8F9DA28A8B8E88858B767A8ED4
S214001B008584897C645E3B3B39181F2F404D656D8C
S214001B1071897D7073746D6D65637965616A6A76C7
S214001B20787F787E826E767F7E7E7375827A69662F
S214001B30656B777C797F999790A29C90847A777D65
S214001B4070758FA0ACA8A79FA5A07F878883808C80
S214001B508E908D797D818E838989A3B4999D9C9979
S214001B60877E7D787868717C8B999A9C94A49788F8
S214001B708B8779726D76816F69748CA0A7A9A5A9E9
S214001B80A6999D9E958D877F867567696A736A7527
S214001B907478836A6466616349454A4938435A6380
S214001BA0686B6A6F7F7C756E655C58586562606BA3
S214001BB0879692918878817C6E7B7B746B67726C5B
S214001BC05C596D7679848D8C9BA792A19E888C84B7
S214001BD08D8E817F959B929699909CA1848D9990ED
S214001BE08981878E7E7995A299A1A19B9AA59F9AB5
S214001BF0A190817774796A576D7D889E9D918B85BB
S214001C008582909793828991886E7F8F869A939625
S214001C109B9A939B8A8183787A7C76627380798399
S214001C207B746D6C5B6A6B5B62434140492C345637
S214001C305E73757E76766878806B706A6C71785F96
S214001C405D7478877D807E756B6E7F6E81706F7534
S214001C507C766478788A7F888A8F8799AA97A08608
S214001C608184848277808DA4A29B988F7F859793AA
S214001C70A9979099948F7E808E9D939898968A883F
S214001C8098798277787D8183797C86958C86868321
S214001C90787C989C9D947F7B7379707585949BA3C4
S214001CA0A59F9884959891918482796D645C6276FC
S214001CB07C7270716A53555B5052525C5C60575729
S214001CC05A646D5E6566726C717F82807265676845
S214001CD06B6E7081968C85857A6C68818788857B2B
S214001CE0797771696871898A8A8D908D8384858BEE
S214001CF08E8D9AA099978F8F9C8F858E8D908B9FB7
S214001D009D9C92817C7A858187869F9F989B928DE9
S214001D10817F878C8A7C787B807B787A909C878E84
S214001D208A81777E848589888B8D95888278838A58
S214001D308086989C959095908B7B676B66686E7294
S214001D407D857776756A595C6E6C68605A5D6255FB
S214001D5055536677746C70635C55616A6F7C8186D8
S214001D608B8579797A7F737484897C787E857F7297
S214001D706F6B7478797B808B8A8486867F81868B6E
S214001D808A8785898F8C858B9AA8A99F9C90807757
S214001D9078828789858E95978987818889899CA38B
S214001DA09A8F8E86817D7373787F7B7B818D8D7F06
S214001DB083908E8B949B9786787B81777A7E858CB2
S214001DC096908D887F7270747D857D818B847C74FF
S214001DD06C6F7371768078726D6A686461676F6C19
S214001DE06C686564655A58646B74797B79776D7135
S214001DF0787E868784889895837C6E646066727B1E
S214001E0078808584878686848989848788887E6F9B
S214001E106C727985949C999189868A8B838D8F972D
S214001E209A94918D7F7877808891908F9A93878007
S214001E307E79756C737676787E81838381888E91C1
S214001E40878D8E897F757A767D838D959792847C33
S214001E5085847073808C93918D837067667B787FA2
S214001E608A8A92918273706964666A78776C67630F
S214001E706A676F7C918E8174726A6A5D5D65728333
S214001E8084939189766A7881767C868C8B7D7B7E3E
S214001E90766D73828A8F8F8A8C8E817A74797A7146
S214001EA0747B767274848E8B9192A0A1978E8182B9
S214001EB07C746E7880828E91978F8C838688807DE6
S214001EC0808384796E6F67656477888D978C8F952D
S214001ED08C8C7F7F837F7D7A7B74787D888E9492CE
S214001EE09AA3908173727669666D797D7D7F868B05
S214001EF08E80808A848C85828178736C6C5E5E6B43
S214001F00758381877D8F8A7C7B6E7979766E6D6C22
S214001F1064737A828E958A968D7C826F70707377E2
S214001F20868680928789919476858E7E8D76747764
S214001F306D6764665D7E8884959B91919A848E8792
S214001F407B8884897A736B798B838C9C96948F7E3E
S214001F50766D5858656E7B7376798B827E9B938AF6
S214001F6096968F9483657274736D686E85917A9475
S214001F70978B8E8D8681806C7A827E7367727B8B60
S214001F807986928B85797469705C6A7880877B82A3
S214001F907D827B88969395918D80765D5663606C86
S214001FA069717A88837F8F8F8F928F898F817A88E5
S214001FB07F7F807D81888C83928F817B716B6A6640
S214001FC05D757983867C7D858A86929E9397988AAE
S214001FD08773637477757A7A828A867C859088811F
S214001FE0847D7D786671746F7B797F8788868C9810
S214001FF086787B747A746874828085837E878F88FF
S214002000909F9A938A7C75705D6270717678767808
S2140020107D717989898689898E8976727F808484A4
S2140020207C858B827D8379766C656E706D69787D34
S21400203081857B848C8C8D9D9895847876726D6175
S2140020407B81898E8885898580888284847A7E745F
S214002050706470797E89838789887F8C8385807495
S2140020607E8181747A7A7F847B8289928E97918D25
S21400207089726B69665F6C767F867A767D85828CE0
S2140020808A8B9280817F7B717B848E9E938E8586E1
S2140020907B7A7471766C6E797C7475787E867F82B6
S2140020A0879290908F8B8A756A6A706D737A7E8C31
S2140020B08383838B8C8D8E8889796C686961667260
S2140020C07E928E878385827D817E867F7C7F8280DE
S2140020D07D84818B89878D909288847F7F726763E9
S2140020E06A6B6E767983807A7E858C8F94969289D9
S2140020F07B767773767D87938F857F7F787472750E
S2140021007A78747374747176808A8E8B8E96928DBC
S21400211087807D6F6B686D74747E868C8B84838DF0
S2140021208E8F8C8C8A7F756B6A6B6975808E8A82BF
S2140021307C7E7E7A81848C87858381817A78818A89
S2140021408F8E919692877C7671685E5E6268696C07
S2140021507980807C7F8A918F9290948A807B7B8125
S21400216083868F949187807F7C78797B7F7D75725C
S2140021706E6E6D6D75858B8D8B8E8D888078787480
S214002180716F717982888B8F8C8C8E9498949088DE
S214002190857E70636364656D787C7C76717070761E
S2140021A07C848281837E7E7E80828D999E9F9F9F87
S2140021B09A9284827E776C6A675F61666A6E706FD9
S2140021C0788086878785837D75757E7F8387919BDC
S2140021D09A8F8F898481868C8A86828281767A76A7
S2140021E07B97867A8B7F6F6C5C5C62635D646867E6
S2140021F0787D81939797A6A6A59F988A7D74636A33
S2140022006C666E7E8B9C9DA38A91A788848E71696E
S2140022106852555A5E5866707D9693939790898B50
S2140022208786838076727C7E888B8E969D9C9A8627
S214002230809670546058595A505F7B908B89909066
S21400224099908B999A8A7D706E63656770808A9480
S214002250A7A7B1A69F6C75965A4B594D5E826488A7
S21400226091987C9B7C8F8665784D714E6640527F38
S2140022707883819491ADBDDCE3E3CAC2DC9B7461D4
S2140022804B595B60655B6F6A64565F6C555D515079
S2140022906A59444F647F788994BCBDA6A0C2C9928F
S2140022A09F8BA3A47D84637E86808171707D826906
S2140022B0707173787A80A1B8ACBDACB7B0B29794A1
S2140022C09994A59392957E8A8785957E73786B619F
S2140022D06F554E40446562493F4D675E5E5B689F42
S2140022E095958D7599C8AD98819EB3908E8F828393
S2140022F088677B7967765C5C5F62645F5B66756D3A
S2140023006B66818981748F9493A5A2B4B5B2ACBA7A
S214002310B8B7C5B6ADA4A8A8A59DA0958B90877D97
S214002320706C5F605D4E52624843444E4D49444D6A
S21400233049505B4251535A6A5E5B5B586F626C7DD4
S214002340847BA2A497AFB6CAC1D3CEBEC1C2C0C05A
S214002350A7AAA8B3ADACA7ADA79691969C7F8269B5
S214002360716D5F625A575542484F48484648444147
S21400237050454B5C5E535657626D66736E848D8116
S2140023806F7A908E79787975848F7984A19CA78FDF
S214002390AE9AB7AF9CA58D989FA5A4B9A8B9B1A7CA
S2140023A0ACA6AAA0A6909C9B9292908E80806F6D01
S2140023B067675A4F5765735249624E46403D4D5BBC
S2140023C05A4B455C6A626761636D65635A628770E3
S2140023D0758A7E8E9C99A1B2AEACAFB29B9EA9A622
S2140023E0AD939EA3A89FA6A389A6A19E8C7C928C43
S2140023F08E7D7C90817362726E7B6174817671656E
S2140024006B6A797161635B5C7762676F776E6B6C22
S2140024106A726460646055624C5E74757C7579801F
S214002420848593877587837C7D919EA1A09697A2CD
S214002430B0A2A8A0A0A3A6A4AFA4A7AA9B9A928E77
S2140024407A98988D838885928A796A6C6C5A7263BA
S2140024506B61706F6E7374645E66645A525856672A
S2140024605B5F626B7F7A73788374797F7C79716D3A
S214002470777E818180877B868B837C848386878C2E
S214002480947E87858F8E92909188918D9197939C5C
S2140024909E9687999D958A8F95A3A5A59FA1A19F96
S2140024A0927C7C7074746E55636C756D75757A82EB
S2140024B06C7272665B69696B74776D6F5F777B7C35
S2140024C073726A6B81717C7D75757870706A6E74D4
S2140024D0767174807980826F71866E6470717A7797
S2140024E07E858B918D999D969891868580758A8A32
S2140024F085979E9DA7A8AAACAB929A9B909C8A8C27
S2140025008A8E8D85827D837A6E7E6F6F7E7E8582D3
S214002510807C85706C7B72777E777981807D847E07
S2140025207575706E6269776365668281857E6C6498
S214002530627467665D66575A5F666D8577767E7DE0
S2140025408C817E727F7B848D8185908B848195873C
S21400255082817B8781909A8E90938E8A8888868CDB
S2140025608F9993949DA68F918F838E828883899569
S214002570909093A19C9398877888887772757477E3
S2140025806B74808582897875817F7571747C776BB2
S214002590716C75757D73696D6C6D6D6B6E77747B24
S2140025A07779797368777B70737D737A7776776DD2
S2140025B07068655C646F636988858A8C858A89899A
S2140025C084807F8B87777F8C90938B939695948B64
S2140025D08E8B8F938B948C849291878B898D888336
S2140025E0808D91848C89878E867B7D84807A897B9A
S2140025F0868A7D817E7A837F77766E76737C7A781C
S214002600837F8187868D897F7A7A7C6F6762727610
S214002610716D6F6C796A596668736C6F6876827ACA
S21400262084867A82767D7D80847B86858189887D96
S2140026307C7F8283847C89868589848886797D7779
S21400264082837289777983777F878A9595A09C980D
S214002650928987858A81818B898881797F817F7B32
S2140026607B6D7275758483818C8580837B807E808C
S214002670878C8F87817E807D78776D777C777B7B74
S214002680807E756E6F707773757E797A726D746EF4
S2140026907E817B888C878C8882898B807F72728013
S2140026A07269737672746B6B6C695D7289818E97D2
S2140026B091948986848B8E879A92998F84897C8060
S2140026C07577807F82808382806F7171797B848842
S2140026D08A89837A777E8082878C8D93939D989063
S2140026E095928A847F7F7B7A797F766B776C626639
S2140026F06D676A72788289898F8A7E88807F8283F6
S2140027007F83897D807C7577776F757F7F7E807B02
S214002710817D6D7073787A7A77818278777D807E16
S2140027207F79828C8A87898E87827B7F80787B817F
S2140027307D818672747C77706D74777979818A90E2
S21400274094978A96968B92938B89988B80807F79C4
S2140027507577797A7B7C7872757F746E7B797B7EF1
S2140027607B7E8784807F8185817E8890898A91851B
S21400277082887D777F81777B7E82887F797A767381
S214002780706F707E7E778085888D8E898C86808936
S214002790847D827B7277726D737973747C7B7F80A5
S2140027A078817F7A7E7B7C888884878683857E8115
S2140027B07F7D838887848A847C7D847B7D7E797C0C
S2140027C07F7988857A7E7B77706C6B6C7A7E7F8962
S2140027D0868E8E8B90938E87898F8C8D89827C7F58
S2140027E07B77797A79797375776C77797B78798165
S2140027F0828C88868A8C89847F82887F878F8A8D60
S2140028008B7D7A7D75777F7E85867880837A7A77EA
S2140028106A6B73717A877B7B8080848B85818580E9
S2140028207F82818D8E827D7E75747577727B7C77D4
S2140028307B7379777776808D8C8F8A8B8A837D7A87
S21400284078757E7878878B888A817B807977807D9B
S2140028507D8884828B7F797F756B6F6C72808280B7
S214002860838B87807E7F8887888C8D9290898085F1
S2140028707D7972747678776A736E757876717E83F2
S2140028807F8E8F9298948789827C7F7A78848889D5
S2140028908D8B807D7473777C8082837F82807A7A4A
S2140028A076726F70727B8281878A88847B7C818354
S2140028B07D81868C948D89898881787572787A7501
S2140028C07474757774717E7F80898C88878A7F831D
S2140028D07D75717574787C808B8A827A7F7E828023
S2140028E0828C8D888784888681736E7175787C7AF1
S2140028F082887A7C7F72787B78818C8D8E92898AAA
S21400290084797C787273736C6F7271777A70777A69
S21400291081888D8F919491928D877F7E7980808536
S21400292082837E797B6F72797E80808480817E7ED2
S2140029307E7E766E767A83817E7F807F7978757CE0
S21400294081818A919194928B878780787573767847
S214002950797A807D79766F7278808286837F8785A4
S21400296080867F747678757F868287817B827B7986
S2140029708382888E8E848C8B7F837A70797D7D7F30
S21400298081747B786E7877767D85879493898E8838
S21400299082807B6C7273727974727B7E77737677C3
S2140029A07D83848D95898D998B87817779807E7BD1
S2140029B080808983707170727271717A817E82876D
S2140029C08A89837F7F8286837F7A7B7D7E78757C0B
S2140029D081888C919499938B857B787771737D7EB3
S2140029E07B817B757A73747D777E84848688848405
S2140029F08A837B7875767E8085878386887F7576E2
S214002A007A77808580858B8988888483837E828098
S214002A10766F6F6F747374757C82858C8E888588EC
S214002A20827E756D6E737676807E7A7979757D7D19
S214002A307D838E93958E89968C807C77797E7B7F3E
S214002A40868581807B727169656F6A717F858892E1
S214002A50908F938D8688857F7D7471777170777877
S214002A6076808481898A7E8584807978787E7D7D6B
S214002A70817D7C73777C8888818A90908D8B848614
S214002A808A847F7A7C7A83818B948A8A878A777015
S214002A906B73777680888A878A8485848480757548
S214002AA0716A6261696A6F6F727A7A7F747C7C8001
S214002AB08982807D857A857F82808E8077878392E3
S214002AC092A59D92949C8C9190768482746F8B8450
S214002AD07B9B8F817E737C78605B5E6D7678706A98
S214002AE06986927F7A676A617B857B697880749055
S214002AF088968C88937B847F898776827C898F747E
S214002B006F6F717A776C68776C7788847A8E92911B
S214002B1095738BA3938AA4AFB3A4B1ADA0A79985F0
S214002B2084747A879894878A777A6C656469615F1B
S214002B305C5C4E45565D63667D76747479737593FA
S214002B40A094847A7F8C8B816771717073777578A7
S214002B50827B7A807F747D6F8081806B68817376DC
S214002B608D839097798E95918180858F9989848AB7
S214002B708280867F796A6064676E6D6D7477838FF6
S214002B809299ADA5A1B4B0A4A5AFB1A2A9AEAAA4CE
S214002B9095807B8070606569626B6C656D6460644F
S214002BA05F555D7B787F83A0A999A3A9A792939888
S214002BB08F8D847C8B8A6C5A6156534A4B504D4F8E
S214002BC0474F3A3D3D41495667768185878E96A5A3
S214002BD0A89DAAA5A19399948F8780807C817979F6
S214002BE0737872707A75717B817C81778B998C94FF
S214002BF0ABBAACA7ADA9A8A29F9D9A938C8C857BF7
S214002C0064716E6159596159606066676A66719051
S214002C109398AFBDBFB2BABAAFB2ADA5A1A495980E
S214002C208E7F706765534C555959515A6561656476
S214002C30666875798A9495A8A8A7A9AE9C9390947F
S214002C408472847E746B64595044383F54484555AA
S214002C505E574C4F525D55677585928994A49C9437
S214002C609DA7988C9291817C8883746D6861696B4E
S214002C70576974796E768C8B9292979FA3A69EA3C3
S214002C80B3ACA5A3A69B908D8D928E8683807E6F17
S214002C905A656E5A58647173677A747E8984898E11
S214002CA0999A9EB1B3ABA1A2A499948A9A9B8C954B
S214002CB09384785A6D625553526A5F59697B797A64
S214002CC07A838589878B89959E9189918C84787380
S214002CD08A7B81787479695C594B52474D575569A0
S214002CE06267686C6E6E6C7381827B85928D7F8066
S214002CF08D8A7D8088858D8888847D7A6E6B726AE1
S214002D00697379767E8D8E8E979D9A9FA49E9FA0DE
S214002D10A99E8C998E8C7B7E887F8884808680781E
S214002D20757174686D74797C7D82827F8D8C8593D5
S214002D30919DA19BA19D9B90848A827E7A7F8888A4
S214002D408D8D7D76716B6764656C767A786D7D8126
S214002D507876808187878F96978F8E8A8681736C28
S214002D606A7068686C74736A635B64645F67687CC7
S214002D707E6C6D75766A6B787A80838791867F82A3
S214002D808376787479796772878578787D827C789F
S214002D9076888C808590929387889A8784909AA16B
S214002DA094A3A7968A838A816C70797A776F717CF0
S214002DB0776F717C857C7E889B8D7C909386817FE7
S214002DC09295898C95A8967E898B8574728F837868
S214002DD084898F816F717175736D727B82797B8246
S214002DE07A7080777682868F9091919691897C7999
S214002DF07A72687078777475716A6B695C5A6A75EE
S214002E00706D7277797069727C7F777D8A88857E2F
S214002E1083828282817E8A867A8B8C8E867874788C
S214002E207A7D67757E867F6F85887E7D7985988CAE
S214002E308B90A79989988A8586818C83838D7B79E8
S214002E408476726F6E68717C6B7B7E80867E7E83F6
S214002E50857F86868D9F91869692858B85899E91A5
S214002E608B95929578797C6E6E65706B69737162DE
S214002E706471726266818D7B828EA0A18E8E8C9C20
S214002E808D7B869E9E8087898B7655716A4E5B61A8
S214002E906A5D5F82625667716D56728D7976828C36
S214002EA08B8B8F8294A48B89A8AA9D8F9A9D9271F2
S214002EB0808F666C72755C64806451616374536F56
S214002EC0876A9687828F93938395A19AA18C9DA9F2
S214002ED08997857A747A81726E8675797C6E7A5D4A
S214002EE0696F667085758788927589AD8096909EA5
S214002EF09888A7C3BD98878796917B765765807913
S214002F00734B55585D7C6058636A887D86928787C8
S214002F10887F878EA3907B8D8681727283615D73B6
S214002F206A6B5768695271674C5050685A5F6F7881
S214002F30918892AFA6A0A3A2AAA0ABBBC3C3B5AE0E
S214002F40BA947A756664727266656654394A5255E2
S214002F5046505F6766637F9286829193A5A7959693
S214002F609C9D998A886F71858785826A73635F7571
S214002F705E616E6D747D7E8B8585969698969AA713
S214002F80B0B5B3B6B8B2AB9B9A9C8F8A767B7368A3
S214002F9076615B645762695C6366778588877E7E48
S214002FA08078817F7886777572767A706F675F5ED5
S214002FB05C645A4F574F5B684E51575262656F813B
S214002FC08A8D98A8AA9BA59DA0A7A0B0BCC0BCB19E
S214002FD0A9988B7C647172756F6D6F6E565D605CC0
S214002FE063656E79847A818F9997A89AA7AC9F9C1F
S214002FF0A1A3949B8F7F85897C86817B756A6D6F84
S2140030006B6F686F747480817E83828C89899684E6
S2140030109D9FA19D9BA08F89897D8582696E686D25
S2140030206C65676067585A62635F737F79807B7BE5
S214003030767D7B6A7F7677766F7871716F6469715B
S2140030406068625C5E5D61676A65606C686B778607
S214003050898F9996A09C979C999FA1B0AABCB2A86C
S214003060AE979A7D827384787A81787A6A71636E75
S214003070666D6B857E888185918E95989A979E9AC7
S21400308099989A9093898D878D819077777D7177BF
S2140030906C766C76787881877E85827C7E7D7F8173
S2140030A08B898D93928686817C807E7E76747473FF
S2140030B0717273706F686C65656D74808687807DCD
S2140030C07673636D636A646769686A616A63736866
S2140030D0736C726D6C6F6E79747D7379767F7F8892
S2140030E091929292928F9189918F9A9EA9A59FA173
S2140030F099948A89858982898485827E797879728D
S214003100787780758A84828081898686878491967E
S2140031108D968D908586838B8489868C867F827833
S214003120857A867F858087838382807A7E7D788095
S21400313078827E8B7F887778737272717C70807EDF
S214003140877D807B7C777E787A7E7E8381867875A5
S214003150726B5B62585D5C626662675A635D5D6354
S214003160686872757C807D80878F868C8B8E8E8F4C
S2140031709595968C918C9480877D8B898E938E976F
S214003180808D7684788280858E8B8F858C848E86E3
S214003190948C8D928B958B887E82877A7B7D818CB2
S2140031A0818785857D6F776E79757E818F8E8A9310
S2140031B0869790908996958A92838A847D72777B8B
S2140031C07675737A817A7272716869676A776A7FD0
S2140031D0758989808E859685929093928D8E7E7F56
S2140031E068655B5B59565E5564595F5A5653514E37
S2140031F05E5B6570768A838C869D8A95909B979A8F
S2140032009E8EA18A8D82887D7C7C7D848287858641
S2140032107B7E767474707978888396919493979A67
S2140032209A9B92A19193808672797178757B7A7950
S2140032307D787C78786C756E707A7A878F929890A5
S2140032409E909995999793928F8B797D716F667002
S2140032506C7072767A7D7B77757370717978767D0F
S214003260818E88898C928D8589888C8182788371FD
S21400327070656C6C6C706D7365726A6C6B6B606697
S2140032807070767D7E838380837F81808D898D8B31
S21400329088868A83757F7B847579918C94928E91CB
S2140032A08F8878767880757773828A7D8781928713
S2140032B08F84828B87797C7D7C70768881899184E7
S2140032C08C8A80796E7B6B6F686F737D7A857B8264
S2140032D08A8882839894A2AB8987BB907789767612
S2140032E07F6F646B886E716C5D6C6E5A5E626E7317
S2140032F0707D848891BC929ED3BCA1B3959F958F18
S214003300776A725864584872624E6053564B5659E4
S214003310657A8F7899ACA6ADA46AACA56EA68F9494
S214003320A195764D4C61495B4673624D707D9F8FCB
S214003330807D99B2CFBA9999A8967F87BC9C889BC6
S214003340737B6E7D5144583E495B4D4C4B50755ACD
S21400335083936A867E717A788C83A0A1A4C29EAF7E
S214003360B08490998EA1A69790A4CA9F779E8B86CC
S214003370936E6667736864675A5F686F635C5048ED
S214003380555760605D8E9F8D9399AA899A9E6E862A
S2140033907E83907D888C92AA999C9895AA9E9A8006
S2140033A08DC0B1ACAC939B8B80826273776A714F91
S2140033B054554C4832323137514628364D665757A9
S2140033C049496462715A50687B9994838C97999C9A
S2140033D0A0A2B4C5BEB9B1BED0D0E3C5A8B6B0C829
S2140033E0BFA6A790A2A58C8B838885817F7B877CD0
S2140033F0685F63686A75685458625A513E35373359
S21400340040423737364A58616E72786F5E788282ED
S2140034109E9B8991A0A7AB9099AAA4A49A9D9E8FE3
S214003420989FA0AE9E9A9397BFB7ABA79E90939790
S214003430979E89788B8F92907D7D6B6A70756B6393
S21400344055394757696353484E615C504C4B4A5850
S214003450504A4E5A66637380929184715777888378
S2140034608E8D8196B2B2B09C857D8C8F89818B8D36
S2140034708DA0AFACABAE80768BAAA696938AB3C56A
S214003480B7B0A9A58E8D89847C7E89767D8684706A
S214003490554959675A484B3D4B75747C766D5D6847
S2140034A0626560576C6373737E8F826B68879C85DA
S2140034B06C60617A9EA193937F828A8A91879790A7
S2140034C08B8FA2BB96899BA5AEA7989C9091B3B014
S2140034D0B3AA9F957F887A646A696B7156636E5B40
S2140034E07070726954463E3B4D646B765A5A555E10
S2140034F0725873746C7C69797B5D768A827F7360A0
S214003500615F759997A78876675C8878869698A68F
S2140035109391999597ACA2929A9DA099A5A0A0B1D7
S2140035209184816E877F7F9EA9BB9D8E7E7C9394BF
S214003530A291888B92969B9896AB826D6F6A736CFD
S214003540767B7B8D7C6E695B7F675A675861655DAD
S21400355069626C8B725546494433456E80999087F4
S2140035607A618D8C737A6571757F928CA9A58C7B38
S214003570716B634451798AB1BCAE95889FA3897DEF
S21400358076827E8BB19CB8BEA1A88E7D68595A6A99
S21400359079898D99806E867071584D6257697E72F2
S2140035A09F94879B8E8A5A5A71728A8F9EA98D8D98
S2140035B08A747C6349614B6378688A6E677E837C15
S2140035C0515657486B858B9293A48F6B7D917C6B7D
S2140035D06A868E91AE8794A3ABA06C788685869714
S2140035E0A298B4BE8A7D79787A677B9993AB967FEA
S2140035F092A8C1A57880858C8B92927499A17968DF
S2140036005A71804C506C789B725C646695777077C4
S214003610738B69727B7CA3A07A6C6A7A7962747405
S21400362083A16E736E679A7B786162856B6B635A53
S214003630858A786B5F7A755F71749CAB7B726874F1
S21400364089787662647C727B6C739A907C6E6E79F5
S2140036506961756FA2A78D958A8F808E92819093EF
S2140036608E898DABB0A79083838574786A71A68A9D
S21400367084857481707F8179797B8C778AA48F9D0D
S2140036809D9AA895908A7F969A8E7F88917C87923D
S214003690817A778166517F887B7972807281917397
S2140036A06D7B737571847F647A7279797B875361D9
S2140036B08378817977655B7D6E707977745D6F80CE
S2140036C05A63868C84707D725991A79BA6939271DB
S2140036D089B885847780896F8579668887898D79AA
S2140036E0844E60A5707C8B9796638F766C8175830D
S2140036F06764826770A1A1A1837C7069987E7E88CA
S214003700788A667F957486696C6D6381766B78A11E
S214003710AE9E977978969086787C978379716E8C32
S2140037207D6F6C687D816F70A4C296855C829E9C5E
S214003730A6788E958E8B6E7D82757B74868A8D922A
S2140037406AAFB97F7A437E897F98688B8C7F8D5B62
S21400375067645679638886728266A8A27C6E548BEC
S214003760807C78597A7B807C61776F616965948EFE
S214003770816F74AA8E78727FA096977F738A827EF6
S214003780676D917F7C6F7194857C7190AC7F6B5C6C
S2140037907D7C7E826D87846D5E536F7F62707092D3
S2140037A0967C797EB3A083777B8E7F817F77918AA4
S2140037B07F6C607764646F7D988F817391A0877645
S2140037C0838F9292797F8F9382646C787F72656E16
S2140037D08491867493A4907D6E828292937F8E8D60
S2140037E0826B6886918E7B6D8CA19266789D8C86A6
S2140037F0728582839579807C706564828372787A1C
S2140038009196836E669474657A7C98848A7F7A83B0
S214003810715F4C6C796D7878899E8B7B7E99876317
S2140038206D738C807B8473867F6E6B6E92807585DD
S2140038308CA89C7F8B9E89707A91958B7E796B780D
S21400384070515063786A616A839C886E6E8C867647
S2140038507791A9A19E8F98A59762404C756F606975
S2140038608DAF92777B9B8D6A626E8184847D8DAAF4
S2140038709C76585E846B5B6B799F8F808D9A896C83
S2140038806B8093A3947C83979C716375887867702C
S2140038908E9C8D80878A7764638490B4A3829BA174
S2140038A0956D4C6170676F6E959C9B8D89906A6074
S2140038B05A646F87847485988C68505C6D697878D4
S2140038C08F9897A0A79C7C736E797F9F92717F9547
S2140038D08567586668647673858B84879C9375774E
S2140038E0798C9DB697889394875D5A6C5C5A6F6DF9
S2140038F08683828797806666768088A1867E8D9688
S214003900825C616D637180878D868486978C697111
S214003910767E92A68C8A98997E5A6E6459647582D1
S2140039208B78757C958A747F858C95A68F9BA39FD4
S214003930846B7A7C65707B887D73787888726A7F02
S21400394084848FA4928D8B7C685A787C7988949E28
S214003950A0938B797D6C566368658FA182958F8462
S2140039606458695F585B7792939497999B7D7189A9
S2140039707A70928B85918E8B6F6275656A6672859A
S21400398077837F8B968887A4998B9C96888F857182
S2140039905656665F6F769493888B74746C5B6E90E5
S2140039A07D7D9EA5A8B1A0896A5B564A606784891A
S2140039B08D917E8073636F7C6F759199A2B6A49883
S2140039C0796E6C61706A7D7E808881818074758472
S2140039D06D839288929B927D6167697086859092CE
S2140039E0A79F887661636A7B798E9592A5AD9F8F37
S2140039F0675E566471688C98B0A9846A616A6F6E57
S214003A006E87847C92A8A8997963515A61697893E5
S214003A10AF957D6B788679737A8D8A86868A927E54
S214003A205A48517684859092A39882726A7A705D1D
S214003A307D99A29FA7AA95795E4850676D6B78A17D
S214003A40B0A78468585F655A7C98A4A895A5A899DD
S214003A50805B5459575B6D9CB1B18D666B6F73621A
S214003A607F928996909AA191794C47676B7082A253
S214003A70AA95766A6A7E7C56677E8EABACB3A78FB5
S214003A807655566B7A726F93AAA986696563614FFD
S214003A90718A8C9D9CA19C958A6C6D736B5C6592FB
S214003AA0B0B691766F797056789A8C8E8788837CBC
S214003AB0755B5E6C746D7B9DABA17A5F63727A6595
S214003AC079888298A4B3A48C6F45516775747DA1DC
S214003AD0B7AD84635D67655468898A999AA5A78F90
S214003AE07D5B61686F686086ACB7A47F8284705A1D
S214003AF06385929B9E9B8E7B6951566B6B63668932
S214003B00AAA68E706A7474686A868C94A0A3B3AEF4
S214003B108C634B56645B6686A8B296705962635D8A
S214003B205B727C868E99ABAA9E7766676D6F5B73B9
S214003B309FADA084818C896B627A839399929B96C1
S214003B40876C6A82817D6C8697988D686B6D6A5EDD
S214003B505E7A848A919AA2987C5C54676F746C79BA
S214003B60AEB19A8476675D53586E7C959495A29E06
S214003B709A7150535C555984AAB9AA857E797B6D93
S214003B805B717D87899AA4A291695D5B585A5165DD
S214003B909A9C95878484766A69858C8487A2B8B255
S214003BA0A3786D7C71685E7AA5B5AE918F8F8067BD
S214003BB058718992A2ABB0B3A580666A645A556103
S214003BC07C8F8F83878C826A536268636B7580856F
S214003BD08B715964635E55597F86786C6D7D7A6803
S214003BE0677482857E929D9C9C7E676B75737283DC
S214003BF0A1A69073778265503E537B818D9CA0AAC8
S214003C009575695D787680949CC3B8AFAFB9A48982
S214003C107C7C8D8D93A1ADB6A99080636E5A5B7344
S214003C2081A9A29C989A7D61696473817C88939A25
S214003C309281756978604D67637B7E64707D6F5F87
S214003C4054455A737686908D847766545B5E5A6BBD
S214003C5066899C88979F8F8F977C6D8B8C8F9997A2
S214003C609AA292877658636860717D7785826E71B6
S214003C7076737B736E7E85857F897D7E907E8A8B4C
S214003C808985716F747578808177838E92979B9BF8
S214003C908D937D6F6F617E7D85A6A4A2A289797CB7
S214003CA0746B75797E858B867E8C7E736A5A6E7B86
S214003CB081A79CA0C1A698978C7C827F819E9E98A7
S214003CC09A96978A6B617A8579846C7591858C89CA
S214003CD07068767078877D776F6A776A584F5C6D04
S214003CE0727A6A7D885F5E6D58546B76757D8576D0
S214003CF0747B7A6C484F80797D806F91988978883C
S214003D008972746B7F9D95A0A2A6A391787AA69ED1
S214003D10958366897A6074817F7E757C84878A65E0
S214003D20628083765C7093879A9198B6967C656875
S214003D306C65708FB5B4A88F81959180676E9D92E3
S214003D408E8896B8918C8E8D7D58515F788284844B
S214003D5089A3947D76677F6E768182A58B7893A003
S214003D60948487B3AC8F8875848A7E8678928F6CAD
S214003D7074728397767186846D515B8398837F9087
S214003D8091845B4F596C786266787F7D6153716D64
S214003D904C3F4359645A6285908C8174818379675D
S214003DA0526A7B797367787663687A8E9D8E7B8697
S214003DB0928C8986959A8FA39392A89285817B7E12
S214003DC06E5773767785787D8F8875656A73798583
S214003DD08F91989D979394917A62646B7178879A85
S214003DE09CA8B49D988C85877C7172838E9A8F87E9
S214003DF0948691979091847572767B827A77758097
S214003E007A7473778A7E7889908587818B9B9D9F4D
S214003E1093959B846F67768A8888827E7C7A6F719A
S214003E20736E68637775807F7C95A59B9381776CAE
S214003E305F5B586061615C646357596274796F6751
S214003E405B68796864647B8D83868D88817C6F7AF5
S214003E5085736661787F797C8190908271757F9298
S214003E608F93A0A6A79D95948672666079867F7CC0
S214003E7073909F958A7F82756A676B778380808848
S214003E808D949185919285827D8A968882707D8AAE
S214003E9085918D938D918790958A8E7A7787898084
S214003EA0817E827E71737A7B777F7F85837C827F3B
S214003EB0776D6A68818A939993A7B2ACAA9C93811E
S214003EC069696F756B646D76796F6E797F857E7EB6
S214003ED07D868C7E77767A777E8489866F65707528
S214003EE07667575E5F61625966757D796A71797D1E
S214003EF074728B93918C848074604F5965757A7454
S214003F0087979EA4A19FA19783797B7E73727B89F6
S214003F10948B84837C827E747E878E7E77737E8489
S214003F20737C8D968A83898E928A777C7C8576656B
S214003F306D757B74737A8585746D85968F8A8C8C87
S214003F40908379777E8A858896ACADA5A39E9B8E56
S214003F50756C6E685F5359737F82877B7079808635
S214003F6090999487888799A68F7D8186867F828898
S214003F7083726F6A7A7D6D796C737C7E8B85878D94
S214003F8072748C948A716F6D64656359607E8791D4
S214003F909B97988E93949C9A8A7B72635759606C11
S214003FA07B8678615659545C61727A787571888B15
S214003FB07B68647684898C8A89897A6F73838B8B15
S214003FC07A6E7677787C7E7F7B898D8386898483FC
S214003FD07B746D666B768A92938F8F99949B9A8882
S214003FE0817F827E8189878C8E9BA19C94929797F5
S214003FF0999BA3A5A49B97928B8685868B999B9964
S2140040008B7C726167728380737579838681827F09
S2140040107D7F75736D706F716F69605858595E5B00
S214004020595F6A7A86878383777772665F666A7473
S214004030777A7C74797D80847F889BA79B89808231
S2140040408E8E89898486868487887F6D6B6F73756C
S21400405066656E6D6F6A6F778185898F89807A7CD9
S2140040607E766B64606671808592ABB5AFA69793DB
S2140040708F857B7D89878983838B816F636776785D
S214004080716F7F8B887D717D89877D7A7F7C828E3C
S214004090A2ABA394828FA29E979C9CA2968E8E958E
S2140040A09D9C99989F9692908F8D79654F50636BE3
S2140040B0747D8FA0A29B9493918070696E6F7065DB
S2140040C0636C6F6C4F50585851534E5A5753575F46
S2140040D0736F6F6E7068626A7C86897E706E7A7E99
S2140040E07D7B8B847F767D9293928C9F9C9A8B8629
S2140040F08381796F6064737078798C8D92888987F4
S21400410083776E75818892949290847E6D6A777DAF
S2140041107677879B9D9A9CA7AC9C908F888981898F
S2140041208D9EA29986797D6D706582838376727F77
S2140041308A817487808E83847571716E6F6E8183B9
S2140041408C88A2A5ADA49FA4A0938480838B999A03
S2140041509896949477725D6C5F6364727970726EF1
S2140041608778807076767A75747D7C866C6D6465EB
S2140041705B635E63665251505E5A5D5C66756C7436
S2140041806E646B5C635F6B777B878B969EA595965C
S2140041908F918E80848E97A0979B968F8270727375
S2140041A070726C75838279787B848879877F8E8A33
S2140041B0899097918E8A80887A767280858F898E8C
S2140041C097A5A7A19D9FA9A18E8A7E82786C757CF3
S2140041D0878E81938E8B8A6E8E808B796C7A878C95
S2140041E08C87908D7673667B776D787E8D928194C2
S2140041F0809990808A87999D9589968A9F7D9677E3
S2140042008D656B6F62865D8F5D926A836D7B867D42
S2140042107C6777537E4059665F736B6E83746B63FF
S2140042205E6461564B526563716D7088656B5F6442
S21400423079716C7A7C7E8883918D948E8A8F95A214
S214004240989D8E9A998F8C8F7B826764846E887017
S21400425090839784828E8798807C70856E82728326
S2140042608D898C7A937D8884849190938F919E9883
S214004270A999989F909481838387827B8374767FA5
S2140042807780757978848195868690789479877416
S2140042907E7568726F7E7D84899A8A9D8D989487D4
S2140042A08E827D837874817385918595807A7A79FC
S2140042B06F79756E7C6E7A6A8D7087766D7F6572A3
S2140042C0638259766860796878616C54706A5C7D40
S2140042D06A7371666B6E736265585D685776738A2B
S2140042E0918EA097A59F9186948C8E8784828683D4
S2140042F07E8880897F786B7B807F7F84888A8E88A3
S21400430090A4958890849287927A94857081647D33
S2140043107274666E8184938C9D9F9E9996A7989AD8
S2140043208886868284898A91947B7C85827C6E5D71
S2140043306966636162677D75838D959895978F9A98
S21400434088948588827D7F6B7E84807C7973788E66
S2140043506D79948191928B928D7C767A79848E8811
S2140043608E99917E7E7776645241464C4B496071B9
S2140043707086719E9AA09C8794A7A184716B7158D1
S2140043805558564F403F283F752A63707275848390
S21400439099B3A9CDB2D7D4DAAABEC1969C776D5D83
S2140043A05538274A564F6587798CA79AB5C1B0B855
S2140043B0AC98A3907E6C827263655D754A526147C5
S2140043C06279617481958C839FCA9CA5A794B898DE
S2140043D0A7727E957B64573962576D8777888CBA4B
S2140043E0A99CAFACA2A8B78EA3A190A28D7D718523
S2140043F0775A6B6F79728C827F8C6D867C556D5E7A
S2140044006A60625C4A565272685E648691A08083D7
S2140044109BA6C7A19A949D918268809D776E534C07
S214004420565253516370737C7484A59E8C83868F1A
S2140044309C8D7E95989E9DA1A1968B8891A5B0ADEA
S214004440B198B1AEA59591908E98777C87705E54A2
S2140044504C444746313F4D4664625E60636B58711C
S214004460636A766676736F6E7B797B7D8A969DA08F
S214004470A3AAB5C7D4CEC7C2BCBDB3BCBAAD9E8FC7
S2140044808A8C7A797A7084887F8579726F7A666E7C
S214004490644D5750684D4F383B4040464C5A52701A
S2140044A0676A6E6C677057637D7185808B807D78D8
S2140044B0787E6E73858DA5BBAEA7A8ADA0B09FA86D
S2140044C0A396ABA8A29FA4979C90958B969A969C31
S2140044D08DA19E928583899084696F646E6D5F530B
S2140044E03F593B413B434C4F655460626B665D529F
S2140044F072656A7660736E644C6971797C77A9A47C
S214004500B9B1AAC4A8B5B89BD2BDBBD2ABBD9F9F5C
S2140045106C78987BA288959BAAAC85A182868267D8
S21400452081776D916E5E5F4F49466C3E545358716D
S2140045307D7D576A7464736D62785883727A8A6D6B
S2140045405E46804B5A6E4B7C718678769584888F53
S2140045507D9A9495A686B39A95758B816F9A7EA25E
S2140045609DB39789A89DA2AF8EABAEA6D498A79010
S2140045707854646F577A6574767C79607177638057
S2140045806D7D7D629766656A4A3C3A6A53686B61E0
S21400459078858E817C8989858B75796D988F7C9AD4
S2140045A07D655B806A687B67908DA4A18D9F978BE5
S2140045B0888A9086A2AD96AA9182768B8E8F9A85EF
S2140045C0959DA39089858B7E828982879EA69292EE
S2140045D07A6D5F5C696D6C6A73706B635F5C6C7F31
S2140045E0687D737D8E858A6F7B5F515159675D62EA
S2140045F0647A8183866E758D808C8776998B9B888E
S2140046007C7E5F6161685662626A7E7D949A8C9D4C
S2140046108D829986A4A2A8AC9897817D6A8793928A
S214004620A495A7A2949779899984A18A9DA491AC10
S2140046307C84776870658170807F7E7F6C7B62612A
S21400464080697B8284A27F98807273636E5C7264DA
S214004650626B628275807F647C726A6B608C6D8F21
S2140046609E707D6A674A4E5A5F6262747377907C6A
S2140046708697859290A59E929E8E7D85876E7C8875
S21400468083968699A0839388768B8B8D99A4A39125
S214004690928E7F72867C757F93A296988A8985997A
S2140046A081758E7D749C948F97878B6B7C77616504
S2140046B06A6E686F7D7377716F686C755B78817BE7
S2140046C085828A89877E615C4A5A655966586F7604
S2140046D07C8C6F807A7D9A8DA1867171636E676D12
S2140046E05A5D787C84756F7B6E89959D9C99B5A97B
S2140046F0B4A580757A8081847E848A959D8A849DFF
S2140047008A8A9E9C8C859C8E859A89657286717F26
S2140047107B7476769C9B7B918A7F908A746172818B
S2140047207E8D9374708A827B826D6C56637B6A6E14
S2140047306D5F5A70867B7D90838C9689726C7E7EC8
S214004740828278714E5D5F525A5E616A84868B986B
S214004750A89F9A987D86828B8A7D8F735C63747E11
S2140047607A71758196AEB097919A8E968D737B749A
S2140047708683827F686C67818D878A7C82808FA41F
S2140047808B988F74817F868C7B898A847D787274FF
S2140047908782736E7D7D8095897A90867077737137
S2140047A0707C8F8C7F796D626B7F6F65706C6E84AA
S2140047B0908B7A7C6E758F868989808580766E561A
S2140047C05A5F71696F88868B757B7C6E7B777F8579
S2140047D086998C9E9D8786716F8088868B8E8C7757
S2140047E098A2978D8EA7907E7991866A7D8E89880D
S2140047F0715B60777171717B7F6E676C6D696466E3
S21400480082829DA7A7A9888376615F5B5F7E7571AC
S2140048108294A09A9DA4B2B4A79D9086798373587B
S2140048205C58687D84868C7B6F6F667F87868E81FA
S2140048307D8A989290918D86807750364451626139
S214004840647D7D8095929EA7938C827F8D8B9288C7
S214004850868586918E9A9499968A8D7F836A5A6306
S2140048605A6D6D6D787E84817F6F6E5E505B596881
S214004870645F68697881808F78747D778D88858E8F
S214004880857C858C86919296A08F8684706F707FCB
S2140048908B8599A6B0BECBBDB0A6897A5C656E6ED8
S2140048A078707F8E92989C9A9C929B9A887C776D63
S2140048B06C726067635D65647882848783838889A9
S2140048C088837F7F8E9F9E998C8E806B675F6855EE
S2140048D05446415258686F79808F918C897E7D79D5
S2140048E06663564A4E56626D70777B7C7E7E8992F2
S2140048F08C8D8C8D8F928E8F9091979490928C87C2
S214004900868B928D8A9290908A8E8C8180878D97E6
S214004910A2A0A09E908B8F84838183877C746C6713
S21400492068696D6C767C7E898D8E858B8C83847EA3
S214004930828A898A86838B8D8B89827E786C616079
S21400494060646469747A7E848A888980796D595433
S21400495053555B55565C5C65748A9B969C918B7C24
S214004960696E70716E757A7C818992A2A0A8A894EF
S2140049708A7A716E6966717B83949EABAAB5B5A57B
S2140049809781787771767C7B76767F7D888388972B
S214004990908E847E8177726E6F6E65727C88939639
S2140049A09698999194887D7B6C6F72757C849293AF
S2140049B09B927C75737672676A6762646C767373B3
S2140049C06F6F736C696C7D8081827678696C7174A8
S2140049D07A767D7A76777D8289969993897F7D7CB3
S2140049E07E8985858179848D9191999E9897908E00
S2140049F08F85888C847F706F75727F888690928A88
S214004A00928E8D8271615654545E63778990939628
S214004A10A4A6A495948A786F65686E7B8C8B969F07
S214004A20888991878C817A6F696253565961686864
S214004A306C727D78818C919888796949475A575E5F
S214004A4072777E8E93979EA19C9B957D716E606912
S214004A50777D908E8C8B898D8B9190908E878B8EA8
S214004A608885848784817B798890949F9998968995
S214004A707B7677726F6B6968706B697F84838989D0
S214004A808A847E80807E7C7779827B7B8489909600
S214004A909D999799968A897E666862554F5664678F
S214004AA06F7E848B998E8A817D7E7165554B474BD0
S214004AB0516077778999979D9A8E88898B7F7B7FBF
S214004AC06E65666F7A818894999CA9A59796898267
S214004AD07D75716C6E7475868B939E989B9E9E9862
S214004AE08C827D78646A6460636372788289878C5E
S214004AF0998F8A877E7B73696A6E6C6E7585979AC6
S214004B00ABADABB2B1A89E8F817364614E4B4D5472
S214004B105B6B7684948C948B847E65696D6968671C
S214004B20666C7473727D848183888C8C8577727DC5
S214004B307E77838C92949BA39D9292826F6C666A1A
S214004B406F73686B7F807F83919B999C9A999B91EA
S214004B507D7E72656D747B73737865749584847BD3
S214004B607A7E656C82918D7D76808F8B90958B7723
S214004B7090979BA6A09C7B76776B59555B65636D7B
S214004B8080919A969E968985948F7F6B65715E69F3
S214004B906D676359839A97928073656B72636870CA
S214004BA07A7E808E99A1958770697A70899D8F89A3
S214004BB07D90A1968C888268737E7E8D8C8B808398
S214004BC093A397888970748C919B9C9083646D677F
S214004BD057674C53565C726B78887D7B7B748088F5
S214004BE08C816F738687878B9499737FA49995754C
S214004BF063846B748D8EA7A798827B8687907B696B
S214004C005C7A8D909C867560636E6E7776767A7E1B
S214004C107D8894998E8373616A706F65657190A1C3
S214004C20AEAE93836C636A726559677479908A8EA8
S214004C30928D90706278718F8F8398A4A3B5C0A36D
S214004C409A85938D7174685E7584808E7E717262AB
S214004C50654F46505E768A87899D98A1957858411B
S214004C60463D3B3F4E6A7693989391837E84878E2B
S214004C70928C938F91ACAEAEBEA18F967D7A6A6D04
S214004C80665E717B847A92958798949297909883C3
S214004C90726B61A1A5A1AE9C988B8C7767636A7DC9
S214004CA07D8B8C8C8B7E827357414669696F7756F5
S214004CB06976848E7D736D788C8C9A9181807293E0
S214004CC0876E7F828385716367666E6B654D4E68FF
S214004CD0658C95757E7A7787816259557786867D4D
S214004CE0616E696C7C7A81868DA3A79BACAC8FA520
S214004CF09E898F989DA5A5958678808E948F8E83A5
S214004D007F98999DB2969082917D72A180878461EA
S214004D106E767E8473796A61767B8D9F84987D6BD0
S214004D20816C7C8575868260575B6C686465515EB5
S214004D308B82969A806F697668838B788E867B786E
S214004D406C7185837A8C526676669B807466637B0C
S214004D5075857F6957676C6D7A6C6E81756B70614F
S214004D605D78838C936C688075A1B37A88939AB6C5
S214004D70AAA593899D98B1ADA7ABA0A7A499747D69
S214004D807D7EA58E7B7382868498625B6A72898E2E
S214004D90A58C83968F9894928F808481846F6F7889
S214004DA07092826E6B5657607166545A677A789026
S214004DB08C6974737D898C908485768E936A7F88DF
S214004DC08FA394746E69697E7E6656495F656585B5
S214004DD07053536969778478807E7C9684637C758B
S214004DE07A907064626C7E869989666A868595B4C8
S214004DF08D778A96A2B5AB9BA495A1A87D89919044
S214004E00AFAB806C736F87928F8F6568867B8EA042
S214004E107360837A7DA47F819B87897D6E617E86A1
S214004E20919C6C606F677E847D774755616B8A9531
S214004E30726E927D8A96787C87877C7C7B7793904F
S214004E40918159656C7296838F8E586162617F86F8
S214004E506A7184667983567A89737B775B55767533
S214004E60838662606661828393A2757589A4B0B5F5
S214004E709A7B9C849FAA8AA19FA39E9C827F9B8DDF
S214004E808894725973798583948B4E53677FA9B53E
S214004E9089859E788F9371828697A093727B8D7C8E
S214004EA08C86635F5A56705E6E6F44556175949734
S214004EB0627BA17596967B9392918A7D637D9F9186
S214004EC09A886D767B75828080624E635A7B9A7F65
S214004ED0526B6F5A836E75838B8780765B74857A88
S214004EE0806E657166706F75895B5A837D97B68430
S214004EF06FB1959FBE8591A89F9A9F8F7EAFA6980B
S214004F009F6C626E5E72798D884E60777AA3B172FE
S214004F107C8C6B928C638C8C8A908868769E90A32F
S214004F208D6A6E6668747289623F717A7F9F7B4C69
S214004F307982779D76708984857F6B5E96A8A4AE0D
S214004F407D687C899C9C988047587966868A435EF3
S214004F508A698A8E657A838188744660847F9078B1
S214004F605458687785917B52526F7E92AE746FAAC2
S214004F709DAFBA8897A8969B8B666B8E9BA1977100
S214004F805C7283849D81535E7A7D95966B7792944E
S214004F90A399747B86818E76636E7990979C7A62ED
S214004FA08A7C828D6C4C4D6D6C9B975D7B798AA05C
S214004FB0897D7E817988786F7F8B95939E777699A9
S214004FC0768D926E576478899970677172949A7B21
S214004FD0818A7F7B7D716F778C76827A4A76706B5A
S214004FE08276665C7C7E9B7C5E8070839279798814
S214004FF0888D9E94A4939EA988857183807C8277F1
S21400500070688A908F8F6C79798D88666D737483DB
S2140050109172948972A28D777C817582836A6E679D
S21400502075968D7A89846C9A9455737675958D8A63
S2140050308578658C8D6E997F668A78798A7C729D74
S2140050408F7C96847E8E7D61797A85948D9F877518
S214005050678E7E72A7635F6D60717F706588637709
S2140050609E828D7F6367776A909785968A786C7D37
S2140050707AA29F7880727C9097847C736A95A186CA
S21400508076665F6E7E8FA09F958E8A746374948218
S214005090857561646E949A8658758690A77A5C5B6F
S2140050A060717F8D898E877B916D6DAD8A899A5DE3
S2140050B0686C809D9B675F847DA59D6C71656C8E1A
S2140050C097A3A58B768473699B8B687E63547D84D7
S2140050D097A0796E88898C8F615C6A69757E7E93ED
S2140050E0818A8670928794A06865685F80978371CE
S2140050F07B62889B83877C6B848289928C87908A6C
S2140051006B947B6B9C6F547C6B70A58E8DA57573B2
S214005110896C6F885E59776E8E9D8D9995839B9767
S21400512070787F5A71836979667394897172716F2A
S21400513098896980808D958D927C9794878163701D
S214005140757B908C786A8C999D86545D788B867D6D
S2140051506E7391869791769990707B5A4275847F8C
S2140051609A70628D8F9C9E4E4A8C8393A977728D1F
S2140051707B90857B9388828176587C91829A6D5D40
S2140051807A7480896455828494AC8C907F7B8B760D
S2140051908D977D75625B607285977C6A797F7F8963
S2140051A07F736D7389A5A6939677757565869089C6
S2140051B07D655D727D94BC7B6D8465767B656F8F47
S2140051C06A7DA68CADA179896A659B9B8B937E5977
S2140051D06E837EA17869876E737B62689F7767A20D
S2140051E077879A7A8268658C8B8B91836E7C8293A4
S2140051F0947A807C796E6D64678689867A8C9796B9
S214005200907B687388888B79747872749E855B90BF
S214005210827C8E6952707A80A0696493799B9E5FC7
S2140052207E92819688656A7E7C9183637C8584A362
S214005230824D707471AB9D5D7B8F80A67F7891796F
S2140052408A7E656B808D97886C768795A09466615C
S214005250686F888F895F61858C908F878887706B71
S2140052606E759AAD806D796487AD8173774C628870
S214005270799690547A9572AF9E7290646177839017
S214005280AF9A6A7C6E7E9C8C7089624E7A75809925
S21400529081647F7396AF97866B566172879E85771B
S2140052A074728A9A868486727B726F898081946C07
S2140052B054998FA3A9686C5B6A899E827982608301
S2140052C0967A70957A7F9975818E7C868F5B7689C3
S2140052D090A5835F62646C9786798486858C8270DD
S2140052E0747F8D897D7C6E6E8A81768C70849A74CC
S2140052F083686184827D857B77989A7C6E7C7A77DA
S2140053009C8E8581607885638C976A857876938A8B
S214005310769083607E7E849691736E746E8A869491
S2140053209877857C6D79948A8D6A5F726D9A8C7D8C
S2140053307E5C71948FA4896E7E5F729185949B9239
S2140053407F825E83847CA677655E6D82A088696FA7
S214005350597E9A9A867587708090A18491917B7900
S2140053606F7A767671956550726B9FA581737268B9
S21400537088897A8F617E7D8894909D84987E8577D3
S214005380697667826F726C80828B9C707387786D8B
S214005390877F8278819777929775808B807E8A73D5
S2140053A08A6E7283808C686B76858E8F775C6E6E65
S2140053B077948F998992858B7C668F7C85957166AC
S2140053C07B6D83A370646F6795A97D6B72567E971D
S2140053D096A680897C6F8577808B918987716D70A2
S2140053E0617B786E6F6972AEA6888B68666F909DDB
S2140053F08F9369797A73A383738C917E916E5190A3
S21400540064748D61748A848F99827063668C8A9EB8
S214005410AA66868080947E8082896E8565558D75A5
S2140054207E87767C8D7E859C7A6E5E6A7778978995
S21400543099857D8C86937B77647585778C768F6B64
S214005440796F888779985F7D65708A6F7F7F5F97B1
S21400545094979C8A6982986C917B89A18A829C9693
S2140054608AB4B08A673E837B5F986B6E557081689E
S214005470896E83747355586D54736C7B625F6C7859
S214005480948883686B6B76C0C0A9B8949EC3A8A99D
S214005490B0909DB39DAFA596BBAB958A60527D79C3
S2140054A0827A4942323B515E5A683A2D4D45696AC6
S2140054B05C56655F7586729B9495867791A9C3C97D
S2140054C0BDAAA29695A59091A4949694857E827E78
S2140054D0807C5167686E8C797D664F555151555B5F
S2140054E0515B5F5B6755436F6A7A986A79757E8A07
S2140054F08D8B808A799BA4A9AA959CA8B5ADBAA3E2
S214005500A7B9C0CEBFADA1A7A8BBC4A9B4A79096A3
S2140055107C8A877192888883786D6A7467644A4744
S214005520443F58584A4D38364F46585040403C360F
S2140055303658515C615F656A7B888975837E798D94
S2140055408398AAA7ACAE9394A4A3C4D5B8C6AC9BC4
S214005550B7A6C0B0AA9D859384AB9B8A8273676208
S2140055606762766C7E73746A65746B806A50434AB1
S2140055704F67877E736056657B879C80696C5E622A
S2140055807C8F798E80758F78788D8D98AF8089899D
S21400559077969DB3A7A29094AFB1BEAE9B858C8341
S2140055A0979F9398878F859B857A908091847D6757
S2140055B0656E6381704E5F59618C786D5C332D51DA
S2140055C0464362415B6A5D786F53545347735C5938
S2140055D0675E7280876A7776778F839A90828DA1CE
S2140055E09E9CA68FA5A3B6B7A79C88817FA48D98FE
S2140055F09C72908C96AA9BA5B3A2A5A17D7D87865A
S214005600909A8A9D9C94AE9A8E826463797F8B90E2
S214005610726A6A605C6A555C684D6B6C666A62604A
S2140056205F5B4A6A617E937D8775625A75668F9F57
S2140056307A94807C8080787B877A8F888EA0A193EE
S214005640978B7E9D939FA5A2A4988B7C837690983B
S214005650829079757471868F7E7F736B7975796E9B
S214005660666261647A8D8B826E685757555D7C7D65
S2140056708D8170554D46547C6671634D6573726CB2
S214005680503B5352778E889593A08B947372988E66
S214005690C9B4A3A1899AA7C5A7A49D89A6BBC9C357
S2140056A0A78A928A94A59C9899908B987A85927FDF
S2140056B0A4997F7C5F628C8C8D7E595F6B78888422
S2140056C06F6C657486797D686D6669755D6C6170F2
S2140056D08885856D67607862657050645D667576EE
S2140056E06E6C544E72697982786E746D72876679C4
S2140056F08280A3927D8081737D7B69676B8A969D8D
S214005700A29289888D998783847B999AB0A7889975
S214005710737787807C897D6A8D78919B899F938D2E
S214005720A4A59ABDA5909F908E9DA89AB2AA96A869
S2140057308A847F6D76765C5B675A5F747467756B78
S2140057405B7677747B6D5C71606971557B686C7A8B
S2140057505F634853748A7C69583E574D70867074F0
S2140057607E7783A39A978072707274779287979ADF
S2140057708D907D6F839C898F74656D7B938B8F6E08
S2140057807F8C96B6B6B8AA947F8B757CA288BFAF7E
S2140057909AB18980867D748973687D6C8795827DD1
S2140057A0735E7B8B7C9491766E8B75818D7BA096D9
S2140057B08F997C698B7A6F8D6C6B70707E8D7A7129
S2140057C07B66848C797B826E687151726A75987B71
S2140057D08D8172757F6C5E64476D63627866646EF9
S2140057E0706E83848F939088896B55755A769F8FD9
S2140057F0ACA295AB987B73544B72838E9F8979834A
S2140058007A979F8B8C8A8E919F837C826D928C84F4
S2140058109C8A839D9C808E69637E83968F7E6D8A2C
S2140058207791AC7A786F667599878E80659D818250
S214005830895E697C717B805B606B7195987B756512
S214005840678686808084818793859A897D91828CFD
S2140058508D7F809684817B5462505E7E8B828273BD
S2140058605D8B7F8E8D6C7079797D9F7A8785648459
S214005870716983999299906B67515A696D7E81859B
S21400588080969C999D906E6D71689597A2A67C8770
S21400589083788F8D7B85706D79637479737F85705F
S2140058A079867C988C8C8A6F7E7A90969D98828D6D
S2140058B0837477876F71755C7D71787A6C7B86846C
S2140058C073856773826F846C6F718092A6A48887D5
