S00D00004E6F6465322E737265635F
S113000043C10000AFC300005FC100005DC1000038
S11300105BC1000059C1000057C1000055C1000078
S113002053C1000051C100004FC100004DC1000088
S11300304BC1000049C1000047C1000045C1000098
S113004043C1000041C100003FC100003DC10000A8
S11300503BC1000039C1000037C1000035C10000B8
S113006033C1000031C100002FC100002DC10000C8
S11300702BC1000029C1000027C1000025C10000D8
S113008023C1000021C100001FC100001DC10000E8
S11300901BC1000019C1000017C1000088C5000081
S11300A013C1000011C100002CC500000DC10000E7
S11300B00BC1000009C1000007C1000005C1000018
S11300C003C1000001C10000FFC00000FDC000002A
S11300D0FBC00000F9C00000F7C00000F5C000003C
S11300E0F3C00000F20544064406440644064406F0
S11300F044064406F20544064406440644064406FF
S113010044064406F40544064406440644064406EC
S1130110440644064406440644064406440644068B
S113012044064406F40544064406440644064406CC
S1130130440644064406440644064406440644066B
S1130140440644064006440644064406440644065F
S1130150440644061D064406440644064406440672
S1130160440644064406440644064406440644063B
S1130170440644061106440644064406440644065E
S1130180440644062F066E616E00696E66000040E8
S11301907A10F35A00A0724E18090010A5D4E80092
S11301A000E87648170000E40B54020000CA9A3BAA
S11301B0000000E1F5050000809698000000404230
S11301C00F000000A08601000000102700000000BE
S11301D0E803000000006400000000000A000000C2
S11301E000000100000000002C76D888DC674F086E
S11301F023DFC1DFAE59E1B1B796E5E3E453C63A74
S1130200E651997696E8E6C28426EB898C9B62EDEA
S1130210407C6FFCEFBC9C9F40F2BAA56FA5F490A4
S1130220055A2AF75C936B6CF9676DC11BFCE0E41B
S11302300D47FEF520E6B500D0ED902E0300943571
S113024077050080841E080000204E0A000000C8C4
S11302500C333333330F986E12831141EF8D211415
S1130260893BE65516CFFEE6DB18D1844B381BF7E5
S11302707C1D901DA4BBE424203284725E22810084
S1130280C9F124ECA1E53D2711241FBECFEFD1E233
S1130290DEBFCDBF00E00CBF13E0A0E0B2E0E8E7B2
S11302A0FBE100E00BBF02C007900D92AA31B10739
S11302B0D9F723E0AAE1B3E001C01D92A636B20744
S11302C0E1F7E3D30C94BA0D9BCE81E004D380E52F
S11302D0EDD22FEF87EA91E6215080409040E1F77C
S11302E000C0000080E0E2D22FEF80E792E02150CE
S11302F080409040E1F700C00000C1D280E0EBD222
S113030080E5D4D22FEF87EA91E6215080409040D7
S1130310E1F700C0000080E0C9D22FEF80E792E04F
S1130320215080409040E1F700C00000ECD280935F
S11303304E0390934F039F938F938FE092E09F938C
S11303408F930E941E0D0F900F900F900F900895A1
S113035081E08093540310925A0310925B0310922D
S11303605C0310925D0310925503AFDF60914E035E
S113037070914F0380E090E09FD560935003709399
S1130380510380935203909353030895BCD2BC014C
S1130390882777FD8095982F91D5609350037093AB
S11303A05103809352039093530308954F925F92A5
S11303B06F927F928F929F92AF92BF92CF92DF9271
S11303C0EF92FF921F93CF93DF93CDB7DEB72897B9
S11303D00FB6F894DEBF0FBECDBF2091500330910D
S11303E0510340915203509153032D833E834F8315
S11303F05887BC01882777FD8095982F5FD56B01BE
S11304007C019B01AC016D817E818F81988552D4E2
S113041022D569837A838B839C8349815A81BA016B
S1130420882777FD8095982F49D52B013C0120E042
S113043030E443E454E4F2D520E034E244E75BE4FE
S1130440A2D420E030E040E854E4E8D520915A03F7
S113045030915B0340915C0350915D032CD44B01BC
S11304605C0160935A0370935B0380935C039093E5
S11304705D032AE037ED43E25DE3C301B201CED56B
S11304802B013C0120E030E0A901C501B401C6D52F
S11304909B01AC015F77C301B2010DD420E030E0D1
S11304A040E252E408D4DCD4162F693708F018E788
S11304B0A70196016D817E818F81988560D4882300
S11304C01CF480E008D202C081E005D2812FEED175
S11304D05A815F9389818F931F921F938DE192E0DC
S11304E09F938F930E941E0D0F900F900F900F906B
S11304F00F900F9028960FB6F894DEBF0FBECDBFB5
S1130500DF91CF911F91FF90EF90DF90CF90BF903C
S1130510AF909F908F907F906F905F904F900895D1
S1130520EAE7F0E0808187688083ECE7F0E080818F
S11305308064808380818F77808308958370806452
S113054080937C00EAE7F0E080818064808380818E
S113055086FDFDCF809178009091790008956FD148
S11305608FE060D11F928F9383E392E09F938F93E8
S11305700E941E0D4FEF60E680E63BD140E064E050
S113058080E637D14FEF61E08BE233D140E060EE9B
S11305908FE02FD10F900F900F900F9008959F929E
S11305A0AF92BF92CF92DF92EF92FF920F931F937D
S11305B0CF93DF93CDB7DEB72B970FB6F894DEBF9A
S11305C00FBECDBF7C018CE22DD180FF30C081E60F
S11305D029D1C82E82E626D1829586958770D12CA2
S11305E0CC0CDD1CCC0CDD1CCC0CDD1CC82A85E637
S11305F019D18F70982EA1F08E010C5F1F4F0F2E12
S1130600F6E6AF2EF02DA80E0F2EF6E6BF2EF02D37
S11306108B2D08D1F80181938F01B394BA10F8CFD0
S113062010925F0340E061E08CE2E3D003C0CC248D
S1130630CA94DC2CDA82C9829B828BE0FE0131965B
S1130640D70101900D928A95E1F7C7012B960FB659
S1130650F894DEBF0FBECDBFDF91CF911F910F91F4
S1130660FF90EF90DF90CF90BF90AF909F90089550
S1130670FF920F931F93CF93DF93EC0188819981AD
S11306808F3F2FEF920729F482E592E00E942F0D0D
S113069041C02A811F922F939F938F9388E692E003
S11306A09F938F930E941E0D2B81822F992787FD84
S11306B090959F932F938AE892E09F938F930E9443
S11306C01E0D8DB79EB70A960FB6F8949EBF0FBE47
S11306D08DBF8A818230D0F0FF24F3940DE912E0BB
S11306E0FE01EF0DF11D2381822F992787FD90953F
S11306F09F932F931F930F930E941E0DF3940F90BB
S11307000F900F900F908A81F81650F382EA92E0CE
S11307100E942F0DDF91CF911F910F91FF900895AB
S1130720CF93DF93CDB7DEB72B970FB6F894DEBF28
S11307300FBECDBFCE01019632DF8BE0FE013196B4
S1130740AAE1B3E001900D928A95E1F78AE193E082
S11307508FDF2B960FB6F894DEBF0FBECDBFDF91AF
S1130760CF9108951F920F920FB60F9211240BB6DA
S11307700F922F933F934F935F936F937F938F9336
S11307809F93AF93BF93EF93FF93CADFFF91EF91D2
S1130790BF91AF919F918F917F916F915F914F9195
S11307A03F912F910F900BBE0F900FBE0F901F9093
S11307B01895CF93C82FCFD17894C0932503CF91A8
S11307C00895CF93DF9300D0CDB7DEB79091250382
S11307D09770990F9065998387708A836B8363E020
S11307E0CE010196C2D10F900F900F90DF91CF915F
S11307F008951F93CF93DF93182FD62FC42FE7D0DC
S113080085E0D9D0812FD7D08D2FD5D08C2FD3D0C0
S1130810E0D0DF91CF911F910895D9D080ECCBD057
S1130820D8C00895CF93C82FD2D083E0C4D08C2FE2
S1130830C2D0C6D0C82FCDD08C2FCF910895CF93DE
S1130840DF931F92CDB7DEB7AED0E7DF8EE0EADFED
S113085089838981807E803821F085EB92E00E9433
S11308602F0D0F90DF91CF910895882331F0479891
S11308708AE68A95F1F700C00895479A0895469844
S11308808AE68A95F1F700C0469A0895882311F004
S1130890459A01C045988AE68A95F1F700C0089503
S11308A0882311F0449A089544980895682F80E0AD
S11308B088CF089580E07DDF87B1886F87B9109273
S11308C0070181E0D2DFDBDF80E0E0DF80E0EEDF04
S11308D081E0E6CF0895813011F443980895439A56
S11308E00895282F2A7A2695982F9575990F922B7B
S11308F0292F2C7C26952695892F8373880F880FA2
S1130900822B829508951F93CF93DF9381E0ADDF0F
S113091080E0BCDFC6E0D1E08881E3DF182F81E00E
S1130920B5DF8881DEDFC82F80E09FDF2C2F30E029
S1130930C901912B919581959109DF91CF911F91D7
S113094008956B9AA1E9B0E08C9182608C938C91AC
S11309508A7F8C93E0E9F0E08081826080838081EB
S11309608E7F80838C9188618C9380818068808362
S113097080818F7B808380E49CE9909397008093AF
S1130980960088EB9BE090939900809398000895DB
S1130990E1E0F1E0808188608083E2E0F1E0808141
S11309A088608083089584B1876084B923988CB566
S11309B081658CBD08958EBD0DB407FEFDCF0895ED
S11309C08AEAF9DF0DB407FEFDCF8EB508952898A5
S11309D00895289A0895E0ECF0E0908195FFFDCF0A
S11309E08093C6000895E0ECF0E080818823ECF762
S11309F08091C60090E008958093C40088E18093BC
S1130A00C10080E092E0909363038093620390932B
S1130A106103809360030895CF93DF93809146032D
S1130A208F3018F01092460303C08F5F8093460303
S1130A30C0914603D0E080E081DDCC0FDD1FCA5DAC
S1130A40DC4F929582958F7089279F7089279983AF
S1130A508883E6E2F3E046E453E020E030E081916D
S1130A609191280F391FE417F507C9F781E0223364
S1130A70310508F080E0DF91CF910895CF93C0E174
S1130A80CBDFC150E9F7CF91089587E690E0B4DF5A
S1130A9066DD57DF86E193E0E2D742DDEFDF78DF02
S1130AA009DF56DC2FEF83ED90E321508040904026
S1130AB0E1F700C0000001D0FFCFE1EAF0E080815F
S1130AC08560808380818D7F8083A0EAB0E08C91F3
S1130AD08E7F8C938C918D7F8C93808188608083B2
S1130AE080818F7E80838DE093E09093A900809332
S1130AF0A800E2E7F0E0808182608083CD9A789458
S1130B0008951F920F920FB60F9211240BB60F92F5
S1130B102F933F934F935F936F937F938F939F9301
S1130B20AF93BF93EF93FF9331DC80E090E03EDC22
S1130B30FF91EF91BF91AF919F918F917F916F91B1
S1130B405F914F913F912F910F900BBE0F900FBE6D
S1130B500F901F9018958CE08093B8008FEF8093CE
S1130B60BB0084E08093BC000895ECEBF0E02081AE
S1130B7020FDFDCF60934903FC01208120934A03AB
S1130B8020FD0CC0623050F0DC011196EBE4F3E080
S1130B9081E09D9191938F5F8613FBCF1092480360
S1130BA088EF80930E0285EA8093BC0008951F921B
S1130BB00F920FB60F9211240BB60F922F933F93FF
S1130BC08F939F93AF93BF93EF93FF938091B9005B
S1130BD090E0FC013897E135F10508F055C0EE5876
S1130BE0FF4F06C610924703E091470380914903E3
S1130BF0E81770F481E08E0F80934703F0E0E65B22
S1130C00FC4F80818093BB0085E88093BC0043C087
S1130C108091480381608093480384E98093BC00F9
S1130C203AC0E091470381E08E0F8093470380919F
S1130C30BB00F0E0E65BFC4F80832091470330E08B
S1130C408091490390E001972817390724F485EC33
S1130C508093BC0020C085E88093BC001CC08091B8
S1130C60BB00E0914703F0E0E65BFC4F808380919A
S1130C70480381608093480384E98093BC000BC0DF
S1130C8085EA8093BC0007C08091B90080930E026E
S1130C9084E08093BC00FF91EF91BF91AF919F914D
S1130CA08F913F912F910F900BBE0F900FBE0F901D
S1130CB01F9018955058BB27AA270ED075C166D12E
S1130CC030F06BD120F031F49F3F11F41EF45BC17E
S1130CD00EF4E095E7FB51C1E92F77D180F3BA1701
S1130CE0620773078407950718F071F49EF58FC1A6
S1130CF00EF4E0950B2EBA2FA02D0B01B901900133
S1130D000C01CA01A0011124FF27591B99F0593F76
S1130D1050F4503E68F11A16F040A22F232F342FBE
S1130D204427585FF3CF469537952795A795F0400C
S1130D305395C9F77EF41F16BA0B620B730B840B21
S1130D40BAF09150A1F0FF0FBB1F661F771F881FD9
S1130D50C2F70EC0BA0F621F731F841F48F4879531
S1130D6077956795B795F7959E3F08F0B3CF939520
S1130D70880F08F09927EE0F979587950895D9D095
S1130D8008F481E008950CD00FC107D140F0FED0E3
S1130D9030F021F45F3F19F0F0C0511139C1F3C0B4
S1130DA014D198F39923C9F35523B1F3951B550B2B
S1130DB0BB27AA2762177307840738F09F5F5F4F2A
S1130DC0220F331F441FAA1FA9F333D00E2E3AF06B
S1130DD0E0E830D091505040E695001CCAF729D085
S1130DE0FE2F27D0660F771F881FBB1F26173707D4
S1130DF04807AB07B0E809F0BB0B802DBF01FF2704
S1130E0093585F4F2AF09E3F510568F0B6C000C169
S1130E105F3FECF3983EDCF3869577956795B7953D
S1130E20F7959F5FC9F7880F911D9695879597F958
S1130E300895E1E0660F771F881FBB1F62177307D1
S1130E408407BA0720F0621B730B840BBA0BEE1FE6
S1130E5088F7E095089504D06894B111D9C0089535
S1130E60BCD088F09F5790F0B92F9927B751A0F0C4
S1130E70D1F0660F771F881F991F1AF0BA95C9F72A
S1130E8012C0B13081F0C3D0B1E00895C0C0672F63
S1130E90782F8827B85F39F0B93FCCF386957795DA
S1130EA06795B395D9F73EF49095809570956195C3
S1130EB07F4F8F4F9F4F0895E89409C097FB3EF4EE
S1130EC090958095709561957F4F8F4F9F4F992393
S1130ED0A9F0F92F96E9BB279395F6958795779511
S1130EE06795B795F111F8CFFAF4BB0F11F460FFD1
S1130EF01BC06F5F7F4F8F4F9F4F16C0882311F029
S1130F0096E911C0772321F09EE8872F762F05C03C
S1130F10662371F096E8862F70E060E02AF09A95D7
S1130F20660F771F881FDAF7880F9695879597F9CC
S1130F300895990F0008550FAA0BE0E8FEEF161666
S1130F401706E807F907C0F012161306E407F507B9
S1130F5098F0621B730B840B950B39F40A2661F02D
S1130F60232B242B252B21F408950A2609F4A140D0
S1130F70A6958FEF811D811D089597F99F6780E8DD
S1130F8070E060E008959FEF80EC089500240A94D7
S1130F901616170618060906089500240A94121650
S1130FA01306140605060895092E0394000C11F483
S1130FB0882352F0BB0F40F4BF2B11F460FF04C030
S1130FC06F5F7F4F8F4F9F4F089557FD9058440F89
S1130FD0551F59F05F3F71F04795880F97FB991F94
S1130FE061F09F3F79F08795089512161306140651
S1130FF0551FF2CF4695F1DF08C0161617061806DE
S1131000991FF1CF86957105610508940895E894B8
S1131010BB2766277727CB0197F908950BD0C4CF58
S1131020B5DF28F0BADF18F0952309F0A6CFABCFCF
S11310301124EECFCADFA0F3959FD1F3950F50E0B2
S1131040551F629FF001729FBB27F00DB11D639F76
S1131050AA27F00DB11DAA1F649F6627B00DA11D1C
S1131060661F829F2227B00DA11D621F739FB00DC2
S1131070A11D621F839FA00D611D221F749F332732
S1131080A00D611D231F849F600D211D822F762FCB
S11310906A2F11249F5750408AF0E1F088234AF0C8
S11310A0EE0FFF1FBB1F661F771F881F9150504014
S11310B0A9F79E3F510570F060CFAACF5F3FECF3D4
S11310C0983EDCF3869577956795B795F795E79500
S11310D09F5FC1F7FE2B880F911D9695879597F911
S11310E008952F923F924F925F926F927F928F92C8
S11310F09F92AF92BF92CF92DF92EF92FF920F93A3
S11311001F93CF93DF93CDB7DEB763970FB6F894F1
S1131110DEBF0FBECDBF7C011B016A01FC0117823B
S11311201682838181FF49C3BE016F5F7F4F4B01EC
S1131130F7019381F10193FD859193FF81911F0143
S1131140882309F436C3853239F493FD859193FFDE
S113115081911F01853231F4B70190E03DD45601ED
S11311606501E6CF10E0512C20E02032A0F48B3250
S113117069F030F4803259F0833269F420612CC074
S11311808D3239F0803339F4216026C02260246026
S113119023C0286021C027FD27C030ED380F3A3026
S11311A078F426FF06C0FAE01F9F300D1124132F98
S11311B013C06AE0569E300D1124532E20620CC0D9
S11311C08E3221F426FDF5C2206406C08C3611F45B
S11311D0206802C0883641F4F10193FD859193FFA4
S11311E081911F018111C1CF9BEB980F933018F4AB
S11311F02061805E06C09BE9980F933008F09AC185
S11312002F7E26FF16E02F73722E853621F4F22FDF
S1131210F0647F2E08C0863621F4622F6068762E33
S113122002C01111115077FE07C01C3348F4442446
S11312304394410E27E00BC0183030F4212F06C030
S113124027E04CE3442E03C027E017E0412C56016D
S113125074E0A70EB11CF6016081718182819381D3
S1131260042DA401CBD26C01098100FF02C003FF4D
S113127006C071FC07C072FC08C0612C08C03DE2C6
S1131280632E05C02BE2622E02C090E2692E802FED
S11312908C7081F1662011F084E001C083E0851533
S11312A010F0512C0AC0581A73FC07C0B70180E231
S11312B090E092D35A94D1F7F4CF662021F0B7018D
S11312C0862D90E089D303FD03C00AE811E002C033
S11312D006E811E0F72DF0717F2EF8018491882340
S11312E009F45EC271108052B70190E075D30F5FAC
S11312F01F4FF3CF77FE0FC04C0C04FF04C08A814C
S1131300813309F44A94141474F5F8E0F41578F56B
S113131088E0482E2CC076FC2AC0812F90E08C15E2
S11313209D059CF06CEFC6166FEFD60674F0772D12
S11313307068772E0AC0E2E0F0E0EC0FFD1FE10FC9
S1131340F11D8081803319F411501111F4CF77FE0F
S11313500EC044244394410E812F90E0C816D90650
S11313602CF41C1904C04424439401C010E077FEFB
S113137007C01C141D043CF496012F5F3F4F05C0A9
S113138025E030E002C021E030E0662011F02F5F5C
S11313903F4F112331F0412F50E04F5F5F4F240F37
S11313A0351F452D50E02417350714F4521A01C097
S11313B0512C872D897041F4552031F0B70180E21A
S11313C090E00AD35A94F8CF662021F0B701862D15
S11313D090E002D373FC08C0552031F0B70180E3DC
S11313E090E0FAD25A94F8CF77FE5DC09C2D8D2DF3
S11313F0D7FE02C090E080E0692E782E40E050E0F5
S1131400C601841991099D878C879601261937098D
S1131410280D391D812F90E0EE27FF27E81BF90BDB
S1131420FF87EE87FFEF6F167F0661F4B7018EE248
S113143090E02B8B3A8B488B598BCED259894889B3
S11314403A892B89C614D70454F06C857D856615BA
S113145077052CF4F901E40FF51F818101C080E3C5
S113146071E0671A71084F5F5F4FEE85FF856E1656
S11314707F0664F0B70190E02B8B3A8B488B598B35
S1131480ABD22B893A8948895989CCCF6C147D0415
S113149039F49A81963318F4953311F404FF81E3F7
S11314A0B70190E045C08A81813309F00F7EB7010E
S11314B090E092D2111105C074FE16C085E490E04C
S11314C015C0B7018EE290E087D282E0662463946F
S11314D0680EF401E80FF11D8081B70190E07CD221
S11314E0115051F3862DF2CF85E690E0B70174D206
S11314F0D7FC05C0C114D10439F404FF05C0D1944C
S1131500C194D1088DE201C08BE2B70190E064D2AE
S113151080E36AE0C616D1042CF08F5FFAE0CF1A9C
S1131520D108F7CFB70190E057D2B701C601C096F2
S113153053D236C1833631F0833779F0833509F0DD
S113154054C020C0560172E0A70EB11CF601808180
S1131550898301E010E0640113C05601F2E0AF0E8C
S1131560B11CF601C080D18026FF03C0612F70E05A
S113157002C06FEF7FEFC6012B8B23D28C012B8926
S11315802F7714C05601F2E0AF0EB11CF601C080F3
S1131590D18026FF03C0612F70E002C06FEF7FEFA0
S11315A0C6012B8B03D28C012B892068722E23FD5C
S11315B018C0852D90E00817190798F4B70180E248
S11315C090E00AD25A94F5CFF60177FC859177FE24
S11315D081916F01B70190E0FFD151105A940150ED
S11315E011090115110581F7DBC0843611F0893624
S11315F049F5560127FF09C0F4E0AF0EB11CF6010E
S113160060817181828193810AC0F2E0AF0EB11CC6
S1131610F60160817181882777FD8095982F022FCC
S11316200F7697FF08C090958095709561957F4FD0
S11316308F4F9F4F00682AE030E0A4013DD2C82EAE
S1131640C8183DC0022F853721F40F7E2AE030E010
S11316501DC0097F8F3691F018F4883559F0A9C060
S1131660803719F0883711F0A4C0006104FF09C065
S1131670046007C024FF08C0066006C028E030E00C
S113168005C020E130E002C020E132E0560107FF4E
S113169009C0F4E0AF0EB11CF60160817181828152
S11316A0938108C0F2E0AF0EB11CF6016081718134
S11316B080E090E0A40100D2C82EC8180F7706FF7E
S11316C00BC0202F2E7FC11650F404FF0AC002FD68
S11316D008C0202F2E7E05C0DC2C202F03C0DC2C5C
S11316E001C0D12E24FF0DC0FE01EC0DF11D80813F
S11316F0803311F4297E09C022FF06C0D394D39409
S113170004C0822F867809F0D39423FD12C020FFF1
S113171006C01C2DD51418F4150D1D19D52CD5147F
S113172060F4B70180E290E02B8B56D1D3942B89DF
S1131730F6CFD51410F45D1801C0512C24FF11C04C
S1131740B70180E390E02B8B47D12B8922FF16C091
S113175021FF03C088E590E002C088E790E0B7016C
S11317600CC0822F867851F021FD02C080E201C0B6
S11317708BE227FD8DE2B70190E02ED1C11630F443
S1131780B70180E390E028D11150F8CFCA94F40156
S1131790EC0DF11D8081B70190E01ED1C110F6CF90
S11317A0552009F4DDCCB70180E290E015D15A94BC
S11317B0F7CFF7018681978102C08FEF9FEF639681
S11317C00FB6F894DEBF0FBECDBFDF91CF911F914E
S11317D00F91FF90EF90DF90CF90BF90AF909F90CC
S11317E08F907F906F905F904F903F902F900895CF
S11317F0EE0FFF1F0590F491E02D1994283008F0A6
S113180027E03327DA01990F311D87FD9160009697
S11318106105710539F432602E5F3D9330E32A95FA
S1131820E1F708959F3F30F080387105610509F0B4
S11318303C5F3C5F3D93913008F08068911DDF93DD
S1131840CF931F930F93FF92EF92192F987F969542
S1131850E92F96959695E90FFF27E851FE4F9927B2
S11318603327EE24FF24A701E70105900894079489
S113187028F4360FE71EF81E491F511D660F771F07
S1131880881F991F0694A1F70590079428F4E70E82
S1131890F81E491F561FC11D770F881F991F661F09
S11318A00694A1F70590079428F4F80E491F561FD3
S11318B0C71FD11D880F991F661F771F0694A1F7B4
S11318C00590079420F4490F561FC71FD81F990F7E
S11318D0661F771F881F0694A9F7849110951770C7
S11318E041F0D695C79557954795F794E7941A957F
S11318F0C1F7EEE8F1E06894159015913591659182
S1131900959105907FE27395E118F10A430B560B0C
S1131910C90BD009C0F7E10CF11E431F561FC91FA4
S1131920D01D7EF4703311F48A95E6CFE89401500B
S113193030F0080F0AF40027021708F4202F23952B
S1131940022F7A3328F079E37D932A95E9F710C0C2
S11319507D932A9589F606949795679537951795FB
S11319601794E118F10A430B560BC90BD00998F0F0
S113197023957E9173957A3308F070E37C9320135A
S1131980B8F77E9170617D9330F0839571E37D9318
S113199070E32A95E1F71124EF90FF900F911F91C6
S11319A0CF91DF91992787FD90950895FC010590CB
S11319B0615070400110D8F7809590958E0F9F1F4D
S11319C00895FC016150704001900110D8F7809592
S11319D090958E0F9F1F08950F931F93CF93DF93BE
S11319E0182F092FEB018B8181FD03C08FEF9FEF2F
S11319F020C082FF10C04E815F812C813D8142173F
S1131A0053077CF4E881F9819F012F5F3F4F3983AD
S1131A102883108306C0E885F985812F1995892BC1
S1131A2029F72E813F812F5F3F4F3F832E83812FE4
S1131A30902FDF91CF911F910F910895CF93DF9352
S1131A40CDB7DEB7FE01369661917191AF018091F9
S1131A5062039091630345DBDF91CF9108950F9367
S1131A601F93CF93DF93E0916203F091630323818B
S1131A7021FF1BC0EC0100E010E08991609162033A
S1131A8070916303DB011896ED91FC9119978823FB
S1131A9031F01995892B89F30FEF1FEFEECF8AE010
S1131AA01995892B11F4C80102C08FEF9FEFDF91C4
S1131AB0CF911F910F910895FA01AA27283051F16F
S1131AC0203181F1E8946F936E7F6E5F7F4F8F4F6B
S1131AD09F4FAF4FB1E03ED0B4E03CD0670F781FCA
S1131AE0891F9A1FA11D680F791F8A1F911DA11DAF
S1131AF06A0F711D811D911DA11D20D009F46894E8
S1131B003F912AE0269F11243019305D3193DEF68F
S1131B10CF010895462F4770405D4193B3E00FD045
S1131B20C9F7F6CF462F4F70405D4A3318F0495D30
S1131B3031FD4052419302D0A9F7EACFB4E0A69513
S1131B409795879577956795BA95C9F70097610535
S1131B50710508959B01AC010A2E0694579547958B
S1131B6037952795BA95C9F7620F731F841F951F80
S10B1B70A01D0895F894FFCFB5
S1131B780000000300000000EB04F3040000F86D0B
S1131B88617820706F733A2025640A0A00737065BF
S1131B9865643A2025640A6572726F723A20256476
S1131BA80A0A0043414E4354524C20286578706514
S1131BB863742030783837293A20307825303278E1
S1131BC80A004E6F206D65737361676520696E2026
S1131BD86275666665720A004D6573736167652090
S1131BE869643A2025640A4D657373616765206CDE
S1131BF8656E6774682025640A004D6573736167B0
S1131C086520646174613A205B202564002C2025DA
S1131C186400205D0A0043414E4354524C3A202547
S1131C283032780A004D43503235313520697320FB
S1131C386E6F7420696E20636F6E666967206D6FBE
S1131C486465206166746572207265736574004EFC
S1131C586F7420696E206C6F6F706261636B206FA4
S1131C687065726174696F6E206D6F6465004F7082
S1131C78206D6F64653A2025780A005465737420D2
S10D1C88646F6E650A0069720000C3
S9030000FC
