S00D00004E6F6465322E737265635F
S113000071C0000017C100008CC000008AC000004D
S113001088C0000086C0000084C0000082C00000C8
S113002080C000007EC000007CC000007AC00000D8
S113003078C0000076C0000074C0000072C00000E8
S113004070C000006EC000006CC000006AC00000F8
S113005068C0000066C0000064C0000062C0000008
S113006060C000005EC000005CC000005AC0000018
S113007058C0000056C0000054C0000052C0000028
S113008050C000004EC000004CC000004AC0000038
S113009048C0000046C0000044C0000042C0000048
S11300A040C000003EC000003CC000003AC0000058
S11300B038C0000036C0000034C0000032C0000068
S11300C030C000002EC000002CC000002AC0000078
S11300D028C0000026C0000024C0000022C0000088
S11300E020C0000011241FBECFEFD1E2DEBFCDBF80
S11300F000E00CBF12E0A0E0B2E0EEE1FAE000E0C4
S11301000BBF02C007900D92A23FB107D9F723E0BD
S1130110A2EFB2E001C01D92A430B207E1F77DD195
S11301207CC46ECFF0D08FE0E1D01F928F938EE02D
S113013092E09F938F939FD14FEF60E680E6BDD00E
S113014040E064E080E6B9D04FEF61E08BE2B5D0E7
S113015040E060EE8FE0B1D00F900F900F900F90C1
S113016008959F92AF92BF92CF92DF92EF92FF9247
S11301700F931F93CF93DF93CDB7DEB72B970FB6B3
S1130180F894DEBF0FBECDBF7C018CE2AFD080FF00
S113019030C081E6ABD0C82E82E6A8D08295869581
S11301A08770D12CCC0CDD1CCC0CDD1CCC0CDD1CE4
S11301B0C82A85E69BD08F70982EA1F08E010C5F23
S11301C01F4F0F2EF6E6AF2EF02DA80E0F2EF6E6DB
S11301D0BF2EF02D8B2D8AD0F80181938F01B3941B
S11301E0BA10F8CF1092FD0240E061E08CE265D0D5
S11301F003C0CC24CA94DC2CDA82C9829B828BE0B3
S1130200FE013196D70101900D928A95E1F7C7015D
S11302102B960FB6F894DEBF0FBECDBFDF91CF9102
S11302201F910F91FF90EF90DF90CF90BF90AF9010
S11302309F9008951F920F920FB60F9211248F93DF
S11302409F938FE39CE90197F1F700C0000081E0E0
S11302508093FD029F918F910F900FBE0F901F907E
S11302601895CF93DF93CDB7DEB72B970FB6F894DD
S1130270DEBF0FBECDBFCE01019673DF8BE0FE0162
S11302803196A2EFB2E001900D928A95E1F7809148
S1130290F2029091F302019639F08091F5029927C8
S11302A081950CF4909565D02B960FB6F894DEBF2B
S11302B00FBECDBFDF91CF9108951F93CF93DF93EE
S11302C0182FD62FC42F84D085E076D0812F74D0F8
S11302D08D2F72D08C2F70D07DD0DF91CF911F9154
S11302E0089576D080EC68D075C00895CF93C82F58
S11302F06FD083E061D08C2F5FD063D0C82F6AD0D9
S11303008C2FCF910895CF93DF931F92CDB7DEB793
S11303104BD0E7DF8EE0EADF89838981807E8038F5
S113032019F080E992E0B8D00F90DF91CF91089551
S11303306B9AA1E9B0E08C9182608C938C918A7F56
S11303408C93E0E9F0E080818260808380818E7FFD
S113035080838C9188618C93808180688083808184
S11303608F7B808380E49CE9909397008093960030
S113037008959C0120583F4F4BE4429FC001439F86
S1130380900D11246FEF70E04FD0660F771F6295C8
S11303907295707F7627607F7627685F784F7093B9
S11303A0990060939800089584B1876084B9239874
S11303B08CB581658CBD08958EBD0DB407FEFDCF4F
S11303C008958AEAF9DF0DB407FEFDCF8EB50895CE
S11303D028980895289A0895E0ECF0E0908195FF1C
S11303E0FDCF8093C6000895E0ECF0E0808188237F
S11303F0ECF78091C60090E008958093C40088E1F2
S11304008093C10080E092E0909301038093000305
S11304109093FF028093FE02089587E690E0EDDF5B
S113042081DE86DF1EDFFECF97FB072E16F40094D5
S113043006D077FD08D00BD007FC05D03EF490958C
S113044081959F4F0895709561957F4F0895AA1BDC
S1130450BB1B51E107C0AA1FBB1FA617B70710F0AB
S1130460A61BB70B881F991F5A95A9F780959095DD
S1130470BC01CD010895CF93DF93CDB7DEB7FE0164
S1130480369661917191AF018091000390910103BF
S113049030D0DF91CF9108950F931F93CF93DF93C3
S11304A0E0910003F0910103238121FF1BC0EC01C3
S11304B000E010E089916091000370910103DB0179
S11304C01896ED91FC911997882331F01995892B91
S11304D089F30FEF1FEFEECF8AE01995892B11F402
S11304E0C80102C08FEF9FEFDF91CF911F910F9151
S11304F008952F923F924F925F926F927F928F92C4
S11305009F92AF92BF92CF92DF92EF92FF920F939E
S11305101F93CF93DF93CDB7DEB72C970FB6F89424
S1130520DEBF0FBECDBF7C016B018A01FC011782C7
S11305301682838181FFB0C1CE0101964C01F7017F
S11305409381F60193FD859193FF81916F01882337
S113055009F49EC1853239F493FD859193FF81910D
S11305606F01853221F4B70190E0C7D1E8CF512C57
S1130570312C20E02032A0F48B3269F030F4803248
S113058059F0833269F420612CC08D3239F0803304
S113059039F4216026C02260246023C0286021C071
S11305A027FD27C030ED380F3A3078F426FF06C017
S11305B0FAE05F9E300D1124532E13C08AE0389E5A
S11305C0300D1124332E20620CC08E3221F426FD0E
S11305D05FC1206406C08C3611F4206802C08836DE
S11305E041F4F60193FD859193FF81916F0181118F
S11305F0C1CF982F9F7D9554933028F40C5F1F4FE3
S1130600FFE3F9830DC0833631F0833771F083350E
S113061009F057C021C0F801808189830E5F1F4F04
S113062044244394512C540114C03801F2E06F0E59
S1130630711CF801A080B18026FF03C0652D70E015
S113064002C06FEF7FEFC5012C874CD12C018301D1
S11306502C852F77222E16C03801F2E06F0E711C04
S1130660F801A080B18026FF03C0652D70E002C0B0
S11306706FEF7FEFC5012C872AD12C012C852068D0
S1130680222E830123FC19C0832D90E048165906BD
S1130690A0F4B70180E290E030D13A94F5CFF501AF
S11306A027FC859127FE81915F01B70190E025D158
S11306B031103A94F1E04F1A51084114510479F77A
S11306C0DEC0843611F0893631F5F80127FF07C002
S11306D060817181828193810C5F1F4F08C06081AA
S11306E07181882777FD8095982F0E5F1F4F2F7695
S11306F0B22E97FF09C090958095709561957F4FB4
S11307008F4F9F4F2068B22E2AE030E0A40127D1FA
S1130710A82EA81843C0853729F42F7EB22E2AE0CC
S113072030E025C0F22FF97FBF2E8F36C1F018F4C8
S1130730883579F0ADC0803719F0883721F0A8C02A
S11307402F2F2061B22EB4FE0DC08B2D8460B82EE5
S113075009C024FF0AC09F2F9660B92E06C028E066
S113076030E005C020E130E002C020E132E0F801D1
S1130770B7FE07C060817181828193810C5F1F4F36
S113078006C06081718180E090E00E5F1F4FA4017C
S1130790E6D0A82EA818FB2DFF77BF2EB6FE0BC0FF
S11307A02B2D2E7FA51450F4B4FE0AC0B2FC08C051
S11307B02B2D2E7E05C07A2C2B2D03C07A2C01C044
S11307C0752C24FF0DC0FE01EA0DF11D80818033DC
S11307D011F4297E09C022FF06C07394739404C0E7
S11307E0822F867809F0739423FD12C020FF06C07F
S11307F05A2C731418F4530C5718732C731460F494
S1130800B70180E290E02C8778D073942C85F6CFE2
S1130810731410F4371801C0312C24FF11C0B70130
S113082080E390E02C8769D02C8522FF16C021FF3D
S113083003C088E590E002C088E790E0B7010CC0EF
S1130840822F867851F021FD02C080E201C08BE244
S113085027FD8DE2B70190E050D0A51430F4B70124
S113086080E390E04AD05A94F8CFAA94F401EA0DB8
S1130870F11D8081B70190E040D0A110F6CF332064
S113088009F45DCEB70180E290E037D03A94F7CF17
S1130890F7018681978102C08FEF9FEF2C960FB6E8
S11308A0F894DEBF0FBECDBFDF91CF911F910F91A2
S11308B0FF90EF90DF90CF90BF90AF909F908F907C
S11308C07F906F905F904F903F902F900895FC0120
S11308D00590615070400110D8F7809590958E0F67
S11308E09F1F0895FC016150704001900110D8F7DA
S11308F0809590958E0F9F1F08950F931F93CF930C
S1130900DF93182F092FEB018B8181FD03C08FEF3B
S11309109FEF20C082FF10C04E815F812C813D81FA
S1130920421753077CF4E881F9819F012F5F3F4F01
S113093039832883108306C0E885F985812F1995AA
S1130940892B29F72E813F812F5F3F4F3F832E83D1
S1130950812F902FDF91CF911F910F910895FA016C
S1130960AA27283051F1203181F1E8946F936E7FEA
S11309706E5F7F4F8F4F9F4FAF4FB1E03ED0B4E0DB
S11309803CD0670F781F891F9A1FA11D680F791F1C
S11309908A1F911DA11D6A0F711D811D911DA11D2D
S11309A020D009F468943F912AE0269F112430193D
S11309B0305D3193DEF6CF010895462F4770405DD8
S11309C04193B3E00FD0C9F7F6CF462F4F70405D87
S11309D04A3318F0495D31FD4052419302D0A9F7E2
S11309E0EACFB4E0A6959795879577956795BA95DC
S11309F0C9F700976105710508959B01AC010A2EA2
S1130A0006945795479537952795BA95C9F7620F78
S1110A10731F841F951FA01D0895F894FFCF37
S1130A1E0000000300000000EC01F401000043415B
S1130A2E4E4354524C202865787065637420307898
S1130A3E3837293A203078253032780A004E6F2024
S1130A4E6D65737361676520696E20627566666590
S1130A5E720A004D6573736167652069643A2025D7
S1130A6E640A4D657373616765206C656E6774689F
S1130A7E2025640A004D6573736167652064617493
S1130A8E613A205B202564002C20256400205D0A39
S1130A9E0043414E4354524C3A20253032780A00DA
S1130AAE4D435032353135206973206E6F74206991
S1130ABE6E20636F6E666967206D6F646520616674
S1130ACE746572207265736574004E6F7420696E5E
S1130ADE206C6F6F706261636B206F7065726174EE
S1130AEE696F6E206D6F6465004F70206D6F646565
S1130AFE3A2025780A005465737420646F6E650A73
S1050B0E0000E1
S9030000FC
